:020000040020DA
:10400000F87F00201D41200051BD200051BD20003F
:1040100051BD200051BD200051BD200051BD2000E8
:1040200051BD200051BD200051BD200087BD2000A2
:1040300051BD200051BD200051BD200051BD2000C8
:1040400051BD200051BD200051BD200051BD2000B8
:1040500051BD200051BD200051BD200051BD2000A8
:1040600051BD200051BD200051BD200051BD200098
:1040700051BD200051BD200051BD200051BD200088
:1040800051BD200051BD200051BD200051BD200078
:1040900051BD200051BD200051BD200051BD200068
:1040A00051BD200051BD200051BD200051BD200058
:1040B00051BD200051BD200051BD200051BD200048
:1040C00051BD200051BD200051BD200051BD200038
:1040D00051BD200051BD200051BD200051BD200028
:1040E00051BD200051BD200051BD200051BD200018
:1040F00051BD200051BD200010B5074C54F8043CC0
:10410000B3F1FF3F06D0043C984754F8043DB3F1A7
:0C411000FF3FF9D110BD00BF9CD0200083
:10411C0040400949094A086004319142FBDBFFF732
:10412C00E5FF00BF00F0C2F900F074FC01B408F028
:10413C0019FC03F003FF000004000020B00C002069
:10414C00F0B5CB6881B004460D461746002B2DD038
:10415C0023602B68002623616B68666123622A69E1
:10416C00A661E4616662A66205F10801204605F0CD
:10417C0023FC2B69A2686660D218A2F140034FF0B1
:10418C00807142F8401C0B4A01A942F001029A636B
:10419C0047F00102DA63204641F8047DE36069468A
:1041AC004FF4406205F084FE01B0F0BD024B1B6879
:1041BC00CEE700BF3D7F200084010020294B30B5A5
:1041CC00186844682246002C47D063683F2B07D8F8
:1041DC00302B11D0D268002A3FD053683F2BF7D92F
:1041EC00303B5360C1683039C16053B11268302123
:1041FC00D018D150043030BD00235360C168303921
:10420C00C160016801290BD0956875B1D468BCB147
:10421C00EC60D2F80CC00139CCF808500160E5E72D
:10422C000021416081600160E0E70029DED0D4F814
:10423C000CC00139C0F804C00160CCF80850D5E7B7
:10424C000029D3D0D0F808C00139DCF808C00160CF
:10425C00C0F808C0CCF80C40C8E703F0CFFE002033
:10426C00C9E700BF58000020F0B58CB000240A94B8
:10427C000A9B4FF4406701930094029403940497B3
:10428C00FFF79CFF44F23012C0F22002694605464B
:10429C00FFF756FF6FF000430B930B9B0126069321
:1042AC000596079408940997FFF788FF49F6614231
:1042BC00C0F2200205A9FFF743FF40F2A813C2F297
:1042CC0000031E70E86807F0ADFF0CB0F0BD00BF36
:1042DC002DE9F0076B4E7368002B76D059680029D6
:1042EC0073D0DFF8A481B24600270022D8F8005022
:1042FC005A60F268521AF2605A68BAB9DAF8004099
:10430C00012C76D09868002800F09B80D3F80CC064
:10431C00BCF1000F00F0A580C0F80CC0DA6890600A
:10432C00DAF80020013ACAF800205A681C68A41870
:10433C0049D00F2947D961602460A760E760EB681A
:10434C0059186B68E960D4F800C06068002B40D045
:10435C00D3F80090604448450CBF1A461A4604D066
:10436C00D26812B111688842FAD159688944CC4597
:10437C0007D0DB68002B2BD01868596841188C4586
:10438C00F7D119461346CBB160685A68821862603F
:10439C002868012802BF6F60AF602F600ED09A684A
:1043AC00002A2ED0D3F80CC0BCF1000F33D0C2F8C9
:1043BC000CC0DB689A602B68013B2B6019B14A6812
:1043CC006368D3184B60736873B9BDE8F007704726
:1043DC0013462968002929D1A160E1602A686C6024
:1043EC000132AC602A60CEE7596800297FF47DAFBA
:1043FC00EBE7CAF80420CAF80820CAF800205A686B
:10440C0094E70028DAD06B68DB686B609A602B68E5
:10441C00013B2B60D2E70028D0D0AB689B68AB6027
:10442C00C3F80CC02B68013B2B60C7E7AA68394660
:10443C00D460AA68E760A2602A68AC6001322A6086
:10444C00A1E7002C3FF472AFDAF80400C068CAF898
:10445C0004008260DAF80020013ACAF800205A6899
:10446C0064E7002C3FF462AFDAF808008068CAF801
:10447C000800C260DAF80020013ACAF800205A6835
:10448C0054E700BF980C00205800002040F21403A1
:10449C00C2F200030A2100221A71196040F20C03C7
:1044AC00C2F2000319601A71704700BF00B504F026
:1044BC006FFA00BD30B54CF6D41040F21C0490B02D
:1044CC00C2F20004C0F2200003F040FDA3686A466B
:1044DC001968204603F0D8FE10AB1818002300F81A
:1044EC00403C684603F032FD4CF6C830C0F2200068
:1044FC0003F02CFD0A236D46236010B030BD00BFC5
:10450C002DE9F045764F90B0764803F01FFDFB681F
:10451C004BF217711C68C3F6D101204608F0B0F9B4
:10452C00002809DA4BF217712046CBF6D10108F0BE
:10453C00A3F9002800F3CC804BF217712046C3F688
:10454C00D10108F099F9002863DA40F20001204605
:10455C00CBF6807108F094F9002800F3BF80002698
:10456C0020464FF07E5107F02FFF40F20001CBF6B2
:10457C008071044608F084F901360028F0DD5A48B1
:10458C0003F0E4FC31466A46554803F07DFE10AB5F
:10459C001818002600F8406C684603F0D7FC534806
:1045AC0003F0D4FC6D46B04640F200012046C4F244
:1045BC00201108F011F840F20001CBF6807104468E
:1045CC0008F05EF90028C8BF4FF0000A11DC4FF06C
:1045DC00000A20464FF07E5107F0F6FE40F2000133
:1045EC00CBF68071044608F04BF900280AF1010A59
:1045FC00EFDD51466A463A4803F046FE10AB1818F8
:10460C0000F8408C0136684603F0A0FC032ECBD199
:10461C0056E020464FF07E5108F02EF900285BDB67
:10462C00002620464FF07E5107F0CCFE4FF07E5115
:10463C00044608F021F901360028F2DA31466A46C0
:10464C00274803F021FE10AB1818002600F8406C28
:10465C00684603F07BFC254803F078FC6D46B046B9
:10466C0040F200012046C4F2201107F0B5FF4FF0D4
:10467C007E51044608F000F90028B8BF4FF0000A3C
:10468C000FDB4FF0000A20464FF07E5107F09AFEE8
:10469C004FF07E51044608F0EFF800280AF1010AA9
:1046AC00F1DA51466A460E4803F0EEFD10AB1818CD
:1046BC0000F8408C0136684603F048FC032ECFD13D
:1046CC000B4803F043FC0A233B6010B0BDE8F085B7
:1046DC00084803F03BFC2FE70026AFE700264EE727
:1046EC001C000020E8C9200008CA200094CF20003C
:1046FC00C8CB200000CA200010B5384C384803F055
:10470C0025FC2369374A1878374B002814BF10460C
:10471C00184603F01BFC354803F018FC0A232360F1
:10472C0023691B78002B2DD04BF22043C4F20D03D0
:10473C001A6822F008021A604BF20043C4F20D030F
:10474C001A6842F008021A6044F2CC03C4F20D035A
:10475C0004221A604BF21C43C4F20D0308221A60A7
:10476C004BF21873C4F20D031A6822F400221A607B
:10477C004BF22003C4F20D03FF221A601C4B0022E3
:10478C00DA6410BD4BF22042C4F20D02116821F024
:10479C00080111604BF20042C4F20D02116841F0A5
:1047AC000801116044F2CC02C4F20D020421116024
:1047BC004BF21C42C4F20D02082111604BF218722C
:1047CC00C4F20D02116821F4002111604BF2200299
:1047DC00C4F20D021360064AD364D2E71C00002019
:1047EC000CCA200020CA200014CA2000C8CB20000C
:1047FC00F401002070B5854D854C28680023416874
:10480C000A2223766261237122600B46002900F094
:10481C00F5804A681F2A08D8102A06D0DB68002BBE
:10482C0000F0EC805A681F2AF6D9103A5A60C26818
:10483C00103AC2605A68AAB9D0F800C0BCF1010F96
:10484C0000F086809E68002E00F08C80D9680029CC
:10485C0000F0AA80F160DA680CF1FF3CC0F800C0EF
:10486C0096605A68196810208B18885004330022FF
:10487C001A702868236141680B46002900F0BA8041
:10488C004A681F2A08D8102A06D0DB68002B00F0D3
:10489C00B1805A681F2AF6D9103A5A60C268103A89
:1048AC00C2605A689AB9D0F800C0BCF1010F54D05C
:1048BC009E68002E6CD0D968002900F08D80F160C4
:1048CC00DA680CF1FF3CC0F800C096605A681968B1
:1048DC0010208B18885004332868002241681A6015
:1048EC00A3600B46002900F08D804A681F2A08D867
:1048FC00102A06D0DB68002B00F084805A681F2A2F
:10490C00F6D9103A5A60C268103AC2605A6872B945
:10491C000568012D17D09E68002E30D0D96800296B
:10492C0050D0F160DA68013D056096605A681968EC
:10493C0010208B188850043340F20002C4F2A012ED
:10494C001A60E36070BD0260426082605A68EEE7F4
:10495C000260426082605A6884E702604260826052
:10496C005A68B4E7BCF1000F3FF47CAFC9680CF196
:10497C00FF3CC0F800C041608A605A6872E7002DA5
:10498C00D5D0C968013D056041608A605A68CEE7A0
:10499C00BCF1000F9BD0C9680CF1FF3CC0F800C003
:1049AC0041608A605A6892E7BCF1000F3FF45AAF3D
:1049BC0081680CF1FF3C8968C0F800C08160CA6056
:1049CC005A684FE7002DB2D08168013D89680560B7
:1049DC008160CA605A68AAE7BCF1000F3FF477AF58
:1049EC0081680CF1FF3C8968C0F800C08160CA6026
:1049FC005A686CE703F002FB00236DE703F0FEFA44
:104A0C00002334E703F0FAFA002395E7580000205E
:104A1C001C0000202DE9F04F0427D4B044F2CC0B3D
:104A2C004BF21C494BF218744BF2200ADFF8448A03
:104A3C0050A9C4F20D0BBC46C4F20D09C4F20D040E
:104A4C00C4F20D0A4BF22046C4F20D0633684BF249
:104A5C00004523F008033360C4F20D052B680820D1
:104A6C0043F008032B60CBF800C0C9F800002368A2
:104A7C00FF2223F400232360CAF800204AF22013FB
:104A8C000022C0F207030846C8F84C200191CDF86B
:104A9C0000C050930392029304F04CFE3068039ACA
:104AAC0020F0080030602868029B40F00800286065
:104ABC000420CBF800000820C9F800002068C8F8D2
:104ACC004C2020F400202060CAF8002051A85193FB
:104ADC0004F030FE17F1FF370199DDF800C0B1D1B9
:104AEC0044F2CC0B4BF21C494BF218754BF2200ADA
:104AFC0005244EA9C4F20D0B4FF0040CC4F20D09A1
:104B0C00C4F20D05C4F20D0A4BF22047C4F20D0796
:104B1C003B684BF2004623F008033B60C4F20D06E1
:104B2C003368082243F008033360CBF800C0C9F89F
:104B3C0000202B68002223F400232B60FF23CAF8EB
:104B4C00003048F2A063C0F201030846C8F84C20BC
:104B5C000191CDF800C04E930392029304F0EAFD4C
:104B6C003868039A20F0080038603068029B40F0E7
:104B7C00080030600420CBF800000820C9F80000C1
:104B8C002868C8F84C2020F400202860CAF80020BF
:104B9C004FA84F9304F0CEFD14F1FF340199DDF8CA
:104BAC0000C0B1D1DFF8D0383794369340F22C03E3
:104BBC00C0F228031B68389439944B944C944D9450
:104BCC00DFF8B8483593DFF8B83820684A93436863
:104BDC004BB15A681F2A00F20481102A00F001819F
:104BEC00DB68002BF5D103F009FA00234AAA1A60FE
:104BFC0000225A603799002940F006845960389396
:104C0C003993379B01333793DFF878382068469314
:104C1C00002347934893499343684BB15A681F2A22
:104C2C0000F2FF80102A00F0FC80DB68002BF5D12D
:104C3C0003F0E4F9002346AA1A60379A0021596060
:104C4C00002A40F0DA835A60389339930123379362
:104C5C00206843684BB15A681F2A00F20281102A5F
:104C6C0000F0FF80DB68002BF5D103F0C7F90025BD
:104C7C00DFF81438DFF814A82B600023DAF81020C2
:104C8C00309331931E468DF8CC30DFF80438022077
:104C9C002F93349200F0B6FD0123037046703090D0
:104CAC00319808B103F0AEF9022000F0ABFD0123FE
:104CBC000222037043708DF8CC20ADF80C31DFF874
:104CCC00D427013B31908DF80E3120682FAB3295F3
:104CDC004292449343684BB15A681F2A00F2E18018
:104CEC00102A00F0DE80DB68002BF5D103F086F98A
:104CFC00002342AA1A6000225A604B99002900F046
:104D0C0086844D994B605A604D934B9B01334B936A
:104D1C00206843683BB15A681F2A42D8102A40D0F9
:104D2C00DB68002BF7D103F069F90023DFF8682763
:104D3C00DFF868171A60DAF808200025239306209C
:104D4C0003238DF89030209128922195229525955A
:104D5C002695279500F056FDDFF8441706220646E7
:104D6C0003F0B4FA082000F04DFD06604560259B69
:104D7C00002B00F04584279A013350604560279042
:104D8C002593206845684DB16B681F2B00F2A980F4
:104D9C00102B00F0A680ED68002DF5D103F02EF954
:104DAC00BEE0103A5A60C268103AC2605A6892B9B2
:104DBC000568012D00F040849968002900F02F84CB
:104DCC00DE68002E00F0F383CE60DA689160026832
:104DDC00013A02605A68196810208B188850043305
:104DEC00A4E7103A5A60C268103AC2605A6892B985
:104DFC000568012D00F033849968002900F02284A5
:104E0C00DE68002E00F0C783CE60DA68916002681D
:104E1C00013A02605A68196810208B1888500433C4
:104E2C00E4E6103A5A60C268103AC2605A6892B905
:104E3C000568012D00F026849968002900F015847E
:104E4C00DE68002E00F09B83CE60DA689160026809
:104E5C00013A02605A68196810208B188850043384
:104E6C00E9E6103A5A60C268103AC2605A6892B9C0
:104E7C000568012D00F060849968002900F04F84CA
:104E8C00DE68002E00F06F83CE60DA6891600268F5
:104E9C00013A02605A681B6810219D18995004351C
:104EAC00E6E6103A5A60C268103AC2605A6892B983
:104EBC000568012D00F053849968002900F04284A4
:104ECC00DE68002E00F09083CE60DA689160026894
:104EDC00013A02605A68196810208B188850043304
:104EEC0007E7103B6B60C368103BC3606B6893B9FA
:104EFC000168012900F04684AA68002A00F0358474
:104F0C00EE68002E00F04484D660EB689A6003686B
:104F1C00013B03606B682A681021D518D150043509
:104F2C002846DFF88015062203F0D0F92068436884
:104F3C004BB15A681F2A00F2A381102A00F0A081FD
:104F4C00DB68002BF5D103F059F8002300221D601B
:104F5C005A602599002900F09B8327994B605A6071
:104F6C002793259B01332593052000F04BFC05224C
:104F7C00DFF83415054603F0A9F9082000F042FCCF
:104F8C00002205604260259B002B00F0A583279929
:104F9C0001334860426027902593DFF810354FF0BD
:104FAC0002023E9300238DF8FE30206820ABADF852
:104FBC00FC20409343684BB15A681F2A00F2808151
:104FCC00102A00F07D81DB68002BF5D103F016F878
:104FDC0000233EAA1A6000225A604B99002900F067
:104FEC009E824D994B605A604D934B9B01334B9372
:104FFC00206843684BB15A681F2A00F28181102A3D
:10500C0000F07E81DB68002BF5D102F0F7FF002663
:10501C00DFF89C34336000232A932B938DF8B43043
:10502C00DAF80C20DFF88C34206829932E92436830
:10503C004BB15A681F2A00F28381102A00F080813C
:10504C00DB68002BF5D102F0D9FF0127002528469B
:10505C000021052203F086F904232B704FF07E53B8
:10506C003B602B982A9508B102F0CCFF052000F08C
:10507C00C9FB05220021054603F074F904232B70AB
:10508C004FF08043C5F801304FF003000123DFF8E7
:10509C0028248DF8B430ADF8EC008DF8EE30206893
:1050AC0029AB2B952C963A923C9343684BB15A689A
:1050BC001F2A00F26681102A00F06381DB68002B46
:1050CC00F5D102F09BFF00233AAA1A6000225A6025
:1050DC004799002900F0C78149994B605A60499360
:1050EC00479B01334793206843684BB15A681F2A8A
:1050FC0000F26681102A00F06381DB68002BF5D189
:10510C0002F07CFF0023ED4A002412684FF00A09DC
:10511C001A6014AA1592EA4A8DF85840149235AACE
:10512C00189217941993CDF868908DF86C408DF8FF
:10513C0070401D941E941F94186814A903680122D2
:10514C001B689847DF4802F001FFDF48CAF800905F
:10515C0002F0FCFE359904AA2346CC4803F04EF825
:10516C0004AB1C54184602F0F1FED64802F0EEFED9
:10517C00D648CAF8009002F0E9FE369802F0E6FE36
:10518C00D04802F0E3FEDDF8E0B0CAF80090BBF1C5
:10519C00000F60D004ADCE4802F0D8FEDBF8003032
:1051AC00186802F0D3FEC74802F0D0FECAF800908F
:1051BC00DBF80030D3F80880B8F1000F46D0C548B2
:1051CC0002F0C4FED8F800300027186802F0BEFECA
:1051DC00BC4802F0BBFEC048CAF8009002F0B6FE14
:1051EC00D8F800302A469988A848002303F006F81E
:1051FC002F54284602F0AAFEB24802F0A7FECAF8C5
:10520C000090D8F80030B5489B689E6802F09EFE6E
:10521C0033788BB101240023315D2A469B4802F080
:10522C00EDFF2F54284602F091FEAD4802F08EFEA1
:10523C0033780134A342EEDAA24802F087FECAF8B2
:10524C000090D8F80480B8F1000FB8D1DBF804B0A6
:10525C00BBF1000F9FD19DF87030002B00F0A582A0
:10526C00984802F073FE49F280640A23CAF80030B1
:10527C0052ADC0F298042846529404F05BFAFAE757
:10528C00103A5A60C268103AC2605A6892B90668FD
:10529C00012E00F03F819968002900F02F81DF6812
:1052AC00002F00F01F81CF60DA6891600268013A2C
:1052BC0002605A68196810208B188850043345E630
:1052CC00103A5A60C268103AC2605A6892B90568BE
:1052DC00012D00F0FC819968002900F0EC81DE685A
:1052EC00002E00F0DC81CE60DA6891600268013A31
:1052FC0002605A68196810208B188850043368E6CD
:10530C00103A5A60C268103AC2605A6892B905687D
:10531C00012D00F0FF819968002900F0EF81DE6813
:10532C00002E00F0DF81CE60DA6891600268013AED
:10533C0002605A681B6810219E189950043667E663
:10534C00103A5A60C268103AC2605A6892B905683D
:10535C00012D00F003819968002900F0F380DF68CB
:10536C00002F00F0E380CF60DA6891600268013AA8
:10537C0002605A681B6810219F183D1D9950053713
:10538C0065E6103A5A60C268103AC2605A688AB927
:10539C000568012D00F023819968002900F0138124
:1053AC00DE68002E39D0CE60DA6891600268013A6E
:1053BC0002605A68196810208B188850043383E6F1
:1053CC00103A5A60C268103AC2605A687AB90468D6
:1053DC00012C43D09968002935D0DD68002D27D0E9
:1053EC00CD60DA6891600268013A02605A68196807
:1053FC0010208B188850043385E6399801324360AD
:10540C0037925960399323E439994B605A60399338
:10541C00379B01333793FFF7F7BB002DCAD0816858
:10542C0089688160CA600268013A02605A68C1E703
:10543C00002CDCD0816889688160CA600268013AFE
:10544C0002605A68D3E7002CD1D04168C96841602A
:10545C008A600268013A02605A68C8E7426082605A
:10546C0002605A68C3E7596048934993479B0133DC
:10547C00479338E6F401002028CA20005800002089
:10548C0030CA200038CA2000054720001C0000202C
:10549C00A0C9200044CA2000C1442000ACC920008F
:1054AC0048CA200050CA200058CA200060CA2000F8
:1054BC000D452000B8C920006CCA2000E80100206E
:1054CC00C4C92000C8CB200078CA200084CA2000A0
:1054DC0094CA2000A8CA2000BCCA2000D4CA20004C
:1054EC00A0CC2000002E3FF4E5AE81688968816075
:1054FC00CA600268013A02605A68DBE6002E3FF48B
:10550C00D9AE4168C96841608A600268013A02609C
:10551C005A68CFE64260826002605A68CAE65960F7
:10552C004C934D934B9B01334B9361E5002D3FF412
:10553C0021AF816889688160CA600268013A0260A3
:10554C005A6817E7002D3FF415AF4168C9684160F0
:10555C008A600268013A02605A680BE74260826016
:10556C0002605A6806E7002D3FF495AC81688968A3
:10557C008160CA600268013A02605A688BE4002DAF
:10558C003FF469AC816889688160CA600268013A3D
:10559C0002605A685FE4002D3FF43DAC8168896875
:1055AC008160CA600268013A02605A6833E4002DD7
:1055BC003FF411AC816889688160CA600268013A65
:1055CC0002605A6807E4002D3FF4F4AE4168C968E4
:1055DC0041608A600268013A02605A68EAE64260F9
:1055EC00826002605A68E5E6002D3FF474AC816875
:1055FC0089688160CA600268013A02605A686AE48C
:10560C0043600133269027902593FFF7BABB59606E
:10561C004C934D934B9B01334B93FFF779BB002D70
:10562C003FF4D9AB4168C96841608A600268013AAD
:10563C0002605A68FFF7CFBB4260826002605A6812
:10564C00FFF7C9BB002D3FF4E6AB4168C968416068
:10565C008A600268013A02605A68FFF7DCBB42605C
:10566C00826002605A68FFF7D6BB002D3FF4F3ABA3
:10567C004168C96841608A600268013A02605A68F0
:10568C00FFF7E9BB4260826002605A68FFF7E3BB38
:10569C00596026932793259B0133259364E4002DB1
:1056AC003FF428AE816889688160CA600268013A5B
:1056BC0002605A681EE6002D3FF41CAE4168C968B2
:1056CC0041608A600268013A02605A6812E64260E0
:1056DC00826002605A680DE6436001332690279081
:1056EC0025935AE4002D3FF425AE816889688160CA
:1056FC00CA600268013A02605A681BE6002D3FF44A
:10570C0019AE4168C96841608A600268013A02605A
:10571C005A680FE64260826002605A680AE6002D01
:10572C003FF4B9AB4168C96841608A600268013ACC
:10573C0002605A68FFF7AFBB4260826002605A6831
:10574C00FFF7A9BB002D3FF4C6AB4168C9684160A7
:10575C008A600268013A02605A68FFF7BCBB42607B
:10576C00826002605A68FFF7B6BB00293FF4D3ABE6
:10577C004268D268426093600368013B03606B68C7
:10578C00FFF7C9BB4360836003606B68FFF7C3BB63
:10579C0000293FF4C0AB826892688260D3600368D2
:1057AC00013B03606B68FFF7B6BB124802F0CEFBFF
:1057BC00114802F0CBFB0A231A93072301228DF820
:1057CC00103040F22C038DF81820C0F228031B680F
:1057DC0014A805934FF0FF338DF84C318DF84D31F3
:1057EC0053AB8DF84F2104A953AA033300F03CFCB2
:1057FC0036E500BFECCA2000C8CB2000704700BFC4
:10580C00007C7047344B30B5196808B925E001307D
:10581C0010F0030FFBD14C6804300F2898BF1020F8
:10582C002246002C53D0636800F1100C634507D25C
:10583C00834213D0D268002A49D053686345F7D30A
:10584C001B1A5360D1F80CC0C0EB0C0CC1F80CC087
:10585C0063B11268D118D050081D30BD1B1A5360AB
:10586C00D1F80CC0C0EB0C0CC1F80CC0D1F800C0C6
:10587C00BCF1010F0BD0956895B1D468DCB1EC602C
:10588C00D4680CF1FF3CA560C1F800C0E1E74FF013
:10589C00000CC1F804C0C1F808C0C1F800C0D8E7BA
:1058AC00BCF1000FD5D0E4680CF1FF3C4C60C1F8A2
:1058BC0000C0A560CDE7BCF1000FCAD08D680CF11B
:1058CC00FF3CAD68C1F800C08D60EC60C1E70846D4
:1058DC0002F094FB0020C0E75800002030B590B0D7
:1058EC006A460023044602F089FC10AB181800230A
:1058FC0000F8403C684602F029FB6D46204610B08B
:10590C0030BD00BF2DE9F04F037883B03B2B03D0A3
:10591C00002003B0BDE8F08F441C657946786B1EFF
:10592C00D4F801700B2BF3D8DFE813F01F0026001E
:10593C0039006F0076009F00A600B600CB00BD00BA
:10594C00C4000C000C20FFF75DFF072303700C2331
:10595C00037240F22C03C0F228031B68436000283A
:10596C00D7D0067047600572D3E70C20FFF74AFFCB
:10597C00072303700123EBE70C20FFF743FF0823F9
:10598C0003700223037240F22C03C0F228031B683D
:10599C004360A379003B18BF01234372DFE7A6F1F4
:1059AC00070A5FFA8AFA0AF101094846FFF72AFF4B
:1059BC00002180464A4602F0D5FCA11D52464046C5
:1059CC0002F084FC1420FFF71DFF00238360C360EA
:1059DC000361C0F80480044607601020FFF712FF33
:1059EC008046606802F050FD073088F80000032301
:1059FC0088F8083040F22C03C0F228031B6840469C
:105A0C00C8F80430C8F80C40A9E70C20FFF7FAFEE0
:105A1C000723037004239BE7A6F1070A5FFA8AFAAF
:105A2C000AF101094846FFF7EDFE002180464A467F
:105A3C0002F098FCA11D5246404602F047FC102093
:105A4C00FFF7E0FE002343608360C360C0F8008072
:105A5C0004461020FFF7D6FE8046206802F014FDA5
:105A6C00073088F800000523C2E70C20FFF7CAFEB8
:105A7C000723037006236BE7B4F80730627A0193AF
:105A8C000092A379013B032B00F24982DFE813F06B
:105A9C009001E800C90041000C20FFF7B3FE07237A
:105AAC000370082354E70C20FFF7ACFE07230370A8
:105ABC000A234DE70C20FFF7A5FE072303700B23E9
:105ACC0046E7A6F1070A5FFA8AFA0AF10109484685
:105ADC00FFF798FE002180464A4602F043FCA11DC8
:105AEC005246404602F0F2FB1020FFF78BFE0446B4
:105AFC00404602F0C9FC09230730237240F22C0304
:105B0C002070C0F228031B6820466360C4F80C8028
:105B1C0025E71820FFF776FEDFF8342500238046B2
:105B2C00436083600374436102600420FFF76AFEE4
:105B3C00DFF820350360C8F80C000423D8F8040003
:105B4C0088F81030D4F80AA008B102F05BFA0520EE
:105B5C00FFF758FE0022C31C03F8012B1A70042314
:105B6C000370C0F801A0C8F80400D8F80800D4F8F5
:105B7C000EA008B102F046FA0520FFF743FE002202
:105B8C00C31C03F8012B1A7004230370C0F801A086
:105B9C004FF01209C8F80800CDF8088006F1FF3A5A
:105BAC00C9EB0A0A5FFA8AFA0AF1010B5846FFF7A9
:105BBC0029FE002180465A4602F0D4FB04EB090171
:105BCC005246404602F082FB1020FFF71BFEC0F845
:105BDC000080019A04468280009B8371029A826045
:105BEC001020FFF70FFE07230370037240F22C0303
:105BFC00C0F228031B68C46043608046206802F032
:105C0C0043FCD4F808A0DAF80420DAF8083012784B
:105C1C001B78D318DBB20B33181888F800004046F9
:105C2C009DE62420FFF7EEFDDFF82C2400238046B0
:105C3C0043608360037443618361C36103620260E8
:105C4C000420FFF7DFFDDFF80C344FF00A09036086
:105C5C000323C8F80C0088F81030CDF808809DE7B5
:105C6C001820FFF7CFFDFD4A0023DFF8F4A34360B3
:105C7C0083600374026043618046DAF80000416877
:105C8C00002900F0D1814A681F2A00F24D81102AA8
:105C9C0018BF0B4602D147E1102A06D0DB68002B57
:105CAC0000F0C2815A681F2AF6D9103A5A60C268AD
:105CBC00103AC2605A68CAB9D0F800C0BCF1010FE2
:105CCC0000F03981D3F808E0BEF1000F00F04F81ED
:105CDC00D968002900F07181CEF80C10DA680CF14B
:105CEC00FF3CC0F800C0C2F808E05A681B681020DE
:105CFC00991898500B1D0531002201205A7018700C
:105D0C000A70D8F80800C8F8043008B102F07AF923
:105D1C00DAF8000041680B46002900F08F814A68D0
:105D2C001F2A08D8102A06D0DB68002B00F08681C9
:105D3C005A681F2AF6D9103A5A60C268103AC260E3
:105D4C005A68CAB9D0F800C0BCF1010F00F0EE805F
:105D5C00D3F808E0BEF1000F00F0FC80D9680029F0
:105D6C0000F04681CEF80C10DA680CF1FF3CC0F85C
:105D7C0000C0C2F808E05A681B68102099189850A7
:105D8C000B1D053100225A7001221A7004200A7072
:105D9C00C8F80830FFF736FDAE4B4FF00C09036026
:105DAC000223C8F80C0088F81030CDF80880F5E60E
:105DBC001820FFF727FDAB4A002380464360836021
:105DCC000374436102600420FFF71CFDA14B0360C8
:105DDC00C8F80C000123D8F8040088F81030D4F867
:105DEC000A9008B102F00EF9DFF874A2DAF800009C
:105DFC0041680B46002900F01C814A681F2A08D80C
:105E0C00102A06D0DB68002B00F013815A681F2A79
:105E1C00F6D9103A5A60C268103AC2605A68CAB9C8
:105E2C00D0F800C0BCF1010F00F08A80D3F808E074
:105E3C00BEF1000F00F0A880D968002900F0E680C0
:105E4C00CEF80C10DA680CF1FF3CC0F800C0C2F8B8
:105E5C0008E05A68196810208B1888501A1D581DB4
:105E6C000021931C517003F8011B03F8011B1970DE
:105E7C0004231370C0F80090D8F80800C8F8042068
:105E8C00D4F80E9008B102F0BDF8DAF800004168C1
:105E9C000B46002900F0D7804A681F2A08D8102A20
:105EAC0006D0DB68002B00F0CE805A681F2AF6D98A
:105EBC00103A5A60C268103AC2605A68B2B9D0F847
:105ECC0000C0BCF1010F40D0D3F808E0BEF1000FC8
:105EDC0067D0D96800297ED0CEF80C10DA680CF1A6
:105EEC00FF3CC0F800C0C2F808E05A6819681020DE
:105EFC008B1888501A1D581D0021931C517003F8E3
:105F0C00011B03F8011B197004231370C0F80090D7
:105F1C00C8F808204FF01209CDF808803EE600239F
:105F2C004FF00A09029339E60B46BEE60260426066
:105F3C0082605A6820E70260426082605A68D5E647
:105F4C000260426082605A6884E70260426082604C
:105F5C005A68CBE7BCF1000F3FF40EAFC9680CF1E7
:105F6C00FF3CC0F800C041608A605A6804E7BCF18D
:105F7C00000F3FF4BBAEC9680CF1FF3CC0F800C089
:105F8C0041608A605A68B1E6BCF1000F3FF462AF21
:105F9C00C9680CF1FF3CC0F800C041608A605A68C7
:105FAC0058E7BCF1000FA1D0C9680CF1FF3CC0F858
:105FBC0000C041608A605A6898E7BCF1000F3FF45A
:105FCC0095AE81680CF1FF3C8968C0F800C0816017
:105FDC00CA605A688AE6BCF1000F87D081680CF160
:105FEC00FF3C8968C0F800C08160CA605A687DE7D0
:105FFC00BCF1000F3FF4C0AE81680CF1FF3C896826
:10600C00C0F800C08160CA605A68B5E6BCF1000FE8
:10601C003FF420AF81680CF1FF3C8968C0F800C0E8
:10602C008160CA605A6815E701F0E8FF012100237E
:10603C0062E601F0E3FF0120002211E701F0DEFF30
:10604C00012100239EE601F0D9FF0120002253E735
:10605C00D0C9200009582000ACC92000A0C92000DC
:10606C0058000020B8C920002DE9F04F91461E467B
:10607C000A787E4B834682B00C461868002A00F0E2
:10608C00AD8012F0030F08BF134604D01346013342
:10609C0013F0030FFBD1456803F1040CBCF10F0F97
:1060AC0098BF4FF0100C2B46002D00F0D48069687F
:1060BC000CF1100E714508D2614506D0DB68002B3F
:1060CC0000F0C98059687145F6D3CCEB01015960D9
:1060DC00C168CCEB0101C1605968A9B90768012FEF
:1060EC0000F09680D3F808E0BEF1000F00F0978026
:1060FC00DD68002D00F0A080CEF80C50D968013F6F
:10610C000760C1F808E059681B685F183D1D07F16E
:10611C00050A07F1060843F801C00A372846002192
:10612C0002F020F93B232B7023788AF80030636847
:10613C00C8F80030237A3B70237A023B072B3AD8FD
:10614C00DFE803F05D60396339043953E36898681C
:10615C0003681B689847E871E3689B882B81E368A8
:10616C009B79AB72E3689A685768002F55D0394613
:10617C0011F8012B05F10B0002F0A8F8E3683F7849
:10618C009A680B37D2F80880B8F1000F09D0414655
:10619C00E81911F8012B02F099F898F80030FF1863
:1061AC00E368D3F80080404602F06EF9414602469F
:1061BC00E81902F02BF9DBF8143022781868023257
:1061CC00036800929C69494632462B46A04715B19C
:1061DC00284601F017FF02B0BDE8F08F06274FF0FC
:1061EC0002084FF0010A154698E7E768384602F0B6
:1061FC004BF939460246E81D02F008F9DBE7637AF1
:10620C00EB71D8E7E3685F68F0E7E3681F68EDE7D8
:10621C00016041608160596876E70B27B2E7002F77
:10622C003FF472AFD5F80CE0013F0760C0F804E012
:10623C00CEF80810596867E7002F3FF465AFD0F827
:10624C0008E0013FDEF808E00760C0F808E0CEF88F
:10625C000C10596858E70192062701F0CFFE4FF059
:10626C0002084FF0010A0025019A57E75800002058
:10627C002DE9F047436A89B005460E461746002BB8
:10628C0000F0F480DFF88C0401F060FE6B6A1B6890
:10629C00186801F05BFEDFF8800401F057FEDFF8B0
:1062AC007C0401F053FE0A23AB616B6A1C68206806
:1062BC0002F0EAF80523C21D8DF81030D2B240F27C
:1062CC002C038DF80820C0F228031B680594039357
:1062DC00DFF84C341868002A51D012F0030F08BFB5
:1062EC00134604D01346013313F0030FFBD103F113
:1062FC00040C4368BCF10F0F98BF4FF0100C002B2F
:10630C0000F0FB8159680CF1100E714508D2614503
:10631C0006D0DB68002B00F0F08159687145F6D38C
:10632C00CCEB01015960C168CCEB0101C16059682B
:10633C00B9B9D0F800E0BEF1010F00F02D819C68D6
:10634C00002C00F09D81D3F80C80B8F1000F00F008
:10635C00A881C4F80C80D9688C600168013901608F
:10636C0059681B6803EB010909F1040409F1050ADA
:10637C0009F1060843F801C009F10A0906E04FF0DB
:10638C0006094FF002084FF0010A1446204600217E
:10639C0001F0E8FF3B2323709DF808308AF80030A9
:1063AC00039BC8F800309DF8103089F800309DF838
:1063BC001030023B072B46D8DFE813F0E700E30070
:1063CC004500D700450008004500EB00059B986888
:1063DC0003681B689847E071059B9B882381059B8C
:1063EC009B79A372059B9A68D2F80480B8F1000FD0
:1063FC0000F04381414611F8012B04F10B0001F030
:10640C0065FF059B98F800809A6808F10B08D2F894
:10641C0008A0BAF1000F0BD0514604EB080011F89C
:10642C00012B01F053FF9AF80030984402ABDB6863
:10643C00D3F800A0504602F027F85146024604EB70
:10644C00080001F0E3FF6B699DF808201868023220
:10645C00036800929D6931463A462346A84714B119
:10646C00204601F0CFFD09B0BDE8F087AD4801F042
:10647C006DFD2B690A24586801F068FDA64801F0EF
:10648C0065FDA64801F062FDA748AC6101F05EFD18
:10649C00A24801F05BFD0723AC618DF818300B238B
:1064AC008DF8203040F22C03C0F228031B680793B0
:1064BC009B4B186843683BB15A681F2A0CD8102AAA
:1064CC000AD0DB68002BF7D101F098FD00240621DF
:1064DC0002204FF0010C26E0103A5A60C268103AC4
:1064EC00C2605A68AAB90468012C00F0C18099688E
:1064FC00002900F0EA80D3F80CC0BCF1000F00F0CA
:10650C00F080C1F80CC0DA6891600268013A026050
:10651C005A68196810208B1888501C1D03F1050C43
:10652C00981D03F10A010022A31C627003F8012BD1
:10653C0003F8012B03F8012B03F8012B1A703B22F3
:10654C0022709DF818208CF80020079A02609DF8A4
:10655C0020200A709DF82030023B072B64D8DFE81E
:10656C0003F07083637F63206374059BD3F8008012
:10657C00404601F089FF41460246E01D01F046FF0E
:10658C0061E7059BD3F80480F2E79DF81130E371C5
:10659C0059E7DDF81480EBE74160816001605968D0
:1065AC00DFE60DF1240858F80C39986803681B686D
:1065BC009847E071D8F80C309B882381D8F80C30C0
:1065CC009B79A372D8F80C309A68D2F804A0BAF16F
:1065DC00000F77D0514611F8012B04F10B0001F09C
:1065EC0075FED8F80C309AF800A09A680AF10B0ADC
:1065FC00D2F80890B9F1000F0BD0494604EB0A0011
:10660C0011F8012B01F062FE99F800309A44D8F889
:10661C000C30D3F80080404601F036FF414602466C
:10662C0004EB0A0001F0F2FE6B699DF81820186863
:10663C000232036800929D6931463A462346A847C8
:10664C000EE79DF82130E371EEE7DDF8248040463B
:10665C0001F01AFF41460246E01D01F0D7FEE3E7C8
:10666C00099BD3F80080F2E7099BD3F80480EEE78E
:10667C004260826002605A684BE74FF00B08C6E636
:10668C00BEF1000F3FF46DAED0F804E0DEF80CE084
:10669C00C0F804E0CEF808100168013901605968AF
:1066AC005FE6BEF1000F3FF45CAED0F808E0DEF818
:1066BC0008E0C0F808E0CEF80C1001680139016060
:1066CC0059684EE64FF00B0A92E7002C3FF421AFCD
:1066DC004168C96841608A600268013A02605A6880
:1066EC0017E7002C3FF415AF816889688160CA6098
:1066FC000268013A02605A680BE701924FF00609F2
:10670C0001F07CFC4FF002084FF0010A0024019AC2
:10671C003CE600BF18CB200030CB2000C8CB2000BB
:10672C005800002034CB200054CB20002DE9F04F32
:10673C009A460B7885B03A2B0746914600F0358186
:10674C00DFF8F8550026286843683BB15A68232ABD
:10675C0008D8142A06D0DB68002BF7D101F04EFCC8
:10676C00002421E0143A5A60C268143AC2605A6894
:10677C00AAB90468012C00F0B7809968002900F0D0
:10678C00A681D3F80CC0BCF1000F00F0AC81C1F8AD
:10679C000CC0DA6891600268013A02605A681B68A2
:1067AC0014219C189950043409224FF0000840F22F
:1067BC002C0384F808802270C0F228031B687189AE
:1067CC006360337A6181012B00F04181032B00F06F
:1067DC009080286812F0030F08BF134604D01346AC
:1067EC00013313F0030FFBD103F1040C4368BCF12C
:1067FC000F0F98BF4FF0100C002B00F08D825968D2
:10680C000CF1100E714508D2614506D0DB68002BE7
:10681C0000F0828259688E45F6D8CCEB01015960A4
:10682C00C168CCEB0101C1605968B9B9D0F800E07E
:10683C00BEF1010F00F09D809D68002D00F05F817E
:10684C00D3F80CB0BBF1000F00F00482C5F80CB00B
:10685C00D9688D600168013901605968186843185E
:10686C0040F801C0991D1D1D03F1050B049103F1A6
:10687C000A010B33039102930021284601F072FDAB
:10688C003A232B7023788BF800306368049A1360DA
:10689C00039B217A19706289029B1A802378A3F1D9
:1068AC000902D2B21AB10239C9B2012966D97A6980
:1068BC000233106849460268009397692B4652468A
:1068CC00B84715B1284601F09DFBB8F1000F02D076
:1068DC00404601F097FB204601F012FC304601F0D7
:1068EC000FFC05B0BDE8F08F4260826002605A6810
:1068FC0055E7DFF84C0401F029FBDFF8480401F000
:10690C0025FB0A23BB61042323723B69B6F80AB04A
:10691C00D96800293CD00B689B681BB935E05B68D3
:10692C00002B32D0D3F80080B8F804205A45F6D1A9
:10693C00D8F8080003681B689847022800F02F81DC
:10694C00032800F04381012800F05581FE4801F036
:10695C00FDFA22782868002A40F0EC810723029384
:10696C00062102239046039104934FF0010B154628
:10697C0082E741608160016059686FE705F10900A9
:10698C00E16801F0A3FC237891E749680029C2D1A2
:10699C00EE4801F0DBFA594607F11800FEF79EFFAE
:1069AC00EB4801F0D3FA2278D4E7E44D2868436829
:1069BC003BB15A68232A0AD8142A08D0DB68002B6A
:1069CC00F7D10191002601F019FB019920E0143A4E
:1069DC005A60C268143AC2605A68A2B90468012CA1
:1069EC0070D09E68002E00F04681D3F80CC0BCF12C
:1069FC00000F00F05081C6F80CC0DA68966002688F
:106A0C00013A02605A681B6814209E18985004368C
:106A1C00092333700023337240F22C03C0F2280395
:106A2C001B684A1C73604B783370D2F80100092B39
:106A3C00706050793072D28872813FF484AE831EBC
:106A4C00DBB2012B3FF67FAE0931F1607BE6C1482A
:106A5C0001F07CFABB4801F079FA0A23BB610223EE
:106A6C0023723B69B6F80A80D968F1B10B689B6850
:106A7C0013B917E05B68ABB1D3F800B0BBF80420D6
:106A8C004245F7D1DBF8080003681B6898470228D9
:106A9C0070D0032844D0012857D0AB4801F056FAE7
:106AAC00227857E749680029E0D1A84801F04EFA4E
:106ABC00414607F11800FEF711FFA54801F046FA10
:106ACC00227847E74260826002605A689BE7002C9C
:106ADC003FF465AE4168C96841608A600268013A5A
:106AEC0002605A685BE6002C3FF459AE81688968F5
:106AFC008160CA600268013A02605A684FE6BEF1D2
:106B0C00000F3FF4ABAED0F804E0DEF80CE0C0F8B8
:106B1C0004E0CEF8081001680139016059689DE65F
:106B2C000420FEF76FFE03468046DBF8080002687F
:106B3C000193126890470328019B00F0CA80029AC7
:106B4C001A600D222270E36043E60420FEF75AFE21
:106B5C0003468046DBF808000268019312689047F0
:106B6C000128019B00F0C38003990D22196022704B
:106B7C00E3602EE60120FEF745FE03468046DBF877
:106B8C00080002680193126890470228019B00F0EC
:106B9C009280049A1A700A222270E36019E6F36854
:106BAC00D8F8080093F800B003681B6898470228CF
:106BBC007FF4CFAED8F808305A6982F800B0DB68A1
:106BCC001B68984788F80CB02278C3E6F368D8F8AD
:106BDC000800D3F800B003681B68984703287FF4BB
:106BEC00B8AED8F808305A699345C0F08E80C8F812
:106BFC000CB02278AEE6F368D8F80800D3F800B0F1
:106C0C0003681B68984701287FF4A3AED8F80830B6
:106C1C005A69C2F800B0DB681B689847D8F808209E
:106C2C00584653689268D3F80130D2F8011001939A
:106C3C0005F026FE0028019B3FF78BAE58461946FF
:106C4C0005F01AFE0028A4BFC8F80CB02278BFF6D5
:106C5C0081AE7EE6BEF1000F3FF400AED0F808E046
:106C6C00DEF808E0C0F808E0CEF80C100168013935
:106C7C0001605968F2E5002C3FF4C5AED0F804C0B1
:106C8C00DCF80CC0C0F804C0CCF808200268013A4B
:106C9C0002605A68B7E6002C3FF4B5AED0F808C0D5
:106CAC00DCF808C0C0F808C0CCF80C200268013A27
:106CBC0002605A68A7E6DBF80820D2681268904791
:106CCC00DBF808205269127804928BF80C20019B97
:106CDC005FE7DBF80820D26812689047DBF80820E1
:106CEC00126A12680292CBF80C20019B27E7DBF8A2
:106CFC000820D26812689047DBF8082052691268A5
:106D0C000392CBF80C20019B2EE71A6AC2F800B054
:106D1C00DB681B6898476AE7019201F06FF907215D
:106D2C00029106230221039304914FF0010B0025DD
:106D3C00019AA1E54FF000084CE500BF5800002077
:106D4C00CCCB2000C8CB200090CB2000ECCB20007B
:106D5C001CCC200070CB20002DE9F047C36A8AB010
:106D6C0005460E461746002B00F0F380DFF844056D
:106D7C0001F0ECF8EB6A186801F0E8F8DFF8380578
:106D8C0001F0E4F8DFF8340501F0E0F80A23AB6118
:106D9C00EB6A1C68204601F077FB0923C21D8DF8B5
:106DAC002030D2B240F22C038DF81820C0F2280308
:106DBC001B6809940793DFF808351868002A51D02E
:106DCC0012F0030F08BF134604D01346013313F01F
:106DDC00030FFBD103F1040C4368BCF10F0F98BFF8
:106DEC004FF0100C002B00F0588259680CF1100E6B
:106DFC00714508D2614506D0DB68002B00F04D824E
:106E0C0059687145F6D3CCEB01015960C168CCEBE4
:106E1C000101C1605968B9B9D0F800E0BEF1010FA9
:106E2C0000F062819C68002C00F0E481D3F80C80A7
:106E3C00B8F1000F00F0EF81C4F80C80D9688C60B9
:106E4C0001680139016059681B6803EB010909F1FC
:106E5C00040409F1050A09F1060843F801C009F117
:106E6C000A0906E04FF006094FF002084FF0010A3C
:106E7C0014462046002101F075FA3B2323709DF83F
:106E8C0018308AF80030079BC8F800309DF8203085
:106E9C0089F800309DF82030023B072B46D8DFE8FC
:106EAC0013F01C01180145000C01450008004500B9
:106EBC002001099B986803681B689847E071099B3F
:106ECC009B882381099B9B79A372099B9A68D2F8B2
:106EDC000480B8F1000F00F08A81414611F8012BB3
:106EEC0004F10B0001F0F2F9099B98F800809A6804
:106EFC0008F10B08D2F808A0BAF1000F0BD05146DC
:106F0C0004EB080011F8012B01F0E0F99AF80030BD
:106F1C00984406ABDB68D3F800A0504601F0B4FAF5
:106F2C005146024604EB080001F070FA6B699DF8BB
:106F3C00182018680368023200929D6931463A465F
:106F4C002346A84714B1204601F05CF80AB0BDE80E
:106F5C00F087DC4800F0FAFFAB6A0A241B6818685B
:106F6C0000F0F4FFD44800F0F1FFD44800F0EEFF3D
:106F7C00AB6AAC615B68AB62002B00F00481D24859
:106F8C0000F0E4FFAB6A1B68186800F0DFFFCA482A
:106F9C0000F0DCFFC94800F0D9FFAB6A07221B6880
:106FAC00AC618DF808208DF8102040F22C02C0F254
:106FBC00280212680593039218689C6801F064FA21
:106FCC006268A36812781B78D218D2B20B321218EE
:106FDC00BB4BD2B28DF808201868002A00F0CB8089
:106FEC0012F0030F08BF134604D01346013313F0FD
:106FFC00030FFBD103F1040C4368BCF10F0F98BFD6
:10700C004FF0100C002B00F03C8159680CF1100E65
:10701C008E4508D9614506D0DB68002B00F0318124
:10702C0059687145F6D3CCEB01015960C168CCEBC2
:10703C000101C1605968B9B9D0F800E0BEF1010F87
:10704C0000F0D0809C68002C00F0F980D3F80C8004
:10705C00B8F1000F00F00481C4F80C80D9688C6082
:10706C0001680139016059681B6803EB010909F1DA
:10707C00040409F1050A09F1060843F801C009F1F5
:10708C000A092046002101F06DF93B2323709DF87D
:10709C0008308AF80030039BC8F800309DF8103097
:1070AC0089F800309DF81030023B072B5DD8DFE8E3
:1070BC0003F0928E5C825C205C96099BD3F8008076
:1070CC00404601F0E1F941460246E01D01F09EF90F
:1070DC002CE7099BD3F80480F2E79DF82130E3718B
:1070EC0024E7DDF82480EBE741608160016059689A
:1070FC00AAE6059B986803681B689847E071059B96
:10710C009B882381059B9B79A372059B9A68D2F877
:10711C000480B8F1000F00F08F80414611F8012B6C
:10712C0004F10B0001F0D2F8059B98F800809A68E6
:10713C0008F10B08D2F808A0BAF1000F0AD051469A
:10714C0004EB080011F8012B01F0C0F89AF800309C
:10715C009844059BD3F800A0504601F095F9514690
:10716C00024604EB080001F051F96B699DF8082008
:10717C0018680368DFE64FF006094FF002084FF07D
:10718C00010A14467DE7514800F0E0FE6B6A1B686B
:10719C00186800F0DBFE484800F0D8FE474800F0C5
:1071AC00D5FE6B6AAC615B6828466B6231463A4629
:1071BC00FFF75EF8CAE6059BD3F80080404601F065
:1071CC0063F941460246E01D01F020F9CDE7059B2D
:1071DC00D3F80480F2E79DF81130E371C5E7DDF8D0
:1071EC001480EBE741608160016059683CE74FF027
:1071FC000B087FE6BEF1000F3FF426AED0F804E09A
:10720C00DEF80CE0C0F804E0CEF808100168013993
:10721C000160596818E6BEF1000F3FF415AED0F8C6
:10722C0008E0DEF808E0C0F808E0CEF80C100168C1
:10723C0001390160596807E64FF00B087AE7BEF197
:10724C00000F3FF411AFD0F804E0DEF80CE0C0F80A
:10725C0004E0CEF80810016801390160596803E7B1
:10726C00BEF1000F3FF400AFD0F808E0DEF808E004
:10727C00C0F808E0CEF80C100168013901605968BB
:10728C00F2E601924FF0060900F0B8FE4FF002084A
:10729C004FF0010A0024019AF3E601924FF006091F
:1072AC0000F0ACFE4FF002084FF0010A0024019AE6
:1072BC00DFE500BF30CC200030CB2000C8CB200055
:1072CC005800002044CC200068CC200080CC20004A
:1072DC002DE9F047836A8DB005460E461746002B04
:1072EC0000F0FD80DFF8640500F030FEAB6A1B682F
:1072FC00186800F02BFEDFF8580500F027FEDFF8C9
:10730C00540500F023FE0A23AB61AB6A07221B680D
:10731C008DF818208DF8202040F22C02C0F22802A3
:10732C0012680993079218689C6801F0ADF86268BE
:10733C00A36812781B78D218D2B20B321218DFF86D
:10734C001835D2B28DF818201868002A51D012F0D6
:10735C00030F08BF134604D01346013313F0030F79
:10736C00FBD103F1040C4368BCF10F0F98BF4FF035
:10737C00100C002B00F05E8259680CF1100E714558
:10738C0008D2614506D0DB68002B00F053825968A7
:10739C007145F6D3CCEB01015960C168CCEB01010E
:1073AC00C1605968B9B9D0F800E0BEF1010F00F026
:1073BC0057819C68002C00F0EA81D3F80C80B8F15E
:1073CC00000F00F0F581C4F80C80D9688C6001685E
:1073DC000139016059681B6803EB010909F10404C8
:1073EC0009F1050A09F1060843F801C009F10A0977
:1073FC0006E04FF006094FF002084FF0010A144660
:10740C002046002100F0AEFF3B2323709DF818307E
:10741C008AF80030079BC8F800309DF8203089F8B6
:10742C0000309DF82030023B072B45D8DFE813F0E5
:10743C0011010D0144000101440008004400150134
:10744C00099B986803681B689847E071099B9B88A7
:10745C002381099B9B79A372099B9A68D2F80480BB
:10746C00B8F1000F00F09081414611F8012B04F1A6
:10747C000B0000F02BFF099B98F800809A6808F12C
:10748C000B08D2F808A0BAF1000F0AD0514604EB51
:10749C00080011F8012B00F019FF9AF800309844FD
:1074AC00099BD3F800A0504600F0EEFF514602466F
:1074BC0004EB080000F0AAFF6B699DF8182018680F
:1074CC000368023200929D6931463A462346A8472A
:1074DC0014B1204600F096FD0DB0BDE8F087DF48F2
:1074EC0000F034FD6B6A0A241B68186800F02EFD4E
:1074FC00D74800F02BFDD74800F028FD6B6AAC6133
:10750C005B686B62002B00F0FB80D54800F01EFD21
:10751C006B6A1B68186800F019FDCD4800F016FD69
:10752C00CC4800F013FD6B6AAC611C68206800F05D
:10753C00ABFF0523C21D8DF81030D2B240F22C03E4
:10754C008DF80820C0F228031B6805940393C24BE6
:10755C001868002A00F0CC8012F0030F08BF134605
:10756C0004D01346013313F0030FFBD103F1040CC9
:10757C004368BCF10F0F98BF4FF0100C002B00F0BC
:10758C004D8159680CF1100E8E4508D9614506D015
:10759C00DB68002B00F0428159687145F6D3CCEBC7
:1075AC0001015960C168CCEB0101C1605968B9B9DE
:1075BC00D0F800E0BEF1010F00F0E1809C68002CD7
:1075CC0000F00A81D3F80C80B8F1000F00F015819F
:1075DC00C4F80C80D9688C60016801390160596865
:1075EC001B6803EB010909F1040409F1050A09F10F
:1075FC00060843F801C009F10A092046002100F0F1
:10760C00B1FE3B2323709DF808308AF80030039BB1
:10761C00C8F800309DF8103089F800309DF8103013
:10762C00023B072B5ED8DFE803F0A39F5D935D2040
:10763C005DA7099BD3F80080404600F025FF41462A
:10764C000246E01D00F0E2FE36E7099BD3F8048009
:10765C00F2E79DF82130E3712EE7DDF82480EBE7AB
:10766C004160816001605968B5E6059B98680368C4
:10767C001B689847E071059B9B882381059B9B7930
:10768C00A372059B9A68D2F80480B8F1000F00F041
:10769C00A080414611F8012B04F10B0000F016FEFE
:1076AC00059B98F800809A6808F10B08D2F808A09E
:1076BC00BAF1000F0BD0514604EB080011F8012B66
:1076CC0000F004FE9AF80030984402ABDB68D3F863
:1076DC0000A0504600F0D8FE5146024604EB0800CC
:1076EC0000F094FE6B699DF8082018680368E8E6C2
:1076FC004FF006094FF002084FF0010A14467CE7E0
:10770C00584800F023FC2B69586800F01FFC5048C7
:10771C0000F01CFC4F4800F019FCAC61524800F022
:10772C0015FC4C4800F012FC0723AC618DF8283096
:10773C000B238DF8303040F22C03C0F228031B6869
:10774C0028460B930AA932463B46FEF78DFCC3E64E
:10775C00059BD3F80080404600F096FE4146024659
:10776C00E01D00F053FEBDE7059BD3F80480F2E763
:10777C009DF81130E371B5E7DDF81480EBE741605B
:10778C008160016059682BE74FF00B0879E6BEF178
:10779C00000F3FF420AED0F804E0DEF80CE0C0F8A7
:1077AC0004E0CEF80810016801390160596812E64E
:1077BC00BEF1000F3FF40FAED0F808E0DEF808E0A1
:1077CC00C0F808E0CEF80C10016801390160596866
:1077DC0001E64FF00B0869E7BEF1000F3FF400AF74
:1077EC00D0F804E0DEF80CE0C0F804E0CEF80810A5
:1077FC000168013901605968F2E6BEF1000F3FF4EF
:10780C00EFAED0F808E0DEF808E0C0F808E0CEF8FB
:10781C000C100168013901605968E1E601924FF0E2
:10782C00060900F0EBFB4FF002084FF0010A0024B0
:10783C00019AE2E601924FF0060900F0DFFB4FF0EF
:10784C0002084FF0010A0024019AD9E568CC200007
:10785C0030CB2000C8CB20005800002080CC20006A
:10786C0018CB200034CB200054CB20002DE9F0475E
:10787C00044690B0084616461F46FEF743F890F8AB
:10788C0008800546B8F1020F2AD0B8F1040F00F0B9
:10789C008E80B8F1060F00F09B80B8F1080F6DD008
:1078AC00B8F10A0F00F0B180B8F10C0F05D02846E2
:1078BC0000F026FC10B0BDE8F0875F4800F046FBF6
:1078CC000A265E4800F042FB5D48A66100F03EFBD4
:1078DC005A4800F03BFB0123A66184F82030E6E710
:1078EC00584800F033FB4FF00A085448A14600F00A
:1078FC002DFB49F8188F544800F028FB697A6A462A
:10790C00484600F0C1FC10AB1818002300F8403CAE
:10791C00684600F01BFB494800F018FB6B7AEA46FE
:10792C00C4F81880002B5FD1484800F00FFB236986
:10793C00586800F00BFB464800F008FB3F4800F08D
:10794C0005FBC4F81880D4F81080D8F8040000F0B7
:10795C009BFD032307308DF8083040F22C038DF883
:10796C000000C0F228031B6820460193694632468A
:10797C003B46CDF80C80FEF777FB98E7354800F0D6
:10798C00E5FA2E4800F0E2FA0A23A361A36A1B6809
:10799C00986803681B689847032847D0A36A5B68FC
:1079AC00A362204631463A46FFF792FC7FE72A480D
:1079BC0000F0CCFA214800F0C9FA0A23A36123692C
:1079CC002046DB68314663623A46FEF751FC6EE7AF
:1079DC00224800F0BBFA194800F0B8FA0A23A36158
:1079EC00636A1B689B68DBE71D4800F0AFFA13481D
:1079FC0000F0ACFAC4F81880104800F0A7FA012384
:107A0C00C4F8188084F8203051E7164800F09EFA2C
:107A1C000A4800F09BFAE36AC4F818805B68E362DA
:107A2C00204631463A46FFF797F940E7A36A1B68B0
:107A3C009B689B69F3E700BFB0CD2000C8CB20004A
:107A4C00D8CD2000A4CC2000C0CC2000D4CC200069
:107A5C0030CB200064CD20001CCD200040CD200078
:107A6C00E8CC20008CCD20002DE9F04F91B08DF8A2
:107A7C00002003F109091D460369D9F802201B688F
:107A8C0082469A4217D04C4800F060FA0A244B48C0
:107A9C0000F05CFACAF81840484800F057FACAF8E7
:107AAC001840DAF814302946186803689B6A98471E
:107ABC0011B0BDE8F08F424801AE0AF1180700F092
:107ACC0045FAD5F8C81032460023384600F096FB2C
:107ADC0011AA13184FF0000803F8408C304600F040
:107AEC0035FA384800F032FA1023CAF8183001245D
:107AFC002B19997932460023384600F07FFB11ABE5
:107B0C00181800F8408C304600F020FA012C37D0C1
:107B1C0039D90A23CAF818302B4800F017FAD5F8CF
:107B2C00C830DBB14FF0000B5C46D8462748AB445D
:107B3C0000F00CFA00239BF809103246384600F08E
:107B4C005DFB11AA101800F8408C304600F0FEF9CD
:107B5C00D5F8C8300134A342A346E7D8174800F043
:107B6C00F5F90A23CAF818306B7A3A2B18D03B2B4C
:107B7C000BD0124800F0EAF90A23CAF8183090E743
:107B8C00134800F0E3F90134B2E79AF82030002BE7
:107B9C00EFD1EA1D504649466B46FFF767FEE8E712
:107BAC009AF82030002BE4D0EA1D504649466B462B
:107BBC00FEF7BCFDDDE700BF10CE2000C8CB2000D7
:107BCC0028CE200034CE200050CE2000A0CC2000A7
:107BDC004CCE200070B500F081FCBA494B68002BEC
:107BEC0000F059815A6846F20300824209D8B2F576
:107BFC00C04F06D0DB68002B00F04D815A688242E2
:107C0C00F5D9A2F5C0425A60CA68AE48A2F5C04286
:107C1C00CA605A6892B90468012C00F0EF80996828
:107C2C00002900F01E81DD68002D00F02881CD6058
:107C3C00DA6891600268013A02605A681968DFF8E4
:107C4C0088C200238C18CCF80030CCF80430CCF867
:107C5C000830CCF80C304CD04FF4C0408C506060E5
:107C6C00A360E360DCF80C301B18CCF80C30DCF8AB
:107C7C00043051F802E06068002B00F0A7801D680A
:107C8C007044A8420CBF1A461A4604D0D26812B1EE
:107C9C0011688842FAD159686D18AE4508D0DB6876
:107CAC00002B00F092801868596841188E45F6D167
:107CBC0019461346C3B160685A6882186260DCF8D2
:107CCC000000012800F092809A68002A00F09B8046
:107CDC00DD68002D00F0A680D560DB689A60DCF8CA
:107CEC000030013BCCF8003019B14A686368D318F6
:107CFC004B60764BC3F800C000F030FD00F04AFE3C
:107D0C00734B002293E8300043F24803C4F20303A0
:107D1C001968704B55181868234643F1000644F651
:107D2C006D63C4F2C61305FB03F505F540550368F6
:107D3C003935694CB5F1FF3F28BF0135DB6A256049
:107D4C0098470378002B40F098804178003918BF91
:107D5C00012149F20043C4F20D031A6822F02002FB
:107D6C001A6044F29402C4F20D020123136047F22C
:107D7C000802C4F20D02B523136047F20002C4F2EC
:107D8C000D02136813F0800FFBD047F21002C4F2FF
:107D9C000D02136847F20C02C4F20D02126881EA5C
:107DAC00050502EB032244F66D63C4F2C61303FB14
:107DBC0005F505F540553935B5F1FF3F28BF0135BF
:107DCC0042F30B135D40256070BD1346DCF80010C8
:107DDC00002936D1A160E160DCF80020CCF8044029
:107DEC000132CCF80840CCF8002063E70023CCF833
:107DFC000430CCF80830CCF8003075E74260826073
:107E0C0002605A681AE700283FF46EAFDCF80430C1
:107E1C00DB68CCF804309A60DCF80030013BCCF81D
:107E2C00003061E700283FF45FAFDCF808309B6856
:107E3C00CCF80830DD60DCF80030013BCCF80030C9
:107E4C0052E7DCF808200021D460DCF80820E1605F
:107E5C00A260DCF80020CCF808400132CCF80020FD
:107E6C0028E7002C3FF4EAAE4168C96841608A609B
:107E7C000268013A02605A68E0E6012169E7002CC9
:107E8C003FF4DCAE816889688160CA600268013A9F
:107E9C0002605A68D2E6114C01232371104800F09D
:107EAC0055F8104800F052F8DFF81CC00A23236084
:107EBC000023CCF80030CCF80430CCF80830CCF8E7
:107ECC000C3016E7980C00204800002058000020C9
:107EDC00A80C0020E80100206400002038000020DD
:107EEC0054CE2000C8CB200000B500F0D7FB40F2E8
:107EFC00B0130022C2F200031A6040F2AC13C2F2BB
:107F0C0000031A6040F24003C2F200030A211A7106
:107F1C00196040F23803C2F2000319601A7100BDF7
:107F2C0040F25C03C2F2000300221A605A607047F0
:107F3C0000B5004602F096F800BD00BF00B502F097
:107F4C0091F800BD00B503F069FF00BD2DE9F045C7
:107F5C00002507467C5D1C4EAA46DFF8708084B174
:107F6C00092C29D00A2C18D03368204601333360F1
:107F7C0003F0B4FF33684F2B05DC01357C5D002C1E
:107F8C00EED1BDE8F0850D2003F0A8FF0A2003F028
:107F9C00A5FF0135C6F800A0F0E70D2003F09EFF09
:107FAC00204603F09BFFD8F80030C6F800A0013340
:107FBC00C8F800300135E1E7204603F08FFF336845
:107FCC00013508333360D9E7AC010020B001002043
:107FDC0010B54CF66C6040F238040123C2F2000478
:107FEC00C0F220002371FFF7B1FF4CF6C830C0F28D
:107FFC002000FFF7ABFF0A23236010BD00B5FFF78D
:10800C00A1FF00BD3D4B70B41D6850F8043C041F2B
:10801C000F2B41D9002240F8044C6360A260E2604F
:10802C00EA68D318EB606B6850F804CC6068002BDE
:10803C0035D01E686044B0420CBF1A461A4604D0B4
:10804C00D26812B111688842FAD159687618B445D1
:10805C0007D0DB68002B21D01868596841188C4573
:10806C00F7D11946134693B160685A68821862605A
:10807C00286801281DD09A68002A1FD0DE68002EBF
:10808C0031D0D660DB689A602B68013B2B6019B14C
:10809C004A686368D3184B6070BC704713462968F4
:1080AC00B1B9A160E1602A686C600132AC602A60F1
:1080BC00D9E700236B60AB602B60E8E70028E6D0C3
:1080CC006B68DB686B609A602B68013B2B60DEE7AA
:1080DC00AA680021D460AA68E160A2602A68AC603A
:1080EC0001322A60BFE70028D1D0AB689B68AB6037
:1080FC00DE602B68013B2B60C9E700BF58000020F5
:10810C003D4B70B41D6850F8043C041F0F2B41D933
:10811C00002240F8044C6360A260E260EA68D31865
:10812C00EB606B6850F804CC6068002B35D01E688F
:10813C006044B0420CBF1A461A4604D0D26812B141
:10814C0011688842FAD159687618B44507D0DB68B3
:10815C00002B21D01868596841188C45F7D1194665
:10816C00134693B160685A688218626028680128C7
:10817C001DD09A68002A1FD0DE68002E31D0D66040
:10818C00DB689A602B68013B2B6019B14A68636805
:10819C00D3184B6070BC704713462968B1B9A16005
:1081AC00E1602A686C600132AC602A60D9E7002378
:1081BC006B60AB602B60E8E70028E6D06B68DB688F
:1081CC006B609A602B68013B2B60DEE7AA6800218C
:1081DC00D460AA68E160A2602A68AC6001322A60AF
:1081EC00BFE70028D1D0AB689B68AB60DE602B6822
:1081FC00013B2B60C9E700BF5800002070B4002978
:10820C003BD0B1F5807F1BD9D0F800C0BCF1080F72
:10821C0014BF00240124BCF1100F08BF44F001046A
:10822C0084B14FF0300C02F803C0D0F800C0013319
:10823C00BCF1100F06D14FF0780C02F803C00133DB
:10824C00D0F800C00C465D1CB4FBFCF41E462B465B
:10825C00002CF8D10B4C9219B1FBFCF30CFB131C4A
:10826C0014F80C3002F80139D0F800C0B1FBFCF165
:10827C000029F1D1284670BC70473021D154581CCC
:10828C00F9E700BF88CE2000002900B503DB0023EE
:10829C00FFF7B4FF00BD2D23137049420123F7E70C
:1082AC00302310B41370084C78235370072301F05B
:1082BC000F0C14F80CC0D0180909013B80F802C04F
:1082CC00F5D20A2010BC704788CE20000F2A30B49B
:1082DC0005460C4642D941EA000313F0030F02BFD6
:1082EC0014468C46034609D0002314F803C005F845
:1082FC0003C001339A42F8D130BC7047DCF800500F
:10830C00103C1D60DCF804505D60DCF808509D608A
:10831C00DCF80C500CF1100CDD6010330F2CEDD888
:10832C00A2F1100404F00F0224F00F04103405190C
:10833C000C19032A12D9002354F803C045F803C0C2
:10834C000433C3EB020CBCF1030FF5D8043A22F052
:10835C0003030433ED18E41802F00302002AC3D11E
:10836C00CAE700BF10F0030F30B403460DD0002A4B
:10837C004AD0013A5FFA81FC02E0002A44D0013A6B
:10838C0003F801CB13F0030FF7D1032A32D901F014
:10839C00FF040F2A44EA04241D4644EA044484BF23
:1083AC009C46154616D9103D0F2DCCF80040CCF844
:1083BC000440CCF80840CCF80C400CF1100CF2D86E
:1083CC00A2F1100C2CF00F0510350CF00F025D19FA
:1083DC00032A0ED90023EC500433C3EB020CBCF17E
:1083EC00030FF8D8043A22F003030433ED1802F01B
:1083FC0003022B4642B1C9B24FF0000C03F80C102B
:10840C000CF1010C6245F9D130BC704741EA000314
:10841C0013F0030F14BF00230123032A94BF00237E
:10842C0003F0010310B4002B2CD00346D1F800C08C
:10843C00ACF1013424EA0C0414F0803F1BD0C2B11F
:10844C000C789C46013A0CF8014B54B1023382B1C2
:10845C0011F8014F9C4603F8014C013A0133002CF2
:10846C00F5D132B1002319460CF8031001339A42AE
:10847C00FAD110BC7047043A0431032A43F804CBF8
:10848C00DDD9D3E70346DAE710F0030F08BF034644
:10849C0009D0037803B3034601E01A78D2B1013353
:1084AC0013F0030FF9D11A68A2F1013121EA02028B
:1084BC0012F0803F08D153F8042FA2F1013121EAC8
:1084CC00020212F0803FF6D01A781AB113F8012F7D
:1084DC00002AFBD1181A70471846FCE700B500F0CB
:1084EC0003F800F095F800BDDFF81CC147F2F83234
:1084FC00C2F20002CCEB020270B4002A4AD0002374
:10850C00424DCCF800C0CCF80420CCF80830CCF8A4
:10851C000C30EB686446D318EB606B68002B3CD0D6
:10852C001E680CEB8200B0420CBF1A461A4604D0EF
:10853C00D26812B111688842FAD1596806EB8106EB
:10854C00B44208D0DB68002B26D05868196801EBC0
:10855C0080018C42F6D119461346ABB1DCF804000D
:10856C005A688218CCF804202C68284A012C23D095
:10857C009868002825D0DD68002D3AD0C560DB68EE
:10858C0098601368013B136021B14A68DCF8043031
:10859C00D3184B6070BC704713462A681B48D2B97D
:1085AC000121CCF80820CCF80C200160C0F804C0E4
:1085BC00C0F808C01146D0E70023536093601360E5
:1085CC00E2E7002CE0D05368DB68536098601368D6
:1085DC00013B1360D8E781680132C1F80CC0816897
:1085EC00CCF808100021CCF80C10C0F808C00260C0
:1085FC00B3E7002CC8D093689B689360DD60136868
:10860C00013B1360C0E700BFB00C0020980C0020A9
:10861C0043F20C03C4F203031A68122022F0010285
:10862C001A6042F20802C4F20D02116841F008010E
:10863C00116042F20C02C4F20D02116841F0080103
:10864C00116042F21002C4F20D02116841F00801EF
:10865C00116043F200020021C4F20302116043F2E4
:10866C000402C4F20302106043F22802C4F20302B3
:10867C004FF0FF30106043F23802C4F20302116075
:10868C0043F21802C4F20302116841F001011160B7
:10869C001A6842F001021A60704700BF4CF2204386
:1086AC00C4F20D031A6822F0C0021A604CF20043A7
:1086BC00C4F20D031A6822F0C0021A6044F2F803E7
:1086CC000122C4F20D031A6044F2FC03C4F20D0340
:1086DC001A6042F20002C4F20D0211684FF6F873F0
:1086EC00CFF6DC6301EA030343F4081342F20401FE
:1086FC001360C4F20D010A6840F20003C0F20113CA
:10870C0002EA0303002BF6D142F20003C4F20D037C
:10871C001A6822F4E0621A6042F20402C4F20D02FA
:10872C00136813F0806FFBD0704700BF4EF61453E4
:10873C00CEF200031A6842F001021A6042F298036A
:10874C00C4F20D031A6842F001021A604EF6085387
:10875C00CEF200034FF401121A60704700B5FFF718
:10876C00E5FF00F0AFFD00F019F800F09BF800F009
:10877C0009F800F001F800BD00B5002000F084FC01
:10878C0000BD00BF044B082203F5807183F800285C
:10879C0001338B42FAD17047740300204EF2100360
:1087AC004EF21802CEF200030021CEF20002196044
:1087BC0011604EF21402CEF200024FF4FA41116035
:1087CC0006221A604BF6B56140F27422C2F2000226
:1087DC00C0F22001D1631A6842F001021A6070479E
:1087EC0040F26D030022C2F200031A7040F26C03D7
:1087FC00C2F200031A7040F26803C2F200030221B5
:10880C00196040F68843C2F200031A6040F69443A4
:10881C00C2F2000349F2380C1A60C4F2080C0323AC
:10882C0049F2400049F24C01CCF8003030B4C4F2AB
:10883C0008000424C4F2080149F244030460C4F2A1
:10884C0008030A601D6845F040051D601D6845F071
:10885C0008051D601D6845F008051D602023CCF837
:10886C00004002600B6049F25003C4F208031A681E
:10887C0042F080021A601A6842F010021A6049F243
:10888C001C03C4F2080301221A6049F22403C4F247
:10889C0008031A6049F22C03C4F208031C6030BCB4
:1088AC00704700BF4BF22043C4F20D031A682DE948
:1088BC00F04822F004021A604BF20043C4F20D039C
:1088CC001A6842F004021A604BF21003C4F20D0352
:1088DC00FF221A6049F23C02C4F20802136843F00A
:1088EC0001031360136843F002031360136813F061
:1088FC00800FFBD049F20403C4F208031A6822F07B
:10890C0001021A60FFF76CFF1D4B01221A601D4A11
:10891C001D4BC3F8F0204EF20413CEF200034FF4BB
:10892C0080521A60EFF31087FFB207B162B6174896
:10893C0043F24806C4F2030690E80018316800229E
:10894C005B4612EB010B49F20002C0F2D03243F14C
:10895C00000C00231BEB020B4CEB030C90E80C00FF
:10896C00316800241546621845F100039C45F5D882
:10897C0001D19345F2D807B162B6BDE8F08800BFCB
:10898C006800002075C0200074020020A80C002094
:10899C00704700BF00B500F0EDFC00F001F800BD21
:1089AC0010B5324B186841680B46002959D04A68FB
:1089BC00272A07D8182A05D0DB68002B51D05A6813
:1089CC00272AF7D9183A5A60C268183AC2605A680E
:1089DC0092B9D0F800C0BCF1010F21D09C68002CDA
:1089EC0026D0D96800292FD0E160DA680CF1FF3C61
:1089FC00C0F800C094605A68196818208B18885009
:108A0C000433012119721A4900221A6019610A22D1
:108A1C0018495A60086840B1DA60174A136010BDF3
:108A2C000260426082605A68E6E70B605A68F3E7BE
:108A3C00BCF1000FE0D0C9680CF1FF3CC0F800C0DD
:108A4C0041608A605A68D7E7BCF1000FD4D08168C6
:108A5C000CF1FF3C8968C0F800C08160CA605A689C
:108A6C00CAE7FFF7CBFA0023CBE700BF5800002082
:108A7C00999D2000740C0020880100202DE9F047FE
:108A8C0072B6454A1368116813F0080F21EA030106
:108A9C00116003D0414A11680131116013F0020FCB
:108AAC0070D0DFF8FC80D8F80030002B6AD048F684
:108ABC0010024FF0000CC4F20802384F48F61404B0
:108ACC00C2F800C0C4F208043E68D4F800A048F60E
:108ADC001804C4F20804D4F8009032024FEA0929B1
:108AEC001CEB090442F1000514EB0A0148F62404BE
:108AFC00C4F20804D4F800A045F100024FEA0A447D
:108B0C00091948F62004C4F208044FEA1A45D4F8AF
:108B1C0000A042EB05024FEA0A64091948F61C044E
:108B2C004FEA1A25C4F2080442EB0502D4F800A05F
:108B3C0011EB0C01D7F800C042EB0A02664505D0D8
:108B4C0000244FF48075091942EB0502DFF854C07C
:108B5C009CE83000954215D812D00022C8F80020AD
:108B6C0048F60802C4F208020821116062B6984760
:108B7C004EF20013CEF200034FF080621A6009E04F
:108B8C008C42EAD94EF20013CEF200034FF0806211
:108B9C001A6062B6BDE8F087E4010020D001002025
:108BAC00BC010020B401002040F2C81300210022B7
:108BBC00C2F2000383E8060040F2DC13C2F20003A9
:108BCC0083E8060040F2C013C2F2000383E80600FB
:108BDC0048F60403C4F208031A6848F60C0122F0A4
:108BEC0001021A6048F60802C4F208020020C4F21E
:108BFC00080110600860196848F6892021F002010C
:108C0C0019601968C0F2200041F00801196040F2A7
:108C1C007421C2F20001C1F8C4004EF20411CEF26C
:108C2C00000102200860116841F0080111601A6807
:108C3C0042F001021A6070472DE9F001D4B20C72B7
:108C4C0046680023CB6049600F1D002E22D0D0F85F
:108C5C00088098F80430A34222D8D8F808308BB199
:108C6C00454693F804C0A44507D9CDB10136AF6091
:108C7C004660CB60BDE8F00170479A6812B11D46A2
:108C8C001346EEE7C36801369F600023CB60466055
:108C9C00C760EFE70123CE6043608760C760E9E7F8
:108CAC000136C1F80C8046608760E3E710B4446875
:108CBC00012C17D0836801F1040C9C4517D04BB1E3
:108CCC009A682AB1944503D013469268002AF9D1C8
:108CDC00CA689A60C268944508BFC360013C44608E
:108CEC0010BC704700238360C3604360F8E7002C1E
:108CFC00F6D0CB68013C83604460F1E7F0B5846842
:108D0C0006461746CDB29CB1002001E0A46874B1B0
:108D1C002379AB42FAD12068314603682A46D3F84E
:108D2C0000C03B46E047A4680120002CF0D1F0BD08
:108D3C002046FCE78368C9B27BB1002001E09B6848
:108D4C0043B193F804C08C45F9D122B918689B68DB
:108D5C00002BF6D17047013AF1E71846FAE700BF4D
:108D6C00C64BE222036048F63803C4F208031A60CB
:108D7C00EF221A6048F28C622DE9F041C4F208022D
:108D8C000026166048F29062C4F20802166048F29F
:108D9C009462C4F20802166048F2586204464660B7
:108DAC008660C660C4F20802F820106048F2E872CF
:108DBC00C4F208020920106048F2C862C4F208022A
:108DCC001520106048F60402C4F208020B20106053
:108DDC0048F2B862C4F2080201201060EE221A6058
:108DEC00ED221A6048F25463C4F208031A68A44FC7
:108DFC0022F001021A6048F28C53C4F208031E6080
:108E0C0048F25063FF22C4F208031A6048F2406330
:108E1C00C4F208031A6048F29473C4F208031A608F
:108E2C0048F63403C4F208031E6048F63003C4F25B
:108E3C0008031E6048F62C03C4F208031E60914B15
:108E4C0021612360E66126626662A662E6623546AF
:108E5C0026634FF0E0086663A663E663C4F890608F
:108E6C00C4F89460386843683BB15A68EF2A08D854
:108E7C00E02A06D0DB68002BF7D1FFF7BFF8002300
:108E8C0023E0E03A5A60C268E03AC2605A68BAB964
:108E9C00D0F800C0BCF1010F00F0D1809968002916
:108EAC0000F0D280D3F80CE0BEF1000F00F0D980B6
:108EBC00C1F80CE0DA6891600268013A02605A6805
:108ECC0019688B1841F80280043349F641021A8064
:108EDC00A2190436502E83F8BC50C3F8C050C3F806
:108EEC00C850C3F8CC30C3F8D050C3F8D430C3F852
:108EFC00D8501364B6D140F22C03C0F228031A7870
:108F0C0040F22D03C0F22803197840F22E03514091
:108F1C002175C0F228031A7840F22F03C0F22803FF
:108F2C001B7848F2246683EA020248F2D053C4F25A
:108F3C0008036275196048F2D453C4F208031A602E
:108F4C0048F20463C4F208031A68C4F2080622F05B
:108F5C0020021A603368204643F04003336048F225
:108F6C000063C4F208031A6842F001021A6048F266
:108F7C000863C4F208031A6842F001021A603368ED
:108F8C00402243F02003336048F23063C4F20803FC
:108F9C001A601A23A36148F23C63C4F208035622F8
:108FAC001A6001F0CFF948F63403C4F208031D60CF
:108FBC0048F63003C4F208031D6048F62C03C4F2D3
:108FCC0008031D6048F28C63C4F2080304221A6083
:108FDC0048F29062C4F20802156048F29462C4F23E
:108FEC0008020C21116042F2A802C4F20D021168B1
:108FFC0041F00101116042F2AC02C4F20D021168A1
:10900C0041F00101116042F2B002C4F20D0211688C
:10901C0041F001011160326822F00C0232601A68D2
:10902C0022F004021A601A6842F004021A6048F630
:10903C003803C4F20803E3221A60BDE8F0814260F1
:10904C00826002605A683BE7BCF1000F3FF438AF16
:10905C004168C96841608A600268013A02605A68D6
:10906C002EE7BCF1000F3FF42BAF8168896881605B
:10907C00CA600268013A02605A6821E7FCCE2000FF
:10908C0058000020C8CF200042F2A803C4F20D0300
:10909C001A6870B542F001021A6042F2AC03C4F2D5
:1090AC000D031A68044642F001021A6042F2B00342
:1090BC00C4F20D031A6842F001021A60FFF774FD46
:1090CC00344B186841680B4600295FD04A68AB2ABC
:1090DC0007D89C2A05D0DB68002B57D05A68AB2ADE
:1090EC00F7D99C3A5A60C2689C3AC2605A6872B905
:1090FC000568012D32D09E68002E34D0D968002925
:10910C003AD0F160DA68013D056096605A681B68D8
:10911C009C219D189950043521462846FFF720FEC6
:10912C001D4B04EB440403EB840243F824502A2126
:10913C00013443F824102B239360184B184A43F83E
:10914C002120C3F8AC204EF20013CEF200034FF0F6
:10915C0080621A604FF000621A6070BD026042605B
:10916C0082605A68D3E7002DD1D0C968013D0560F3
:10917C0041608A605A68CAE7002DC8D08168013DF9
:10918C00896805608160CA605A68C0E7FEF736FFDF
:10919C000025C1E758000020E801002074020020DF
:1091AC0089A6200040F6A843C2F200034DF804BD86
:1091BC0093E806004FF0010B11EB0B014FF0000C84
:1091CC0042EB0C0283E806005DF804BB704700BF5D
:1091DC0049F21803C4F208031A6840F67C43C2F241
:1091EC000003196841EA02021A6049F20803C4F24A
:1091FC0008031A6840F68043C2F20003196841EA7A
:10920C0002021A6049F21003C4F208031A6840F60D
:10921C008443C2F20003196841EA02021A607047E3
:10922C0048F60C0340F2E412C4F20803C2F2000246
:10923C001968106840EA0101116000221A604EF2B0
:10924C008013CEF200034FF080621A604EF280233E
:10925C00CEF200031A6070474EF28413CEF2000374
:10926C0002221A604EF28423CEF200031A60704779
:10927C000368232B0DD0252B13D0272B19D0332B80
:10928C0001BF43F22403C4F203034FF0FF321A6010
:10929C00704740F22403C4F203034FF0FF321A600C
:1092AC00F6E741F22403C4F203034FF0FF321A60D5
:1092BC00EEE742F22403C4F203034FF0FF321A60CC
:1092CC00E6E700BF72B64EF280134FF0FF32CEF2DB
:1092DC0000031A604EF28413CEF200031A601B498D
:1092EC001B4A0023CA500433B3F5807FFAD1002304
:1092FC00DFF860C018464CF803000433B3F5807FE8
:10930C00144AF8D1144BC2F88C30C2F89430C2F81D
:10931C009C30C2F8CC30114BC2F8A830104BC2F8BC
:10932C00C430104BC2F8F0300F4B13645364936489
:10933C00D3640E4B0822CB600D4BC1F8CC304EF2EF
:10934C000413CEF200031A60704700BF74020020B1
:10935C00E5BD2000700000207D9220006592200069
:10936C002D922000DD912000C9BC2000E9BD200019
:10937C00B191200010B5314B186841680B4600299B
:10938C0057D04A68272A07D8182A05D0DB68002B43
:10939C004FD05A68272AF7D9183A5A60C268183A37
:1093AC00C2605A6892B9D0F800C0BCF1010F1FD04E
:1093BC009C68002C24D0D96800292DD0E160DA6893
:1093CC000CF1FF3CC0F800C094605A681968182072
:1093DC008B18885004331A490122196119491A60F3
:1093EC005A601A72486840B1DA60174A136010BDAF
:1093FC000260426082605A68E8E74B605A68F3E7A3
:10940C00BCF1000FE2D0C9680CF1FF3CC0F800C001
:10941C0041608A605A68D9E7BCF1000FD6D08168E8
:10942C000CF1FF3C8968C0F800C08160CA605A68C2
:10943C00CCE7FEF7E3FD0023CDE700BF580000208A
:10944C00B1942000740C002074010020014B0360C7
:10945C00704700BF28CF2000014B0360704700BF4E
:10946C0028CF200040F27813C2F2000300221A60C9
:10947C005A609A60704700BF00B5406800F084F9EC
:10948C0000BD00BF024B00B50360FEF739FE00BD06
:10949C0028CF2000024B00B50360FEF731FE00BD63
:1094AC0028CF2000F0B572B63F4B1A6801321A6013
:1094BC003E4A13682BB1516848680138002848604F
:1094CC0007DD002362B61BB1586803689B68984798
:1094DC00F0BD012B3CD0CB68002053609860136822
:1094EC00013B1360CB6823B1D3F804C048686044D7
:1094FC0058600B689868B0F1FF3F03D00138986052
:10950C000028DFD0D3F80CC02848C1F804C0166876
:10951C00002E35D047687C68A445B8BF3D4609DBB2
:10952C00F868F8B1C4EB0C0CC1F804C044680546EB
:10953C00A44514DAA868002829D0CCEB040C013619
:10954C00C5F804C0C160A960CD6088601660B9E739
:10955C000023536093601368013B1360C2E7C0683B
:10956C000028DFD19068C4EB0C0CC1608860C1F896
:10957C0004C00020C8609160116801311160A1E73E
:10958C0001228E60CE600260416081609AE7CCEB74
:10959C00040CC5F804C08860CF60B96051601168D4
:1095AC00013111608EE700BF7001002078010020AE
:1095BC0030B472B6DFF880C0DCF80410E9B10B6887
:1095CC00984218BF0B462BD0DB68B3B11A68904297
:1095DC00FAD1DCF80000184C012811D09D68002D40
:1095EC0020D0DA6892B1EA60DA68013895602060C0
:1095FC001AB151685B68CB18536062B630BC7047C7
:10960C0000226260A2602260DA68F1E70028F4D0E0
:10961C00A168013889682060A160CA60DA68E7E750
:10962C000B46D6E708B9DA68E2E7CA680138626027
:10963C0020609560DA68DBE77801002083603B4BA3
:10964C00D1F800C01B68C0F800C05B684FF47A7C8E
:10965C00BCFBF3F344F2402CC0F20F0CBCFBF3FC4C
:10966C000B68002103EB5C03B3FBFCF3F0B5426029
:10967C00C360006143618161C16172B62BB962B68E
:10968C00136810469B689847F0BD294C00F1100CEC
:10969C002668002E32D0676879688B42B8BF3D4689
:1096AC001ADBFA684AB15B1ACCF8043051681546DB
:1096BC008B421FDA436999420EDC5B1A4361A36843
:1096CC00C3F80CC083610023C3612368C4F808C0CD
:1096DC000133236062B6D7E7AA68CAB1CB1A013648
:1096EC006B60C2F80CC0C5F808C0C5618261266009
:1096FC0062B6C9E7D268002AD5D1DBE701238661BF
:10970C00C6612360C4F804C0C4F808C062B6BBE7E5
:10971C00CB1A6B60236882610133C761C7F808C03C
:10972C002360C4F804C062B6AEE700BF7401002029
:10973C007801002070B58EB008AC0646002120469A
:10974C0000F01CF80B4B31460CAA0C936846012315
:10975C000D94FFF773FF204600F02AF86846FFF7D8
:10976C0027FF054B20466D460C9300F035F80EB0E4
:10977C0070BD00BF14CF200028CF20000023036051
:10978C0043608360C160704700B572B600F10C0194
:10979C0051E8002F02F1010241E80023002BF7D120
:1097AC00002A01DD62B600BD00F0E4FBFBE700BF60
:1097BC0000B572B600F10C0151E8002FA2F10102C4
:1097CC0041E80023002BF7D1002A01DB62B600BD73
:1097DC0000F036F8FBE700BF00B572B600F0DCFA1B
:1097EC0000BD00BF40F28C120023C2F20002D36015
:1097FC0013605360936040F2A012C2F20002136037
:10980C005360704712F0FF0F18BF0C4B00B51FBF11
:10981C001B68DA685A68DA60884209D003694BB170
:10982C0000230B6150F80C3FCB68C96802F09CFD1B
:10983C0062B600BD01230361F2E700BF880100207E
:10984C005C492DE9F045CB68CB681A68CB68CB68CE
:10985C0002F11C069E4263D00B68012B00F0838042
:10986C00546A002C72D0956A002D00F08180E5605E
:10987C00D2F828C0013BCCF808400B60D0F800802F
:10988C0003231361B8F1000F25D0D0F804A002F126
:10989C002007DAF80430D2F820C00AF104059C4500
:1098AC002EDA5346D5F800E0D2F820C0E6451BDC92
:1098BC00836808F10108DE60536200239362C0F8EC
:1098CC0000808660CB685061196810460122FFF752
:1098DC0099FFBDE8F0850123C2F82480C2F82880E6
:1098EC00036046608660EDE79C68002C56D008F15A
:1098FC000108E6609E6093625462C0F80080E1E764
:10990C00DAF80C3023B9CCE7DC68002CCAD023463B
:10991C00D3F804E0D7F800C01D1DE645F4DDC1E71F
:10992C000B687BB1012B30D0D1F804C00024DCF8DB
:10993C000CE0013BC1F804E00B60CEF80840C1F824
:10994C000CC09BE79C46C1F80CC097E7002B95D048
:10995C00D1F804C0013BDCF80CC00B60C1F804C0AA
:10996C00CCF808408AE700234B608B600B6085E7DE
:10997C00002B83D0D1F808C0013BDCF808C00B6089
:10998C00C1F808C0CCF80C5078E7D1F804C000231B
:10999C004B608B600B60C1F80CC06FE708F10108DD
:1099AC005462C2F828A0CAF80860C0F8008046606B
:1099BC0088E700BF8C0100202DE9F045044672B603
:1099CC00614B6248196804F11C0701311960C368C6
:1099DC00C368002B64D0D0F80080B8F1000F1FD002
:1099EC00D0F804A004F12006DAF80410236A0AF176
:1099FC000405994256DD5346D5F800C0216A8C45C2
:109A0C0069DC8368DF6063620023A362036887609C
:109A1C00013303604E4B18687AB9A260BDE8F0853B
:109A2C000123C4F82480C4F8288003604760876051
:109A3C00474B18680AB9F0E7013212F0030FFBD15B
:109A4C00456804320F2A98BF10222B46002D76D081
:109A5C00696802F1100C8C4507D9914205D0DB687E
:109A6C00002B6CD059686145F7D3891A5960C168CD
:109A7C00891AC160596871B90668012E36D09F6881
:109A8C00002F42D0DD68002D4BD0FD60D968013E1F
:109A9C0006608F6059681B6858185A50021DBCE745
:109AAC00C760C5E7DAF80C30002BA4D0D3F804C09B
:109ABC0031681D1D8C459FDCD96800299CD00B4654
:109ACC00D3F804C031681D1D8C45F5DDD5F800C0F8
