:020000040020DA
:10400000F87F00201D412000F1BD2000F1BD2000FF
:10401000F1BD2000F1BD2000F1BD2000F1BD200068
:10402000F1BD2000F1BD2000F1BD200027BE200021
:10403000F1BD2000F1BD2000F1BD2000F1BD200048
:10404000F1BD2000F1BD2000F1BD2000F1BD200038
:10405000F1BD2000F1BD2000F1BD2000F1BD200028
:10406000F1BD2000F1BD2000F1BD2000F1BD200018
:10407000F1BD2000F1BD2000F1BD2000F1BD200008
:10408000F1BD2000F1BD2000F1BD2000F1BD2000F8
:10409000F1BD2000F1BD2000F1BD2000F1BD2000E8
:1040A000F1BD2000F1BD2000F1BD2000F1BD2000D8
:1040B000F1BD2000F1BD2000F1BD2000F1BD2000C8
:1040C000F1BD2000F1BD2000F1BD2000F1BD2000B8
:1040D000F1BD2000F1BD2000F1BD2000F1BD2000A8
:1040E000F1BD2000F1BD2000F1BD2000F1BD200098
:1040F000F1BD2000F1BD200010B5074C54F8043C80
:10410000B3F1FF3F06D0043C984754F8043DB3F1A7
:0C411000FF3FF9D110BD00BF3CD12000E2
:10411C0040400949094A086004319142FBDBFFF732
:10412C00E5FF00BF00F0C2F900F074FC01B408F028
:10413C0069FC03F053FF000004000020B00C0020C9
:10414C00F0B5CB6881B004460D461746002B2DD038
:10415C0023602B68002623616B68666123622A69E1
:10416C00A661E4616662A66205F10801204605F0CD
:10417C0073FC2B69A2686660D218A2F140034FF061
:10418C00807142F8401C0B4A01A942F001029A636B
:10419C0047F00102DA63204641F8047DE36069468A
:1041AC004FF4406205F0D4FE01B0F0BD024B1B6829
:1041BC00CEE700BFDD7F200084010020294B30B505
:1041CC00186844682246002C47D063683F2B07D8F8
:1041DC00302B11D0D268002A3FD053683F2BF7D92F
:1041EC00303B5360C1683039C16053B11268302123
:1041FC00D018D150043030BD00235360C168303921
:10420C00C160016801290BD0956875B1D468BCB147
:10421C00EC60D2F80CC00139CCF808500160E5E72D
:10422C000021416081600160E0E70029DED0D4F814
:10423C000CC00139C0F804C00160CCF80850D5E7B7
:10424C000029D3D0D0F808C00139DCF808C00160CF
:10425C00C0F808C0CCF80C40C8E703F01FFF0020E2
:10426C00C9E700BF58000020F0B58CB000240A94B8
:10427C000A9B4FF4406701930094029403940497B3
:10428C00FFF79CFF44F23012C0F22002694605464B
:10429C00FFF756FF6FF000430B930B9B0126069321
:1042AC000596079408940997FFF788FF49F6015281
:1042BC00C0F2200205A9FFF743FF40F2A813C2F297
:1042CC0000031E70E86807F0FDFF0CB0F0BD00BFE6
:1042DC002DE9F0076B4E7368002B76D059680029D6
:1042EC0073D0DFF8A481B24600270022D8F8005022
:1042FC005A60F268521AF2605A68BAB9DAF8004099
:10430C00012C76D09868002800F09B80D3F80CC064
:10431C00BCF1000F00F0A580C0F80CC0DA6890600A
:10432C00DAF80020013ACAF800205A681C68A41870
:10433C0049D00F2947D961602460A760E760EB681A
:10434C0059186B68E960D4F800C06068002B40D045
:10435C00D3F80090604448450CBF1A461A4604D066
:10436C00D26812B111688842FAD159688944CC4597
:10437C0007D0DB68002B2BD01868596841188C4586
:10438C00F7D119461346CBB160685A68821862603F
:10439C002868012802BF6F60AF602F600ED09A684A
:1043AC00002A2ED0D3F80CC0BCF1000F33D0C2F8C9
:1043BC000CC0DB689A602B68013B2B6019B14A6812
:1043CC006368D3184B60736873B9BDE8F007704726
:1043DC0013462968002929D1A160E1602A686C6024
:1043EC000132AC602A60CEE7596800297FF47DAFBA
:1043FC00EBE7CAF80420CAF80820CAF800205A686B
:10440C0094E70028DAD06B68DB686B609A602B68E5
:10441C00013B2B60D2E70028D0D0AB689B68AB6027
:10442C00C3F80CC02B68013B2B60C7E7AA68394660
:10443C00D460AA68E760A2602A68AC6001322A6086
:10444C00A1E7002C3FF472AFDAF80400C068CAF898
:10445C0004008260DAF80020013ACAF800205A6899
:10446C0064E7002C3FF462AFDAF808008068CAF801
:10447C000800C260DAF80020013ACAF800205A6835
:10448C0054E700BF980C00205800002040F21403A1
:10449C00C2F200030A2100221A71196040F20C03C7
:1044AC00C2F2000319601A71704700BF00B504F026
:1044BC00BFFA00BD30B54CF6742040F21C0490B02D
:1044CC00C2F20004C0F2200003F090FDA3686A461B
:1044DC001968204603F028FF10AB1818002300F8C9
:1044EC00403C684603F082FD4CF66840C0F2200068
:1044FC0003F07CFD0A236D46236010B030BD00BF75
:10450C002DE9F045764F90B0764803F06FFDFB68CF
:10451C004BF217711C68C3F6D101204608F000FA63
:10452C00002809DA4BF217712046CBF6D10108F0BE
:10453C00F3F9002800F3CC804BF217712046C3F638
:10454C00D10108F0E9F9002863DA40F200012046B5
:10455C00CBF6807108F0E4F9002800F3BF80002648
:10456C0020464FF07E5107F07FFF40F20001CBF662
:10457C008071044608F0D4F901360028F0DD5A4861
:10458C0003F034FD31466A46554803F0CDFE10ABBE
:10459C001818002600F8406C684603F027FD5348B5
:1045AC0003F024FD6D46B04640F200012046C4F2F3
:1045BC00201108F061F840F20001CBF6807104463E
:1045CC0008F0AEF90028C8BF4FF0000A11DC4FF01C
:1045DC00000A20464FF07E5107F046FF40F20001E2
:1045EC00CBF68071044608F09BF900280AF1010A09
:1045FC00EFDD51466A463A4803F096FE10AB1818A8
:10460C0000F8408C0136684603F0F0FC032ECBD149
:10461C0056E020464FF07E5108F07EF900285BDB17
:10462C00002620464FF07E5107F01CFF4FF07E51C4
:10463C00044608F071F901360028F2DA31466A4670
:10464C00274803F071FE10AB1818002600F8406CD8
:10465C00684603F0CBFC254803F0C8FC6D46B04619
:10466C0040F200012046C4F2201108F005F84FF08A
:10467C007E51044608F050F90028B8BF4FF0000AEC
:10468C000FDB4FF0000A20464FF07E5107F0EAFE98
:10469C004FF07E51044608F03FF900280AF1010A58
:1046AC00F1DA51466A460E4803F03EFE10AB18187C
:1046BC0000F8408C0136684603F098FC032ECFD1ED
:1046CC000B4803F093FC0A233B6010B0BDE8F08567
:1046DC00084803F08BFC2FE70026AFE700264EE7D7
:1046EC001C00002088CA2000A8CA200034D020005A
:1046FC0068CC2000A0CA200010B5384C384803F014
:10470C0075FC2369374A1878374B002814BF1046BC
:10471C00184603F06BFC354803F068FC0A23236051
:10472C0023691B78002B2DD04BF22043C4F20D03D0
:10473C001A6822F008021A604BF20043C4F20D030F
:10474C001A6842F008021A6044F2CC03C4F20D035A
:10475C0004221A604BF21C43C4F20D0308221A60A7
:10476C004BF21873C4F20D031A6822F400221A607B
:10477C004BF22003C4F20D03FF221A601C4B0022E3
:10478C00DA6410BD4BF22042C4F20D02116821F024
:10479C00080111604BF20042C4F20D02116841F0A5
:1047AC000801116044F2CC02C4F20D020421116024
:1047BC004BF21C42C4F20D02082111604BF218722C
:1047CC00C4F20D02116821F4002111604BF2200299
:1047DC00C4F20D021360064AD364D2E71C00002019
:1047EC00ACCA2000C0CA2000B4CA200068CC20008B
:1047FC00F401002070B5854D854C28680023416874
:10480C000A2223766261237122600B46002900F094
:10481C00F5804A681F2A08D8102A06D0DB68002BBE
:10482C0000F0EC805A681F2AF6D9103A5A60C26818
:10483C00103AC2605A68AAB9D0F800C0BCF1010F96
:10484C0000F086809E68002E00F08C80D9680029CC
:10485C0000F0AA80F160DA680CF1FF3CC0F800C0EF
:10486C0096605A68196810208B18885004330022FF
:10487C001A702868236141680B46002900F0BA8041
:10488C004A681F2A08D8102A06D0DB68002B00F0D3
:10489C00B1805A681F2AF6D9103A5A60C268103A89
:1048AC00C2605A689AB9D0F800C0BCF1010F54D05C
:1048BC009E68002E6CD0D968002900F08D80F160C4
:1048CC00DA680CF1FF3CC0F800C096605A681968B1
:1048DC0010208B18885004332868002241681A6015
:1048EC00A3600B46002900F08D804A681F2A08D867
:1048FC00102A06D0DB68002B00F084805A681F2A2F
:10490C00F6D9103A5A60C268103AC2605A6872B945
:10491C000568012D17D09E68002E30D0D96800296B
:10492C0050D0F160DA68013D056096605A681968EC
:10493C0010208B188850043340F20002C4F2A012ED
:10494C001A60E36070BD0260426082605A68EEE7F4
:10495C000260426082605A6884E702604260826052
:10496C005A68B4E7BCF1000F3FF47CAFC9680CF196
:10497C00FF3CC0F800C041608A605A6872E7002DA5
:10498C00D5D0C968013D056041608A605A68CEE7A0
:10499C00BCF1000F9BD0C9680CF1FF3CC0F800C003
:1049AC0041608A605A6892E7BCF1000F3FF45AAF3D
:1049BC0081680CF1FF3C8968C0F800C08160CA6056
:1049CC005A684FE7002DB2D08168013D89680560B7
:1049DC008160CA605A68AAE7BCF1000F3FF477AF58
:1049EC0081680CF1FF3C8968C0F800C08160CA6026
:1049FC005A686CE703F052FB00236DE703F04EFBA3
:104A0C00002334E703F04AFB002395E7580000200D
:104A1C001C0000202DE9F04F0427D4B044F2CC0B3D
:104A2C004BF21C494BF218744BF2200ADFF8648AE3
:104A3C0050A9C4F20D0BBC46C4F20D09C4F20D040E
:104A4C00C4F20D0A4BF22046C4F20D0633684BF249
:104A5C00004523F008033360C4F20D052B680820D1
:104A6C0043F008032B60CBF800C0C9F800002368A2
:104A7C00FF2223F400232360CAF800204AF22013FB
:104A8C000022C0F207030846C8F84C200191CDF86B
:104A9C0000C050930392029304F09CFE3068039A7A
:104AAC0020F0080030602868029B40F00800286065
:104ABC000420CBF800000820C9F800002068C8F8D2
:104ACC004C2020F400202060CAF8002051A85193FB
:104ADC0004F080FE17F1FF370199DDF800C0B1D169
:104AEC0044F2CC0B4BF21C494BF218754BF2200ADA
:104AFC0005244EA9C4F20D0B4FF0040CC4F20D09A1
:104B0C00C4F20D05C4F20D0A4BF22047C4F20D0796
:104B1C003B684BF2004623F008033B60C4F20D06E1
:104B2C003368082243F008033360CBF800C0C9F89F
:104B3C0000202B68002223F400232B60FF23CAF8EB
:104B4C00003048F2A063C0F201030846C8F84C20BC
:104B5C000191CDF800C04E930392029304F03AFEFB
:104B6C003868039A20F0080038603068029B40F0E7
:104B7C00080030600420CBF800000820C9F80000C1
:104B8C002868C8F84C2020F400202860CAF80020BF
:104B9C004FA84F9304F01EFE14F1FF340199DDF879
:104BAC0000C0B1D1DFF8F0383794369340F22C03C3
:104BBC00C0F228031B68389439944B944C944D9450
:104BCC00DFF8D8483593DFF8D83820684A93436823
:104BDC004BB15A681F2A00F2EC80102A00F0E980D1
:104BEC00DB68002BF5D103F059FA00234AAA1A60AE
:104BFC00379A00215960002A40F002845A60389399
:104C0C00399301233793DFF89C38206846930023AF
:104C1C0047934893499343684BB15A681F2A00F253
:104C2C002881102A00F02581DB68002BF5D103F0D8
:104C3C0035FA002346AA1A6000225A6037990029D7
:104C4C0040F0E683596038933993379B013337939F
:104C5C00206843684BB15A681F2A00F2CA80102A98
:104C6C0000F0C780DB68002BF5D103F017FA0025A4
:104C7C00DFF83438DFF834A82B600023DAF8102082
:104C8C00309331931E468DF8CC30DFF82438022057
:104C9C002F93349200F0EEFD012303704670309098
:104CAC00319808B103F0FEF9022000F0E3FD012376
:104CBC000222037043708DF8CC20ADF80C31DFF874
:104CCC00F427013B31908DF80E3120682FAB3295D3
:104CDC004292449343684BB15A681F2A00F2A98050
:104CEC00102A00F0A680DB68002BF5D103F0D6F972
:104CFC00002342AA1A6000225A604B99002900F046
:104D0C0073844D994B605A604D934B9B01334B937D
:104D1C00206843683BB15A681F2A2AD8102A28D029
:104D2C00DB68002BF7D103F0B9F90022DFF88837E4
:104D3C00DFF888071360DAF8081000232193229318
:104D4C002090259326932793206803332891239250
:104D5C008DF8903045684DB16B681F2B00F2A9801F
:104D6C00102B00F0A680ED68002DF5D103F096F91C
:104D7C00BEE0103A5A60C268103AC2605A6892B9E2
:104D8C000568012D00F052849968002900F04184D7
:104D9C00DE68002E00F03084CE60DA689160026824
:104DAC00013A02605A681B681020991898500A1D25
:104DBC00BCE7103A5A60C268103AC2605A6892B99D
:104DCC000568012D00F045849968002900F03484B1
:104DDC00DE68002E00F05684CE60DA6891600268BE
:104DEC00013A02605A68196810208B1888500433F5
:104DFC00FCE6103A5A60C268103AC2605A6892B91E
:104E0C000568012D00F038849968002900F027848A
:104E1C00DE68002E00F0BF83CE60DA689160026815
:104E2C00013A02605A681B6810219D18995004358C
:104E3C001EE7103A5A60C268103AC2605A6892B9BA
:104E4C000568012D00F0CB839968002900F0BB8325
:104E5C00DE68002E00F0AB83CE60DA6891600268E9
:104E6C00013A02605A68196810208B188850043374
:104E7C003FE7103A5A60C268103AC2605A6892B959
:104E8C000568012D00F025849968002900F0148430
:104E9C00DE68002E00F00384CE60DA689160026850
:104EAC00013A02605A68196810208B188850043334
:104EBC00C0E6103B6B60C368103BC3606B6893B972
:104ECC000168012900F04E84AA68002A00F03D8494
:104EDC00EE68002E00F02C84D660EB689A600368B4
:104EEC00013B03606B682A681021D518D15004353A
:104EFC002846DFF8CC15062203F038FA2068436800
:104F0C004BB15A681F2A00F2BC81102A00F0B981FB
:104F1C00DB68002BF5D103F0C1F8002300221D60E3
:104F2C005A602599002900F0FA8227994B605A6043
:104F3C002793259B01332593062000F09BFC06222A
:104F4C00DFF88015054603F011FA082000F092FCFA
:104F5C00002205604260259B002B00F0DA82279925
:104F6C0001334860426027902593052000F082FCB5
:104F7C000522DFF85415054603F0F8F9082000F077
:104F8C0079FC002205604260259B002B00F0F08329
:104F9C00279901334860426027902593DFF82C3520
:104FAC004FF002023E9300238DF8FE30206820ABB8
:104FBC00ADF8FC20409343684BB15A681F2A00F2AD
:104FCC000182102A00F0FE81DB68002BF5D103F082
:104FDC0065F800233EAA1A6000225A604B990029FA
:104FEC0000F0E9834D994B605A604D934B9B013314
:104FFC004B93206843684BB15A681F2A00F26181B9
:10500C00102A00F05E81DB68002BF5D103F046F826
:10501C000026DFF8BC34336000232A932B938DF8E1
:10502C00B430DAF80C20DFF8AC34206829932E92D7
:10503C0043684BB15A681F2A00F26381102A00F0B2
:10504C006081DB68002BF5D103F028F801270025DF
:10505C0028460021052203F0D5F904232B704FF0CC
:10506C007E533B602B982A9508B103F01BF8052062
:10507C0000F000FC05220021054603F0C3F90423CF
:10508C002B704FF08043C5F801304FF00300012323
:10509C00DFF844248DF8B430ADF8EC008DF8EE3028
:1050AC00206829AB2B952C963A923C9343684BB1D4
:1050BC005A681F2A00F24681102A00F04381DB68EF
:1050CC00002BF5D102F0EAFF00233AAA1A60002265
:1050DC005A604799002900F03A8249994B605A600E
:1050EC004993479B01334793206843684BB15A68F7
:1050FC001F2A00F24781102A00F04481DB68002B44
:10510C00F5D102F0CBFF0023F44A002412684FF0D3
:10511C000A091A6014AA1592F14A8DF85840149293
:10512C0035AA189217941993CDF868908DF86C40A5
:10513C008DF870401D941E941F94186814A9036870
:10514C0001221B689847E74802F050FFE648CAF86E
:10515C00009002F04BFF359904AA2346D34803F084
:10516C009DF804AB1C54184602F040FFDD4802F0D9
:10517C003DFFDE48CAF8009002F038FF369802F086
:10518C0035FFD84802F032FFDDF8E0B0CAF80090E5
:10519C00BBF1000F60D004ADD54802F027FFDBF85F
:1051AC000030186802F022FFCE4802F01FFFCAF848
:1051BC000090DBF80030D3F80880B8F1000F46D02F
:1051CC00CC4802F013FFD8F800300027186802F022
:1051DC000DFFC44802F00AFFC748CAF8009002F05D
:1051EC0005FFD8F800302A469988B048002303F010
:1051FC0055F82F54284602F0F9FEBA4802F0F6FE94
:10520C00CAF80090D8F80030BC489B689E6802F041
:10521C00EDFE33788BB101240023315D2A46A3487F
:10522C0003F03CF82F54284602F0E0FEB44802F09C
:10523C00DDFE33780134A342EEDAAA4802F0D6FE42
:10524C00CAF80090D8F80480B8F1000FB8D1DBF898
:10525C0004B0BBF1000F9FD19DF87030002B00F013
:10526C00DF80A04802F0C2FE49F280640A23CAF82B
:10527C00003052ADC0F298042846529404F0AAFAB9
:10528C00FAE7103A5A60C268103AC2605A6892B98A
:10529C000668012E00F07A819968002900F06A8175
:1052AC00DF68002F00F05A81CF60DA6891600268E5
:1052BC00013A02605A68196810208B188850043320
:1052CC002CE6103A5A60C268103AC2605A6892B919
:1052DC000568012D00F06A829968002900F05A8255
:1052EC00DE68002E00F04A82CE60DA6891600268B7
:1052FC00013A02605A681B6810219E1899500436B6
:10530C0087E6103A5A60C268103AC2605A6892B97D
:10531C000568012D00F06E829968002900F05E820C
:10532C00DF68002F00F04E82CF60DA68916002686F
:10533C00013A02605A681B6810219F183D1D995054
:10534C00053785E6103A5A60C268103AC2605A684E
:10535C0092B90568012D00F0F5809968002900F0DC
:10536C00E580DE68002E00F0BA81CE60DA689160CC
:10537C000268013A02605A68196810208B1888502C
:10538C000433A2E6103A5A60C268103AC2605A68F6
:10539C0092B90468012C00F0C6819968002900F0CC
:1053AC00B681DD68002D00F0A681CD60DA689160D1
:1053BC000268013A02605A68196810208B188850EC
:1053CC000433A1E6103A5A60C268103AC2605A68B7
:1053DC0082B90568012D00F09780996800294ED09C
:1053EC00DE68002E40D0CE60DA6891600268013A27
:1053FC0002605A68196810208B1888500433E9E54C
:10540C00399801324360379259603993FFF7FBBBEF
:10541C0039994B605A603993379B0133379317E4B2
:10542C00384802F0E3FD2F4802F0E0FD0A231A93FE
:10543C00072301228DF8103040F22C038DF8182030
:10544C00C0F228031B6814A805934FF0FF338DF8A6
:10545C004C318DF84D3153AB8DF84F2104A953AA23
:10546C00033300F087FAFCE6002DC3D0816889680D
:10547C008160CA600268013A02605A68BAE7002D7E
:10548C00B8D04168C96841608A600268013A02601C
:10549C005A68AFE7F4010020C8CA20005800002069
:1054AC00D0CA2000D8CA2000054720001C000020CC
:1054BC0040CA2000E4CA2000C14420004CCA20008D
:1054CC00E8CA2000F0CA2000F8CA200000CB200057
:1054DC000D45200058CA20000CCB2000E80100200C
:1054EC0064CA200068CC200018CB200024CB2000FC
:1054FC0034CB200048CB20005CCB200074CB2000A8
:10550C0040CD20008CCB20004260826002605A6843
:10551C0070E74360013326902790259325E5596069
:10552C0026932793259B0133259305E5002D3FF406
:10553C0023AF4168C96841608A600268013A026021
:10554C005A6819E74260826002605A6814E7596031
:10555C0048934993479B01334793C5E5002E3FF48D
:10556C00AAAE816889688160CA600268013A0260EB
:10557C005A68A0E6002E3FF49EAE4168C9684160AF
:10558C008A600268013A02605A6894E6426082605E
:10559C0002605A688FE6002D3FF445AC816889683B
:1055AC008160CA600268013A02605A683BE4002DCF
:1055BC003FF459AC816889688160CA600268013A1D
:1055CC0002605A684FE4002D3FF44DAC4168C96845
:1055DC0041608A600268013A02605A6843E44260A2
:1055EC00826002605A683EE459604C934D934B9B29
:1055FC0001334B93FFF78CBB002D3FF4D4AB816888
:10560C0089688160CA600268013A02605A68FFF7D3
:10561C00CABB002D3FF4C7AB4168C96841608A60C2
:10562C000268013A02605A68FFF7BDBB42608260B3
:10563C0002605A68FFF7B7BB002D3FF4D4AB41684A
:10564C00C96841608A600268013A02605A68FFF7D3
:10565C00CABB4260826002605A68FFF7C4BB002D6F
:10566C003FF4E1AB4168C96841608A600268013A65
:10567C0002605A68FFF7D7BB4260826002605A68CA
:10568C00FFF7D1BB002D3FF4AEAB81688968816018
:10569C00CA600268013A02605A68FFF7A4BB002D89
:1056AC003FF401AC816889688160CA600268013A84
:1056BC0002605A68FFF7F7BB002D3FF4F4AB41686A
:1056CC00C96841608A600268013A02605A68FFF753
:1056DC00EABB4260826002605A68FFF7E4BB002DAF
:1056EC003FF44AAE816889688160CA600268013AF9
:1056FC0002605A6840E6002C3FF45EAE816889680F
:10570C008160CA600268013A02605A6854E6002C53
:10571C003FF452AE4168C96841608A600268013A40
:10572C0002605A6848E64260826002605A6843E64A
:10573C0000293FF4D8AB826892688260D36003681A
:10574C00013B03606B68FFF7CEBB00293FF4CBAB8A
:10575C004268D268426093600368013B03606B68E7
:10576C00FFF7C1BB4360836003606B68FFF7BBBB93
:10577C00436001332690279025930FE4002D3FF4CE
:10578C00BAAD816889688160CA600268013A0260BA
:10579C005A68B0E5002D3FF4AEAD4168C968416070
:1057AC008A600268013A02605A68A4E5426082602D
:1057BC0002605A689FE559604C934D934B9B0133A3
:1057CC004B9316E4002D3FF4B6AD81688968816077
:1057DC00CA600268013A02605A68ACE5002D3FF4D9
:1057EC00AAAD4168C96841608A600268013A0260EA
:1057FC005A68A0E54260826002605A689BE500BF6F
:10580C00704700BF007C7047837930B504460D4665
:10581C0003B130BD806803681B68984703281ED00D
:10582C00A06803681B6898470428F2D1A3685A68DB
:10583C00D2F801109A68D2F801209542CCBF002210
:10584C0001228D42B4BF002202F00102002AE0D0F6
:10585C005A69DB6815601B689847E560D9E7A3684F
:10586C005A699542F9D21A6ADB6815601B68984729
:10587C00E560CEE7344B30B5196808B925E0013046
:10588C0010F0030FFBD14C6804300F2898BF102088
:10589C002246002C53D0636800F1100C634507D2EC
:1058AC00834213D0D268002A49D053686345F7D39A
:1058BC001B1A5360D1F80CC0C0EB0C0CC1F80CC017
:1058CC0063B11268D118D050081D30BD1B1A53603B
:1058DC00D1F80CC0C0EB0C0CC1F80CC0D1F800C056
:1058EC00BCF1010F0BD0956895B1D468DCB1EC60BC
:1058FC00D4680CF1FF3CA560C1F800C0E1E74FF0A3
:10590C00000CC1F804C0C1F808C0C1F800C0D8E749
:10591C00BCF1000FD5D0E4680CF1FF3C4C60C1F831
:10592C0000C0A560CDE7BCF1000FCAD08D680CF1AA
:10593C00FF3CAD68C1F800C08D60EC60C1E7084663
:10594C0002F0ACFB0020C0E75800002030B590B04E
:10595C006A460023044602F0A1FC10AB1818002381
:10596C0000F8403C684602F041FB6D46204610B002
:10597C0030BD00BF2DE9F04F91461E460A787E4B94
:10598C00834682B00C461868002A00F0AD8012F0F5
:10599C00030F08BF134604D01346013313F0030F53
:1059AC00FBD1456803F1040CBCF10F0F98BF4FF00D
:1059BC00100C2B46002D00F0D48069680CF1100EF1
:1059CC00714508D2614506D0DB68002B00F0C98018
:1059DC0059687145F6D3CCEB01015960C168CCEB29
:1059EC000101C1605968A9B90768012F00F09680C0
:1059FC00D3F808E0BEF1000F00F09780DD68002DB1
:105A0C0000F0A080CEF80C50D968013F0760C1F8B7
:105A1C0008E059681B685F183D1D07F1050A07F17E
:105A2C00060843F801C00A372846002102F0EAFCB8
:105A3C003B232B7023788AF800306368C8F8003059
:105A4C00237A3B70237A023B072B3AD8DFE803F02A
:105A5C005D60396339043953E368986803681B68DF
:105A6C009847E871E3689B882B81E3689B79AB725C
:105A7C00E3689A685768002F55D0394611F8012B06
:105A8C0005F10B0002F072FCE3683F789A680B3763
:105A9C00D2F80880B8F1000F09D04146E81911F886
:105AAC00012B02F063FC98F80030FF18E368D3F880
:105ABC000080404602F038FD41460246E81902F0EB
:105ACC00F5FCDBF814302278186802320368009277
:105ADC009C69494632462B46A04715B1284602F030
:105AEC00E1FA02B0BDE8F08F06274FF002084FF044
:105AFC00010A154698E7E768384602F015FD394665
:105B0C000246E81D02F0D2FCDBE7637AEB71D8E7C2
:105B1C00E3685F68F0E7E3681F68EDE701604160E8
:105B2C008160596876E70B27B2E7002F3FF472AF1C
:105B3C00D5F80CE0013F0760C0F804E0CEF808107F
:105B4C00596867E7002F3FF465AFD0F808E0013FD4
:105B5C00DEF808E00760C0F808E0CEF80C105968D1
:105B6C0058E70192062702F099FA4FF002084FF01D
:105B7C00010A0025019A57E7580000202DE9F04F43
:105B8C00037883B03B2B03D0002003B0BDE8F08F2B
:105B9C00441C657946786B1ED4F801700B2BF3D836
:105BAC00DFE813F01F00260039006F0076009F001D
:105BBC00A600B600CB00BD00C4000C000C20FFF703
:105BCC0059FE072303700C23037240F22C03C0F21E
:105BDC0028031B6843600028D7D006704760057205
:105BEC00D3E70C20FFF746FE072303700123EBE7F6
:105BFC000C20FFF73FFE082303700223037240F2D0
:105C0C002C03C0F228031B684360A379003B18BF28
:105C1C0001234372DFE7A6F1070A5FFA8AFA0AF159
:105C2C0001094846FFF726FE002180464A4602F04D
:105C3C00E9FBA11D5246404602F098FB1420FFF7E9
:105C4C0019FE00238360C3600361C0F8048004461E
:105C5C0007601020FFF70EFE8046606802F064FCBF
:105C6C00073088F80000032388F8083040F22C0332
:105C7C00C0F228031B684046C8F80430C8F80C4032
:105C8C00A9E70C20FFF7F6FD0723037004239BE71D
:105C9C00A6F1070A5FFA8AFA0AF101094846FFF7EA
:105CAC00E9FD002180464A4602F0ACFBA11D52469C
:105CBC00404602F05BFB1020FFF7DCFD0023436045
:105CCC008360C360C0F8008004461020FFF7D2FD4B
:105CDC008046206802F028FC073088F80000052375
:105CEC00C2E70C20FFF7C6FD0723037006236BE702
:105CFC00B4F80730627A01930092A379013B032B2D
:105D0C0000F24982DFE813F09001E800C90041007D
:105D1C000C20FFF7AFFD07230370082354E70C207A
:105D2C00FFF7A8FD072303700A234DE70C20FFF7AC
:105D3C00A1FD072303700B2346E7A6F1070A5FFAC0
:105D4C008AFA0AF101094846FFF794FD00218046C2
:105D5C004A4602F057FBA11D5246404602F006FB94
:105D6C001020FFF787FD0446404602F0DDFB0923B7
:105D7C000730237240F22C032070C0F228031B68FA
:105D8C0020466360C4F80C8025E71820FFF772FDED
:105D9C00DFF834250023804643608360037443613D
:105DAC0002600420FFF766FDDFF820350360C8F8B9
:105DBC000C000423D8F8040088F81030D4F80AA09A
:105DCC0008B102F06FF90520FFF754FD0022C31C47
:105DDC0003F8012B1A7004230370C0F801A0C8F853
:105DEC000400D8F80800D4F80EA008B102F05AF953
:105DFC000520FFF73FFD0022C31C03F8012B1A708E
:105E0C0004230370C0F801A04FF01209C8F8080071
:105E1C00CDF8088006F1FF3AC9EB0A0A5FFA8AFA54
:105E2C000AF1010B5846FFF725FD002180465A4622
:105E3C0002F0E8FA04EB09015246404602F096FAE9
:105E4C001020FFF717FDC0F80080019A04468280ED
:105E5C00009B8371029A82601020FFF70BFD0723D1
:105E6C000370037240F22C03C0F228031B68C46059
:105E7C0043608046206802F057FBD4F808A0DAF89B
:105E8C000420DAF8083012781B78D318DBB20B3305
:105E9C00181888F8000040469DE62420FFF7EAFC1D
:105EAC00DFF82C2400238046436083600374436135
:105EBC008361C361036202600420FFF7DBFCDFF83F
:105ECC000C344FF00A0903600323C8F80C0088F85F
:105EDC001030CDF808809DE71820FFF7CBFCFD4A69
:105EEC000023DFF8F4A34360836003740260436112
:105EFC008046DAF800004168002900F0D1814A6838
:105F0C001F2A00F24D81102A18BF0B4602D147E11F
:105F1C00102A06D0DB68002B00F0C2815A681F2AB9
:105F2C00F6D9103A5A60C268103AC2605A68CAB9B7
:105F3C00D0F800C0BCF1010F00F03981D3F808E0B3
:105F4C00BEF1000F00F04F81D968002900F071817B
:105F5C00CEF80C10DA680CF1FF3CC0F800C0C2F8A7
:105F6C0008E05A681B681020991898500B1D0531D1
:105F7C00002201205A7018700A70D8F80800C8F86E
:105F8C00043008B102F08EF8DAF8000041680B46D4
:105F9C00002900F08F814A681F2A08D8102A06D0E1
:105FAC00DB68002B00F086815A681F2AF6D9103A5C
:105FBC005A60C268103AC2605A68CAB9D0F800C0B8
:105FCC00BCF1010F00F0EE80D3F808E0BEF1000F39
:105FDC0000F0FC80D968002900F04681CEF80C1046
:105FEC00DA680CF1FF3CC0F800C0C2F808E05A684F
:105FFC001B681020991898500B1D053100225A70FF
:10600C0001221A7004200A70C8F80830FFF732FC1D
:10601C00AE4B4FF00C0903600223C8F80C0088F853
:10602C001030CDF80880F5E61820FFF723FCAB4ABA
:10603C000023804643608360037443610260042044
:10604C00FFF718FCA14B0360C8F80C000123D8F82B
:10605C00040088F81030D4F80A9008B102F022F845
:10606C00DFF874A2DAF8000041680B46002900F052
:10607C001C814A681F2A08D8102A06D0DB68002B1E
:10608C0000F013815A681F2AF6D9103A5A60C26878
:10609C00103AC2605A68CAB9D0F800C0BCF1010FFE
:1060AC0000F08A80D3F808E0BEF1000F00F0A88061
:1060BC00D968002900F0E680CEF80C10DA680CF1F3
:1060CC00FF3CC0F800C0C2F808E05A6819681020FC
:1060DC008B1888501A1D581D0021931C517003F801
:1060EC00011B03F8011B197004231370C0F80090F6
:1060FC00D8F80800C8F80420D4F80E9008B101F0C4
:10610C00D1FFDAF8000041680B46002900F0D78077
:10611C004A681F2A08D8102A06D0DB68002B00F02A
:10612C00CE805A681F2AF6D9103A5A60C268103AC3
:10613C00C2605A68B2B9D0F800C0BCF1010F40D0AF
:10614C00D3F808E0BEF1000F67D0D96800297ED0E3
:10615C00CEF80C10DA680CF1FF3CC0F800C0C2F8A5
:10616C0008E05A68196810208B1888501A1D581DA1
:10617C000021931C517003F8011B03F8011B1970CB
:10618C0004231370C0F80090C8F808204FF01209CF
:10619C00CDF808803EE600234FF00A09029339E659
:1061AC000B46BEE60260426082605A6820E70260DD
:1061BC00426082605A68D5E60260426082605A682A
:1061CC0084E70260426082605A68CBE7BCF1000F42
:1061DC003FF40EAFC9680CF1FF3CC0F800C0416041
:1061EC008A605A6804E7BCF1000F3FF4BBAEC96883
:1061FC000CF1FF3CC0F800C041608A605A68B1E6FF
:10620C00BCF1000F3FF462AFC9680CF1FF3CC0F861
:10621C0000C041608A605A6858E7BCF1000FA1D0F9
:10622C00C9680CF1FF3CC0F800C041608A605A6834
:10623C0098E7BCF1000F3FF495AE81680CF1FF3C80
:10624C008968C0F800C08160CA605A688AE6BCF1EF
:10625C00000F87D081680CF1FF3C8968C0F800C042
:10626C008160CA605A687DE7BCF1000F3FF4C0AE94
:10627C0081680CF1FF3C8968C0F800C08160CA607D
:10628C005A68B5E6BCF1000F3FF420AF81680CF101
:10629C00FF3C8968C0F800C08160CA605A6815E785
:1062AC0001F0FCFE0121002362E601F0F7FE012063
:1062BC00002211E701F0F2FE012100239EE601F01D
:1062CC00EDFE0120002253E770CA20000D5820007B
:1062DC004CCA200040CA20005800002058CA200098
:1062EC002DE9F047436A89B005460E461746002B48
:1062FC0000F0F480DFF88C0401F078FE6B6A1B6808
:10630C00186801F073FEDFF8800401F06FFEDFF80F
:10631C007C0401F06BFE0A23AB616B6A1C6820687D
:10632C0002F002F90523C21D8DF81030D2B240F2F2
:10633C002C038DF80820C0F228031B6805940393E6
:10634C00DFF84C341868002A51D012F0030F08BF44
:10635C00134604D01346013313F0030FFBD103F1A2
:10636C00040C4368BCF10F0F98BF4FF0100C002BBE
:10637C0000F0FB8159680CF1100E714508D2614593
:10638C0006D0DB68002B00F0F08159687145F6D31C
:10639C00CCEB01015960C168CCEB0101C1605968BB
:1063AC00B9B9D0F800E0BEF1010F00F02D819C6866
:1063BC00002C00F09D81D3F80C80B8F1000F00F098
:1063CC00A881C4F80C80D9688C600168013901601F
:1063DC0059681B6803EB010909F1040409F1050A6A
:1063EC0009F1060843F801C009F10A0906E04FF06B
:1063FC0006094FF002084FF0010A1446204600210E
:10640C0002F000F83B2323709DF808308AF8003026
:10641C00039BC8F800309DF8103089F800309DF8C7
:10642C001030023B072B46D8DFE813F0E700E300FF
:10643C004500D700450008004500EB00059B986817
:10644C0003681B689847E071059B9B882381059B1B
:10645C009B79A372059B9A68D2F80480B8F1000F5F
:10646C0000F04381414611F8012B04F10B0001F0BF
:10647C007DFF059B98F800809A6808F10B08D2F80C
:10648C0008A0BAF1000F0BD0514604EB080011F82C
:10649C00012B01F06BFF9AF80030984402ABDB68DB
:1064AC00D3F800A0504602F03FF85146024604EBE8
:1064BC00080001F0FBFF6B699DF808201868023298
:1064CC00036800929D6931463A462346A84714B1A9
:1064DC00204601F0E7FD09B0BDE8F087AD4801F0BA
:1064EC0085FD2B690A24586801F080FDA64801F04F
:1064FC007DFDA64801F07AFDA748AC6101F076FD60
:10650C00A24801F073FD0723AC618DF818300B2302
:10651C008DF8203040F22C03C0F228031B6807933F
:10652C009B4B186843683BB15A681F2A0CD8102A39
:10653C000AD0DB68002BF7D101F0B0FD0024062156
:10654C0002204FF0010C26E0103A5A60C268103A53
:10655C00C2605A68AAB90468012C00F0C18099681D
:10656C00002900F0EA80D3F80CC0BCF1000F00F059
:10657C00F080C1F80CC0DA6891600268013A0260E0
:10658C005A68196810208B1888501C1D03F1050CD3
:10659C00981D03F10A010022A31C627003F8012B61
:1065AC0003F8012B03F8012B03F8012B1A703B2283
:1065BC0022709DF818208CF80020079A02609DF834
:1065CC0020200A709DF82030023B072B64D8DFE8AE
:1065DC0003F07083637F63206374059BD3F80080A2
:1065EC00404601F0A1FF41460246E01D01F05EFF6E
:1065FC0061E7059BD3F80480F2E79DF81130E37155
:10660C0059E7DDF81480EBE741608160016059685F
:10661C00DFE60DF1240858F80C39986803681B68FC
:10662C009847E071D8F80C309B882381D8F80C304F
:10663C009B79A372D8F80C309A68D2F804A0BAF1FE
:10664C00000F77D0514611F8012B04F10B0001F02B
:10665C008DFED8F80C309AF800A09A680AF10B0A53
:10666C00D2F80890B9F1000F0BD0494604EB0A00A0
:10667C0011F8012B01F07AFE99F800309A44D8F801
:10668C000C30D3F80080404601F04EFF41460246E4
:10669C0004EB0A0001F00AFF6B699DF818201868DA
:1066AC000232036800929D6931463A462346A84758
:1066BC000EE79DF82130E371EEE7DDF824804046CB
:1066CC0001F032FF41460246E01D01F0EFFEE3E728
:1066DC00099BD3F80080F2E7099BD3F80480EEE71E
:1066EC004260826002605A684BE74FF00B08C6E6C6
:1066FC00BEF1000F3FF46DAED0F804E0DEF80CE014
:10670C00C0F804E0CEF8081001680139016059683E
:10671C005FE6BEF1000F3FF45CAED0F808E0DEF8A7
:10672C0008E0C0F808E0CEF80C10016801390160EF
:10673C0059684EE64FF00B0A92E7002C3FF421AF5C
:10674C004168C96841608A600268013A02605A680F
:10675C0017E7002C3FF415AF816889688160CA6027
:10676C000268013A02605A680BE701924FF0060981
:10677C0001F094FC4FF002084FF0010A0024019A3A
:10678C003CE600BFB8CB2000D0CB200068CC20006A
:10679C0058000020D4CB2000F4CB20002DE9F04F82
:1067AC009A460B7886B03A2B0746914600F0318119
:1067BC00DFF828560026286843683BB15A68232A1C
:1067CC0008D8142A06D0DB68002BF7D101F066FC40
:1067DC00002421E0143A5A60C268143AC2605A6824
:1067EC00AAB90468012C00F0B7809968002900F060
:1067FC005282D3F80CC0BCF1000F00F05882C1F8E3
:10680C000CC0DA6891600268013A02605A681B6831
:10681C0014219C189950043409224FF0000840F2BE
:10682C002C0384F808802270C0F228031B6871893D
:10683C006360337A6181012B00F03E81032B00F001
:10684C009080286812F0030F08BF134604D013463B
:10685C00013313F0030FFBD103F1040C4368BCF1BB
:10686C000F0F98BF4FF0100C002B00F0A982596845
:10687C000CF1100E714508D2614506D0DB68002B77
:10688C0000F09E8259687145F6D3CCEB010159603A
:10689C00C168CCEB0101C1605968B9B9D0F800E00E
:1068AC00BEF1010F00F08A809D68002D00F00B8274
:1068BC00D3F80CB0BBF1000F00F01682C5F80CB089
:1068CC00D9688D60016801390160596818684318EE
:1068DC0040F801C0991D1D1D03F1050B049103F136
:1068EC000A010B33039102930021284601F08AFD23
:1068FC003A232B7023788BF800306368049A13606A
:10690C00039B217A19706289029B1A802378A3F168
:10691C000902D2B21AB10239C9B2012953D97A6922
:10692C000233106849460268009397692B46524619
:10693C00B84715B1284601F0B5FBB8F1000F02D0ED
:10694C00404601F0AFFB204601F02AFC304601F036
:10695C0027FC06B0BDE8F08F4260826002605A6886
:10696C0055E7DFF87C0401F041FBDFF8780401F017
:10697C003DFB0A23BB61042323723B69B6F80AB0C2
:10698C00D968002929D00B689B6813B922E05B6891
:10699C0003B3D3F80080B8F804205A45F7D1D8F8DF
:1069AC00080003681B6898470138032800F25681D9
:1069BC00DFE810F022011901B900B90041608160D3
:1069CC000160596882E705F10900E16801F0CEFC2D
:1069DC002378A4E749680029D5D1DFF80C0401F02D
:1069EC0005FB594607F11800FEF7B0FFFF4801F010
:1069FC00FDFA22782868002A40F0DF8107230293F1
:106A0C00062102239046039104934FF0010B154687
:106A1C006AE7F24D286843683BB15A68232A0AD8C2
:106A2C00142A08D0DB68002BF7D10191002601F065
:106A3C0035FB019921E0143A5A60C268143AC260DD
:106A4C005A68AAB90468012C00F00D819E68002ECA
:106A5C0000F05B81D3F80CC0BCF1000F00F0658135
:106A6C00C6F80CC0DA6896600268013A02605A688F
:106A7C001B6814209E189850043609233370002389
:106A8C00337240F22C03C0F228031B684A1C73605B
:106A9C004B783370D2F80100092B7060507930724A
:106AAC00D28872813FF487AE831EDBB2012B3FF696
:106ABC0082AE0931F1607EE6CD4801F097FAC94803
:106ACC0001F094FA0A23BB61022323723B69B6F8E6
:106ADC000A80D968D1B10B689B6813B913E05B6865
:106AEC008BB1D3F800B0BBF804204245F7D1DBF8EA
:106AFC00080003681B689847013803286ED8DFE844
:106B0C0000F043582E1949680029E4D1B64801F029
:106B1C006DFA414607F11800FEF718FFB34801F073
:106B2C0065FA227866E7F36840461968FEF76CFE52
:106B3C0022785FE70420FEF79DFE03468046DBF8D3
:106B4C00080002680193126890470428019B00F02A
:106B5C00FC80029A1A600D222270E36071E6042018
:106B6C00FEF788FE03468046DBF8080002680193B6
:106B7C00126890470328019B00F0038103990D22B2
:106B8C0019602270E3605CE60420FEF773FE034696
:106B9C008046DBF8080002680193126890470128D0
:106BAC00019B00F0E080049A1A600D222270E360D1
:106BBC0047E60120FEF75EFE03468046DBF8080040
:106BCC0002680193126890470228019B00F0E7804D
:106BDC0005990A2219702270E36032E6854801F0AB
:106BEC0005FA227806E7F36893F800B098F80630B7
:106BFC00002B3DD02278FDE6F3681B68029398F8D1
:106C0C000630002BF6D1D8F8080003681B689847AB
:106C1C000128EFD1D8F808B00298DBF80430DBF883
:106C2C000820D3F80130D2F80110019305F078FE5A
:106C3C000028019BDEDC0298194605F06DFE002849
:106C4C00D8DBDBF8143002991960DBF80C301B68C8
:106C5C009847029AC8F80C202278CBE6654801F0D8
:106C6C00C5F92278C6E64260826002605A68FFE687
:106C7C00D8F8080003681B6898470228BAD1D8F8DE
:106C8C0008305A6982F800B0DB681B68984788F8AE
:106C9C000CB02278AEE6002C3FF4B9AD4168C9685F
:106CAC0041608A600268013A02605A68AFE5002CC4
:106CBC003FF4ADAD816889688160CA600268013AB1
:106CCC0002605A68A3E5BEF1000F3FF4FFADD0F8A7
:106CDC0004E0DEF80CE0C0F804E0CEF8081001681F
:106CEC00013901605968F1E5BEF1000F3FF4EEADDA
:106CFC00D0F808E0DEF808E0C0F808E0CEF80C1098
:106D0C000168013901605968E0E5002C3FF4B0AE30
:106D1C00D0F804C0DCF80CC0C0F804C0CCF80820D3
:106D2C000268013A02605A68A2E6002C3FF4A0AE59
:106D3C00D0F808C0DCF808C0C0F808C0CCF80C20AB
:106D4C000268013A02605A6892E6DBF80820D268C1
:106D5C0012689047DBF80820526912680292CBF84F
:106D6C000C20019BF5E6DBF80820D26812689047EE
:106D7C00DBF80820526912680492CBF80C20019BB6
:106D8C0011E7DBF80820D26812689047DBF808207E
:106D9C00126A12680392CBF80C20019BEEE6DBF82A
:106DAC000820D26812689047DBF8082052691278E4
:106DBC0005928BF80C20019B0AE74FF0000841E587
:106DCC00019201F06BF90721029106230221039332
:106DDC0004914FF0010B0025019A85E55800002025
:106DEC006CCC200068CC20008CCC2000BCCC2000CB
:106DFC0010CC200030CC20002DE9F047C36A8AB0BB
:106E0C0005460E461746002B00F0F380DFF84405CC
:106E1C0001F0ECF8EB6A186801F0E8F8DFF83805D7
:106E2C0001F0E4F8DFF8340501F0E0F80A23AB6177
:106E3C00EB6A1C68204601F077FB0923C21D8DF814
:106E4C002030D2B240F22C038DF81820C0F2280367
:106E5C001B6809940793DFF808351868002A51D08D
:106E6C0012F0030F08BF134604D01346013313F07E
:106E7C00030FFBD103F1040C4368BCF10F0F98BF57
:106E8C004FF0100C002B00F0588259680CF1100ECA
:106E9C00714508D2614506D0DB68002B00F04D82AD
:106EAC0059687145F6D3CCEB01015960C168CCEB44
:106EBC000101C1605968B9B9D0F800E0BEF1010F09
:106ECC0000F062819C68002C00F0E481D3F80C8007
:106EDC00B8F1000F00F0EF81C4F80C80D9688C6019
:106EEC0001680139016059681B6803EB010909F15C
:106EFC00040409F1050A09F1060843F801C009F177
:106F0C000A0906E04FF006094FF002084FF0010A9B
:106F1C0014462046002101F075FA3B2323709DF89E
:106F2C0018308AF80030079BC8F800309DF82030E4
:106F3C0089F800309DF82030023B072B46D8DFE85B
:106F4C0013F01C01180145000C0145000800450018
:106F5C002001099B986803681B689847E071099B9E
:106F6C009B882381099B9B79A372099B9A68D2F811
:106F7C000480B8F1000F00F08A81414611F8012B12
:106F8C0004F10B0001F0F2F9099B98F800809A6863
:106F9C0008F10B08D2F808A0BAF1000F0BD051463B
:106FAC0004EB080011F8012B01F0E0F99AF800301D
:106FBC00984406ABDB68D3F800A0504601F0B4FA55
:106FCC005146024604EB080001F070FA6B699DF81B
:106FDC00182018680368023200929D6931463A46BF
:106FEC002346A84714B1204601F05CF80AB0BDE86E
:106FFC00F087DC4800F0FAFFAB6A0A241B681868BB
:10700C0000F0F4FFD44800F0F1FFD44800F0EEFF9C
:10701C00AB6AAC615B68AB62002B00F00481D248B8
:10702C0000F0E4FFAB6A1B68186800F0DFFFCA4889
:10703C0000F0DCFFC94800F0D9FFAB6A07221B68DF
:10704C00AC618DF808208DF8102040F22C02C0F2B3
:10705C00280212680593039218689C6801F064FA80
:10706C006268A36812781B78D218D2B20B3212184D
:10707C00BB4BD2B28DF808201868002A00F0CB80E8
:10708C0012F0030F08BF134604D01346013313F05C
:10709C00030FFBD103F1040C4368BCF10F0F98BF35
:1070AC004FF0100C002B00F03C8159680CF1100EC5
:1070BC008E4508D9614506D0DB68002B00F0318184
:1070CC0059687145F6D3CCEB01015960C168CCEB22
:1070DC000101C1605968B9B9D0F800E0BEF1010FE7
:1070EC0000F0D0809C68002C00F0F980D3F80C8064
:1070FC00B8F1000F00F00481C4F80C80D9688C60E2
:10710C0001680139016059681B6803EB010909F139
:10711C00040409F1050A09F1060843F801C009F154
:10712C000A092046002101F06DF93B2323709DF8DC
:10713C0008308AF80030039BC8F800309DF81030F6
:10714C0089F800309DF81030023B072B5DD8DFE842
:10715C0003F0928E5C825C205C96099BD3F80080D5
:10716C00404601F0E1F941460246E01D01F09EF96E
:10717C002CE7099BD3F80480F2E79DF82130E371EA
:10718C0024E7DDF82480EBE74160816001605968F9
:10719C00AAE6059B986803681B689847E071059BF5
:1071AC009B882381059B9B79A372059B9A68D2F8D7
:1071BC000480B8F1000F00F08F80414611F8012BCC
:1071CC0004F10B0001F0D2F8059B98F800809A6846
:1071DC0008F10B08D2F808A0BAF1000F0AD05146FA
:1071EC0004EB080011F8012B01F0C0F89AF80030FC
:1071FC009844059BD3F800A0504601F095F95146F0
:10720C00024604EB080001F051F96B699DF8082067
:10721C0018680368DFE64FF006094FF002084FF0DC
:10722C00010A14467DE7514800F0E0FE6B6A1B68CA
:10723C00186800F0DBFE484800F0D8FE474800F024
:10724C00D5FE6B6AAC615B6828466B6231463A4688
:10725C00FFF746F8CAE6059BD3F80080404601F0DC
:10726C0063F941460246E01D01F020F9CDE7059B8C
:10727C00D3F80480F2E79DF81130E371C5E7DDF82F
:10728C001480EBE741608160016059683CE74FF086
:10729C000B087FE6BEF1000F3FF426AED0F804E0F9
:1072AC00DEF80CE0C0F804E0CEF8081001680139F3
:1072BC000160596818E6BEF1000F3FF415AED0F826
:1072CC0008E0DEF808E0C0F808E0CEF80C10016821
:1072DC0001390160596807E64FF00B087AE7BEF1F7
:1072EC00000F3FF411AFD0F804E0DEF80CE0C0F86A
:1072FC0004E0CEF80810016801390160596803E711
:10730C00BEF1000F3FF400AFD0F808E0DEF808E063
:10731C00C0F808E0CEF80C1001680139016059681A
:10732C00F2E601924FF0060900F0B8FE4FF00208A9
:10733C004FF0010A0024019AF3E601924FF006097E
:10734C0000F0ACFE4FF002084FF0010A0024019A45
:10735C00DFE500BFD0CC2000D0CB200068CC2000D3
:10736C0058000020E4CC200008CD200020CD2000C7
:10737C002DE9F047836A8DB005460E461746002B63
:10738C0000F0FD80DFF8640500F030FEAB6A1B688E
:10739C00186800F02BFEDFF8580500F027FEDFF828
:1073AC00540500F023FE0A23AB61AB6A07221B686D
:1073BC008DF818208DF8202040F22C02C0F2280203
:1073CC0012680993079218689C6801F0ADF862681E
:1073DC00A36812781B78D218D2B20B321218DFF8CD
:1073EC001835D2B28DF818201868002A51D012F036
:1073FC00030F08BF134604D01346013313F0030FD9
:10740C00FBD103F1040C4368BCF10F0F98BF4FF094
:10741C00100C002B00F05E8259680CF1100E7145B7
:10742C0008D2614506D0DB68002B00F05382596806
:10743C007145F6D3CCEB01015960C168CCEB01016D
:10744C00C1605968B9B9D0F800E0BEF1010F00F085
:10745C0057819C68002C00F0EA81D3F80C80B8F1BD
:10746C00000F00F0F581C4F80C80D9688C600168BD
:10747C000139016059681B6803EB010909F1040427
:10748C0009F1050A09F1060843F801C009F10A09D6
:10749C0006E04FF006094FF002084FF0010A1446BF
:1074AC002046002100F0AEFF3B2323709DF81830DE
:1074BC008AF80030079BC8F800309DF8203089F816
:1074CC0000309DF82030023B072B45D8DFE813F045
:1074DC0011010D0144000101440008004400150194
:1074EC00099B986803681B689847E071099B9B8807
:1074FC002381099B9B79A372099B9A68D2F804801B
:10750C00B8F1000F00F09081414611F8012B04F105
:10751C000B0000F02BFF099B98F800809A6808F18B
:10752C000B08D2F808A0BAF1000F0AD0514604EBB0
:10753C00080011F8012B00F019FF9AF8003098445C
:10754C00099BD3F800A0504600F0EEFF51460246CE
:10755C0004EB080000F0AAFF6B699DF8182018686E
:10756C000368023200929D6931463A462346A84789
:10757C0014B1204600F096FD0DB0BDE8F087DF4851
:10758C0000F034FD6B6A0A241B68186800F02EFDAD
:10759C00D74800F02BFDD74800F028FD6B6AAC6192
:1075AC005B686B62002B00F0FB80D54800F01EFD81
:1075BC006B6A1B68186800F019FDCD4800F016FDC9
:1075CC00CC4800F013FD6B6AAC611C68206800F0BD
:1075DC00ABFF0523C21D8DF81030D2B240F22C0344
:1075EC008DF80820C0F228031B6805940393C24B46
:1075FC001868002A00F0CC8012F0030F08BF134665
:10760C0004D01346013313F0030FFBD103F1040C28
:10761C004368BCF10F0F98BF4FF0100C002B00F01B
:10762C004D8159680CF1100E8E4508D9614506D074
:10763C00DB68002B00F0428159687145F6D3CCEB26
:10764C0001015960C168CCEB0101C1605968B9B93D
:10765C00D0F800E0BEF1010F00F0E1809C68002C36
:10766C0000F00A81D3F80C80B8F1000F00F01581FE
:10767C00C4F80C80D9688C600168013901605968C4
:10768C001B6803EB010909F1040409F1050A09F16E
:10769C00060843F801C009F10A092046002100F050
:1076AC00B1FE3B2323709DF808308AF80030039B11
:1076BC00C8F800309DF8103089F800309DF8103073
:1076CC00023B072B5ED8DFE803F0A39F5D935D20A0
:1076DC005DA7099BD3F80080404600F025FF41468A
:1076EC000246E01D00F0E2FE36E7099BD3F8048069
:1076FC00F2E79DF82130E3712EE7DDF82480EBE70B
:10770C004160816001605968B5E6059B9868036823
:10771C001B689847E071059B9B882381059B9B798F
:10772C00A372059B9A68D2F80480B8F1000F00F0A0
:10773C00A080414611F8012B04F10B0000F016FE5D
:10774C00059B98F800809A6808F10B08D2F808A0FD
:10775C00BAF1000F0BD0514604EB080011F8012BC5
:10776C0000F004FE9AF80030984402ABDB68D3F8C2
:10777C0000A0504600F0D8FE5146024604EB08002B
:10778C0000F094FE6B699DF8082018680368E8E621
:10779C004FF006094FF002084FF0010A14467CE73F
:1077AC00584800F023FC2B69586800F01FFC504827
:1077BC0000F01CFC4F4800F019FCAC61524800F082
:1077CC0015FC4C4800F012FC0723AC618DF82830F6
:1077DC000B238DF8303040F22C03C0F228031B68C9
:1077EC0028460B930AA932463B46FEF7C3F8C3E67C
:1077FC00059BD3F80080404600F096FE41460246B9
:10780C00E01D00F053FEBDE7059BD3F80480F2E7C2
:10781C009DF81130E371B5E7DDF81480EBE74160BA
:10782C008160016059682BE74FF00B0879E6BEF1D7
:10783C00000F3FF420AED0F804E0DEF80CE0C0F806
:10784C0004E0CEF80810016801390160596812E6AD
:10785C00BEF1000F3FF40FAED0F808E0DEF808E000
:10786C00C0F808E0CEF80C100168013901605968C5
:10787C0001E64FF00B0869E7BEF1000F3FF400AFD3
:10788C00D0F804E0DEF80CE0C0F804E0CEF8081004
:10789C000168013901605968F2E6BEF1000F3FF44E
:1078AC00EFAED0F808E0DEF808E0C0F808E0CEF85B
:1078BC000C100168013901605968E1E601924FF042
:1078CC00060900F0EBFB4FF002084FF0010A002410
:1078DC00019AE2E601924FF0060900F0DFFB4FF04F
:1078EC0002084FF0010A0024019AD9E508CD2000C6
:1078FC00D0CB200068CC20005800002020CD2000E8
:10790C00B8CB2000D4CB2000F4CB20002DE9F047DD
:10791C00044690B0084616461F46FEF72FF990F81D
:10792C0008800546B8F1020F2AD0B8F1040F00F018
:10793C008E80B8F1060F00F09B80B8F1080F6DD067
:10794C00B8F10A0F00F0B180B8F10C0F05D0284641
:10795C0000F026FC10B0BDE8F0875F4800F046FB55
:10796C000A265E4800F042FB5D48A66100F03EFB33
:10797C005A4800F03BFB0123A66184F82030E6E76F
:10798C00584800F033FB4FF00A085448A14600F069
:10799C002DFB49F8188F544800F028FB697A6A4689
:1079AC00484600F0C1FC10AB1818002300F8403C0E
:1079BC00684600F01BFB494800F018FB6B7AEA465E
:1079CC00C4F81880002B5FD1484800F00FFB2369E6
:1079DC00586800F00BFB464800F008FB3F4800F0ED
:1079EC0005FBC4F81880D4F81080D8F8040000F017
:1079FC009BFD032307308DF8083040F22C038DF8E3
:107A0C000000C0F228031B682046019369463246E9
:107A1C003B46CDF80C80FDF7ADFF98E7354800F0FC
:107A2C00E5FA2E4800F0E2FA0A23A361A36A1B6868
:107A3C00986803681B689847032847D0A36A5B685B
:107A4C00A362204631463A46FFF792FC7FE72A486C
:107A5C0000F0CCFA214800F0C9FA0A23A36123698B
:107A6C002046DB68314663623A46FEF739FC6EE726
:107A7C00224800F0BBFA194800F0B8FA0A23A361B7
:107A8C00636A1B689B68DBE71D4800F0AFFA13487C
:107A9C0000F0ACFAC4F81880104800F0A7FA0123E3
:107AAC00C4F8188084F8203051E7164800F09EFA8C
:107ABC000A4800F09BFAE36AC4F818805B68E3623A
:107ACC00204631463A46FFF797F940E7A36A1B6810
:107ADC009B689B69F3E700BF50CE200068CC200068
:107AEC0078CE200044CD200060CD200074CD200045
:107AFC00D0CB200004CE2000BCCD2000E0CD200057
:107B0C0088CD20002CCE20002DE9F04F91B08DF8BF
:107B1C00002003F109091D460369D9F802201B68EE
:107B2C0082469A4217D04C4800F060FA0A244B481F
:107B3C0000F05CFACAF81840484800F057FACAF846
:107B4C001840DAF814302946186803689B6A98477D
:107B5C0011B0BDE8F08F424801AE0AF1180700F0F1
:107B6C0045FAD5F8C81032460023384600F096FB8B
:107B7C0011AA13184FF0000803F8408C304600F09F
:107B8C0035FA384800F032FA1023CAF818300124BC
:107B9C002B19997932460023384600F07FFB11AB44
:107BAC00181800F8408C304600F020FA012C37D021
:107BBC0039D90A23CAF818302B4800F017FAD5F82F
:107BCC00C830DBB14FF0000B5C46D8462748AB44BD
:107BDC0000F00CFA00239BF809103246384600F0EE
:107BEC005DFB11AA101800F8408C304600F0FEF92D
:107BFC00D5F8C8300134A342A346E7D8174800F0A3
:107C0C00F5F90A23CAF818306B7A3A2B18D03B2BAB
:107C1C000BD0124800F0EAF90A23CAF8183090E7A2
:107C2C00134800F0E3F90134B2E79AF82030002B46
:107C3C00EFD1EA1D504649466B46FFF767FEE8E771
:107C4C009AF82030002BE4D0EA1D504649466B468A
:107C5C00FEF7A4FDDDE700BFB0CE200068CC20000D
:107C6C00C8CE2000D4CE2000F0CE200040CD200085
:107C7C00ECCE200070B500F081FCBA494B68002BAB
:107C8C0000F059815A6846F20300824209D8B2F5D5
:107C9C00C04F06D0DB68002B00F04D815A68824241
:107CAC00F5D9A2F5C0425A60CA68AE48A2F5C042E6
:107CBC00CA605A6892B90468012C00F0EF80996888
:107CCC00002900F01E81DD68002D00F02881CD60B8
:107CDC00DA6891600268013A02605A681968DFF844
:107CEC0088C200238C18CCF80030CCF80430CCF8C7
:107CFC000830CCF80C304CD04FF4C0408C50606045
:107D0C00A360E360DCF80C301B18CCF80C30DCF80A
:107D1C00043051F802E06068002B00F0A7801D6869
:107D2C007044A8420CBF1A461A4604D0D26812B14D
:107D3C0011688842FAD159686D18AE4508D0DB68D5
:107D4C00002B00F092801868596841188E45F6D1C6
:107D5C0019461346C3B160685A6882186260DCF831
:107D6C000000012800F092809A68002A00F09B80A5
:107D7C00DD68002D00F0A680D560DB689A60DCF829
:107D8C000030013BCCF8003019B14A686368D31855
:107D9C004B60764BC3F800C000F030FD00F04AFE9B
:107DAC00734B002293E8300043F24803C4F2030300
:107DBC001968704B55181868234643F1000644F6B1
:107DCC006D63C4F2C61305FB03F505F54055036856
:107DDC003935694CB5F1FF3F28BF0135DB6A2560A9
:107DEC0098470378002B40F098804178003918BFF1
:107DFC00012149F20043C4F20D031A6822F020025B
:107E0C001A6044F29402C4F20D020123136047F28B
:107E1C000802C4F20D02B523136047F20002C4F24B
:107E2C000D02136813F0800FFBD047F21002C4F25E
:107E3C000D02136847F20C02C4F20D02126881EABB
:107E4C00050502EB032244F66D63C4F2C61303FB73
:107E5C0005F505F540553935B5F1FF3F28BF01351E
:107E6C0042F30B135D40256070BD1346DCF8001027
:107E7C00002936D1A160E160DCF80020CCF8044088
:107E8C000132CCF80840CCF8002063E70023CCF892
:107E9C000430CCF80830CCF8003075E742608260D2
:107EAC0002605A681AE700283FF46EAFDCF8043021
:107EBC00DB68CCF804309A60DCF80030013BCCF87D
:107ECC00003061E700283FF45FAFDCF808309B68B6
:107EDC00CCF80830DD60DCF80030013BCCF8003029
:107EEC0052E7DCF808200021D460DCF80820E160BF
:107EFC00A260DCF80020CCF808400132CCF800205D
:107F0C0028E7002C3FF4EAAE4168C96841608A60FA
:107F1C000268013A02605A68E0E6012169E7002C28
:107F2C003FF4DCAE816889688160CA600268013AFE
:107F3C0002605A68D2E6114C01232371104800F0FC
:107F4C0055F8104800F052F8DFF81CC00A232360E3
:107F5C000023CCF80030CCF80430CCF80830CCF846
:107F6C000C3016E7980C0020480000205800002028
:107F7C00A80C0020E801002064000020380000203C
:107F8C00F4CE200068CC200000B500F0D7FB40F206
:107F9C00B0130022C2F200031A6040F2AC13C2F21A
:107FAC0000031A6040F24003C2F200030A211A7166
:107FBC00196040F23803C2F2000319601A7100BD57
:107FCC0040F25C03C2F2000300221A605A60704750
:107FDC0000B5004602F096F800BD00BF00B502F0F7
:107FEC0091F800BD00B503F069FF00BD2DE9F04527
:107FFC00002507467C5D1C4EAA46DFF8708084B1D4
:10800C00092C29D00A2C18D0336820460133336050
:10801C0003F0B4FF33684F2B05DC01357C5D002C7D
:10802C00EED1BDE8F0850D2003F0A8FF0A2003F087
:10803C00A5FF0135C6F800A0F0E70D2003F09EFF68
:10804C00204603F09BFFD8F80030C6F800A001339F
:10805C00C8F800300135E1E7204603F08FFF3368A4
:10806C00013508333360D9E7AC010020B0010020A2
:10807C0010B54CF60C7040F238040123C2F2000427
:10808C00C0F220002371FFF7B1FF4CF66840C0F23C
:10809C002000FFF7ABFF0A23236010BD00B5FFF7EC
:1080AC00A1FF00BD3D4B70B41D6850F8043C041F8B
:1080BC000F2B41D9002240F8044C6360A260E260AF
:1080CC00EA68D318EB606B6850F804CC6068002B3E
:1080DC0035D01E686044B0420CBF1A461A4604D014
:1080EC00D26812B111688842FAD159687618B44531
:1080FC0007D0DB68002B21D01868596841188C45D3
:10810C00F7D11946134693B160685A6882186260B9
:10811C00286801281DD09A68002A1FD0DE68002E1E
:10812C0031D0D660DB689A602B68013B2B6019B1AB
:10813C004A686368D3184B6070BC70471346296853
:10814C00B1B9A160E1602A686C600132AC602A6050
:10815C00D9E700236B60AB602B60E8E70028E6D022
:10816C006B68DB686B609A602B68013B2B60DEE709
:10817C00AA680021D460AA68E160A2602A68AC6099
:10818C0001322A60BFE70028D1D0AB689B68AB6096
:10819C00DE602B68013B2B60C9E700BF5800002054
:1081AC003D4B70B41D6850F8043C041F0F2B41D993
:1081BC00002240F8044C6360A260E260EA68D318C5
:1081CC00EB606B6850F804CC6068002B35D01E68EF
:1081DC006044B0420CBF1A461A4604D0D26812B1A1
:1081EC0011688842FAD159687618B44507D0DB6813
:1081FC00002B21D01868596841188C45F7D11946C5
:10820C00134693B160685A68821862602868012826
:10821C001DD09A68002A1FD0DE68002E31D0D6609F
:10822C00DB689A602B68013B2B6019B14A68636864
:10823C00D3184B6070BC704713462968B1B9A16064
:10824C00E1602A686C600132AC602A60D9E70023D7
:10825C006B60AB602B60E8E70028E6D06B68DB68EE
:10826C006B609A602B68013B2B60DEE7AA680021EB
:10827C00D460AA68E160A2602A68AC6001322A600E
:10828C00BFE70028D1D0AB689B68AB60DE602B6881
:10829C00013B2B60C9E700BF5800002070B40029D7
:1082AC003BD0B1F5807F1BD9D0F800C0BCF1080FD2
:1082BC0014BF00240124BCF1100F08BF44F00104CA
:1082CC0084B14FF0300C02F803C0D0F800C0013379
:1082DC00BCF1100F06D14FF0780C02F803C001333B
:1082EC00D0F800C00C465D1CB4FBFCF41E462B46BB
:1082FC00002CF8D10B4C9219B1FBFCF30CFB131CAA
:10830C0014F80C3002F80139D0F800C0B1FBFCF1C4
:10831C000029F1D1284670BC70473021D154581C2B
:10832C00F9E700BF28CF2000002900B503DB0023AC
:10833C00FFF7B4FF00BD2D23137049420123F7E76B
:10834C00302310B41370084C78235370072301F0BA
:10835C000F0C14F80CC0D0180909013B80F802C0AE
:10836C00F5D20A2010BC704728CF20000F2A30B459
:10837C0005460C4642D941EA000313F0030F02BF35
:10838C0014468C46034609D0002314F803C005F8A4
:10839C0003C001339A42F8D130BC7047DCF800506E
:1083AC00103C1D60DCF804505D60DCF808509D60EA
:1083BC00DCF80C500CF1100CDD6010330F2CEDD8E8
:1083CC00A2F1100404F00F0224F00F04103405196C
:1083DC000C19032A12D9002354F803C045F803C022
:1083EC000433C3EB020CBCF1030FF5D8043A22F0B2
:1083FC0003030433ED18E41802F00302002AC3D17E
:10840C00CAE700BF10F0030F30B403460DD0002AAA
:10841C004AD0013A5FFA81FC02E0002A44D0013ACA
:10842C0003F801CB13F0030FF7D1032A32D901F073
:10843C00FF040F2A44EA04241D4644EA044484BF82
:10844C009C46154616D9103D0F2DCCF80040CCF8A3
:10845C000440CCF80840CCF80C400CF1100CF2D8CD
:10846C00A2F1100C2CF00F0510350CF00F025D1959
:10847C00032A0ED90023EC500433C3EB020CBCF1DD
:10848C00030FF8D8043A22F003030433ED1802F07A
:10849C0003022B4642B1C9B24FF0000C03F80C108A
:1084AC000CF1010C6245F9D130BC704741EA000374
:1084BC0013F0030F14BF00230123032A94BF0023DE
:1084CC0003F0010310B4002B2CD00346D1F800C0EC
:1084DC00ACF1013424EA0C0414F0803F1BD0C2B17F
:1084EC000C789C46013A0CF8014B54B1023382B122
:1084FC0011F8014F9C4603F8014C013A0133002C52
:10850C00F5D132B1002319460CF8031001339A420D
:10851C00FAD110BC7047043A0431032A43F804CB57
:10852C00DDD9D3E70346DAE710F0030F08BF0346A3
:10853C0009D0037803B3034601E01A78D2B10133B2
:10854C0013F0030FF9D11A68A2F1013121EA0202EA
:10855C0012F0803F08D153F8042FA2F1013121EA27
:10856C00020212F0803FF6D01A781AB113F8012FDC
:10857C00002AFBD1181A70471846FCE700B500F02A
:10858C0003F800F095F800BDDFF81CC147F2F83293
:10859C00C2F20002CCEB020270B4002A4AD00023D3
:1085AC00424DCCF800C0CCF80420CCF80830CCF804
:1085BC000C30EB686446D318EB606B68002B3CD036
:1085CC001E680CEB8200B0420CBF1A461A4604D04F
:1085DC00D26812B111688842FAD1596806EB81064B
:1085EC00B44208D0DB68002B26D05868196801EB20
:1085FC0080018C42F6D119461346ABB1DCF804006D
:10860C005A688218CCF804202C68284A012C23D0F4
:10861C009868002825D0DD68002D3AD0C560DB684D
:10862C0098601368013B136021B14A68DCF8043090
:10863C00D3184B6070BC704713462A681B48D2B9DC
:10864C000121CCF80820CCF80C200160C0F804C043
:10865C00C0F808C01146D0E7002353609360136044
:10866C00E2E7002CE0D05368DB6853609860136835
:10867C00013B1360D8E781680132C1F80CC08168F6
:10868C00CCF808100021CCF80C10C0F808C002601F
:10869C00B3E7002CC8D093689B689360DD601368C7
:1086AC00013B1360C0E700BFB00C0020980C002009
:1086BC0043F20C03C4F203031A68122022F00102E5
:1086CC001A6042F20802C4F20D02116841F008016E
:1086DC00116042F20C02C4F20D02116841F0080163
:1086EC00116042F21002C4F20D02116841F008014F
:1086FC00116043F200020021C4F20302116043F244
:10870C000402C4F20302106043F22802C4F2030212
:10871C004FF0FF30106043F23802C4F203021160D4
:10872C0043F21802C4F20302116841F00101116016
:10873C001A6842F001021A60704700BF4CF22043E5
:10874C00C4F20D031A6822F0C0021A604CF2004306
:10875C00C4F20D031A6822F0C0021A6044F2F80346
:10876C000122C4F20D031A6044F2FC03C4F20D039F
:10877C001A6042F20002C4F20D0211684FF6F8734F
:10878C00CFF6DC6301EA030343F4081342F204015D
:10879C001360C4F20D010A6840F20003C0F2011329
:1087AC0002EA0303002BF6D142F20003C4F20D03DC
:1087BC001A6822F4E0621A6042F20402C4F20D025A
:1087CC00136813F0806FFBD0704700BF4EF6145344
:1087DC00CEF200031A6842F001021A6042F29803CA
:1087EC00C4F20D031A6842F001021A604EF60853E7
:1087FC00CEF200034FF401121A60704700B5FFF778
:10880C00E5FF00F0AFFD00F019F800F09BF800F068
:10881C0009F800F001F800BD00B5002000F084FC60
:10882C0000BD00BF044B082203F5807183F80028BB
:10883C0001338B42FAD17047740300204EF21003BF
:10884C004EF21802CEF200030021CEF200021960A3
:10885C0011604EF21402CEF200024FF4FA41116094
:10886C0006221A604BF6557140F27422C2F20002D5
:10887C00C0F22001D1631A6842F001021A607047FD
:10888C0040F26D030022C2F200031A7040F26C0336
:10889C00C2F200031A7040F26803C2F20003022114
:1088AC00196040F68843C2F200031A6040F6944304
:1088BC00C2F2000349F2380C1A60C4F2080C03230C
:1088CC0049F2400049F24C01CCF8003030B4C4F20B
:1088DC0008000424C4F2080149F244030460C4F201
:1088EC0008030A601D6845F040051D601D6845F0D1
:1088FC0008051D601D6845F008051D602023CCF897
:10890C00004002600B6049F25003C4F208031A687D
:10891C0042F080021A601A6842F010021A6049F2A2
:10892C001C03C4F2080301221A6049F22403C4F2A6
:10893C0008031A6049F22C03C4F208031C6030BC13
:10894C00704700BF4BF22043C4F20D031A682DE9A7
:10895C00F04822F004021A604BF20043C4F20D03FB
:10896C001A6842F004021A604BF21003C4F20D03B1
:10897C00FF221A6049F23C02C4F20802136843F069
:10898C0001031360136843F002031360136813F0C0
:10899C00800FFBD049F20403C4F208031A6822F0DA
:1089AC0001021A60FFF76CFF1D4B01221A601D4A71
:1089BC001D4BC3F8F0204EF20413CEF200034FF41B
:1089CC0080521A60EFF31087FFB207B162B61748F6
:1089DC0043F24806C4F2030690E8001831680022FE
:1089EC005B4612EB010B49F20002C0F2D03243F1AC
:1089FC00000C00231BEB020B4CEB030C90E80C005F
:108A0C00316800241546621845F100039C45F5D8E1
:108A1C0001D19345F2D807B162B6BDE8F08800BF2A
:108A2C006800002015C1200074020020A80C002052
:108A3C00704700BF00B500F0EDFC00F001F800BD80
:108A4C0010B5324B186841680B46002959D04A685A
:108A5C00272A07D8182A05D0DB68002B51D05A6872
:108A6C00272AF7D9183A5A60C268183AC2605A686D
:108A7C0092B9D0F800C0BCF1010F21D09C68002C39
:108A8C0026D0D96800292FD0E160DA680CF1FF3CC0
:108A9C00C0F800C094605A68196818208B18885068
:108AAC000433012119721A4900221A6019610A2231
:108ABC0018495A60086840B1DA60174A136010BD53
:108ACC000260426082605A68E6E70B605A68F3E71E
:108ADC00BCF1000FE0D0C9680CF1FF3CC0F800C03D
:108AEC0041608A605A68D7E7BCF1000FD4D0816826
:108AFC000CF1FF3C8968C0F800C08160CA605A68FC
:108B0C00CAE7FFF7CBFA0023CBE700BF58000020E1
:108B1C00399E2000740C0020880100202DE9F047BC
:108B2C0072B6454A1368116813F0080F21EA030165
:108B3C00116003D0414A11680131116013F0020F2A
:108B4C0070D0DFF8FC80D8F80030002B6AD048F6E3
:108B5C0010024FF0000CC4F20802384F48F614040F
:108B6C00C2F800C0C4F208043E68D4F800A048F66D
:108B7C001804C4F20804D4F8009032024FEA092910
:108B8C001CEB090442F1000514EB0A0148F624041D
:108B9C00C4F20804D4F800A045F100024FEA0A44DC
:108BAC00091948F62004C4F208044FEA1A45D4F80F
:108BBC0000A042EB05024FEA0A64091948F61C04AE
:108BCC004FEA1A25C4F2080442EB0502D4F800A0BF
:108BDC0011EB0C01D7F800C042EB0A02664505D038
:108BEC0000244FF48075091942EB0502DFF854C0DC
:108BFC009CE83000954215D812D00022C8F800200D
:108C0C0048F60802C4F208020821116062B69847BF
:108C1C004EF20013CEF200034FF080621A6009E0AE
:108C2C008C42EAD94EF20013CEF200034FF0806270
:108C3C001A6062B6BDE8F087E4010020D001002084
:108C4C00BC010020B401002040F2C8130021002216
:108C5C00C2F2000383E8060040F2DC13C2F2000308
:108C6C0083E8060040F2C013C2F2000383E806005A
:108C7C0048F60403C4F208031A6848F60C0122F003
:108C8C0001021A6048F60802C4F208020020C4F27D
:108C9C00080110600860196848F6293021F00201BB
:108CAC0019601968C0F2200041F00801196040F207
:108CBC007421C2F20001C1F8C4004EF20411CEF2CC
:108CCC00000102200860116841F0080111601A6867
:108CDC0042F001021A6070472DE9F001D4B20C7217
:108CEC0046680023CB6049600F1D002E22D0D0F8BF
:108CFC00088098F80430A34222D8D8F808308BB1F9
:108D0C00454693F804C0A44507D9CDB10136AF60F0
:108D1C004660CB60BDE8F00170479A6812B11D4601
:108D2C001346EEE7C36801369F600023CB604660B4
:108D3C00C760EFE70123CE6043608760C760E9E757
:108D4C000136C1F80C8046608760E3E710B44468D4
:108D5C00012C17D0836801F1040C9C4517D04BB142
:108D6C009A682AB1944503D013469268002AF9D127
:108D7C00CA689A60C268944508BFC360013C4460ED
:108D8C0010BC704700238360C3604360F8E7002C7D
:108D9C00F6D0CB68013C83604460F1E7F0B58468A1
:108DAC0006461746CDB29CB1002001E0A46874B110
:108DBC002379AB42FAD12068314603682A46D3F8AE
:108DCC0000C03B46E047A4680120002CF0D1F0BD68
:108DDC002046FCE78368C9B27BB1002001E09B68A8
:108DEC0043B193F804C08C45F9D122B918689B683B
:108DFC00002BF6D17047013AF1E71846FAE700BFAD
:108E0C00C64BE222036048F63803C4F208031A602A
:108E1C00EF221A6048F28C622DE9F041C4F208028C
:108E2C000026166048F29062C4F20802166048F2FE
:108E3C009462C4F20802166048F258620446466016
:108E4C008660C660C4F20802F820106048F2E8722E
:108E5C00C4F208020920106048F2C862C4F2080289
:108E6C001520106048F60402C4F208020B201060B2
:108E7C0048F2B862C4F2080201201060EE221A60B7
:108E8C00ED221A6048F25463C4F208031A68A44F26
:108E9C0022F001021A6048F28C53C4F208031E60DF
:108EAC0048F25063FF22C4F208031A6048F2406390
:108EBC00C4F208031A6048F29473C4F208031A60EF
:108ECC0048F63403C4F208031E6048F63003C4F2BB
:108EDC0008031E6048F62C03C4F208031E60914B75
:108EEC0021612360E66126626662A662E66235460F
:108EFC0026634FF0E0086663A663E663C4F89060EF
:108F0C00C4F89460386843683BB15A68EF2A08D8B3
:108F1C00E02A06D0DB68002BF7D1FFF7BFF800235F
:108F2C0023E0E03A5A60C268E03AC2605A68BAB9C3
:108F3C00D0F800C0BCF1010F00F0D1809968002975
:108F4C0000F0D280D3F80CE0BEF1000F00F0D98015
:108F5C00C1F80CE0DA6891600268013A02605A6864
:108F6C0019688B1841F80280043349F641021A80C3
:108F7C00A2190436502E83F8BC50C3F8C050C3F865
:108F8C00C850C3F8CC30C3F8D050C3F8D430C3F8B1
:108F9C00D8501364B6D140F22C03C0F228031A78CF
:108FAC0040F22D03C0F22803197840F22E035140F1
:108FBC002175C0F228031A7840F22F03C0F228035F
:108FCC001B7848F2246683EA020248F2D053C4F2BA
:108FDC0008036275196048F2D453C4F208031A608E
:108FEC0048F20463C4F208031A68C4F2080622F0BB
:108FFC0020021A603368204643F04003336048F285
:10900C000063C4F208031A6842F001021A6048F2C5
:10901C000863C4F208031A6842F001021A6033684C
:10902C00402243F02003336048F23063C4F208035B
:10903C001A601A23A36148F23C63C4F20803562257
:10904C001A6001F0CFF948F63403C4F208031D602E
:10905C0048F63003C4F208031D6048F62C03C4F232
:10906C0008031D6048F28C63C4F2080304221A60E2
:10907C0048F29062C4F20802156048F29462C4F29D
:10908C0008020C21116042F2A802C4F20D02116810
:10909C0041F00101116042F2AC02C4F20D02116800
:1090AC0041F00101116042F2B002C4F20D021168EC
:1090BC0041F001011160326822F00C0232601A6832
:1090CC0022F004021A601A6842F004021A6048F690
:1090DC003803C4F20803E3221A60BDE8F081426051
:1090EC00826002605A683BE7BCF1000F3FF438AF76
:1090FC004168C96841608A600268013A02605A6836
:10910C002EE7BCF1000F3FF42BAF816889688160BA
:10911C00CA600268013A02605A6821E79CCF2000BD
:10912C005800002068D0200042F2A803C4F20D03BE
:10913C001A6870B542F001021A6042F2AC03C4F234
:10914C000D031A68044642F001021A6042F2B003A1
:10915C00C4F20D031A6842F001021A60FFF774FDA5
:10916C00344B186841680B4600295FD04A68AB2A1B
:10917C0007D89C2A05D0DB68002B57D05A68AB2A3D
:10918C00F7D99C3A5A60C2689C3AC2605A6872B964
:10919C000568012D32D09E68002E34D0D968002984
:1091AC003AD0F160DA68013D056096605A681B6838
:1091BC009C219D189950043521462846FFF720FE26
:1091CC001D4B04EB440403EB840243F824502A2186
:1091DC00013443F824102B239360184B184A43F89E
:1091EC002120C3F8AC204EF20013CEF200034FF056
:1091FC0080621A604FF000621A6070BD02604260BB
:10920C0082605A68D3E7002DD1D0C968013D056052
:10921C0041608A605A68CAE7002DC8D08168013D58
:10922C00896805608160CA605A68C0E7FEF736FF3E
:10923C000025C1E758000020E8010020740200203E
:10924C0029A7200040F6A843C2F200034DF804BD44
:10925C0093E806004FF0010B11EB0B014FF0000CE3
:10926C0042EB0C0283E806005DF804BB704700BFBC
:10927C0049F21803C4F208031A6840F67C43C2F2A0
:10928C000003196841EA02021A6049F20803C4F2A9
:10929C0008031A6840F68043C2F20003196841EAD9
:1092AC0002021A6049F21003C4F208031A6840F66D
:1092BC008443C2F20003196841EA02021A60704743
:1092CC0048F60C0340F2E412C4F20803C2F20002A6
:1092DC001968106840EA0101116000221A604EF210
:1092EC008013CEF200034FF080621A604EF280239E
:1092FC00CEF200031A6070474EF28413CEF20003D4
:10930C0002221A604EF28423CEF200031A607047D8
:10931C000368232B0DD0252B13D0272B19D0332BDF
:10932C0001BF43F22403C4F203034FF0FF321A606F
:10933C00704740F22403C4F203034FF0FF321A606B
:10934C00F6E741F22403C4F203034FF0FF321A6034
:10935C00EEE742F22403C4F203034FF0FF321A602B
:10936C00E6E700BF72B64EF280134FF0FF32CEF23A
:10937C0000031A604EF28413CEF200031A601B49EC
:10938C001B4A0023CA500433B3F5807FFAD1002363
:10939C00DFF860C018464CF803000433B3F5807F47
:1093AC00144AF8D1144BC2F88C30C2F89430C2F87D
:1093BC009C30C2F8CC30114BC2F8A830104BC2F81C
:1093CC00C430104BC2F8F0300F4B136453649364E9
:1093DC00D3640E4B0822CB600D4BC1F8CC304EF24F
:1093EC000413CEF200031A60704700BF7402002011
:1093FC0085BE2000700000201D93200005932000E6
:10940C00CD9220007D92200069BD200089BE2000F5
:10941C005192200010B5314B186841680B46002959
:10942C0057D04A68272A07D8182A05D0DB68002BA2
:10943C004FD05A68272AF7D9183A5A60C268183A96
:10944C00C2605A6892B9D0F800C0BCF1010F1FD0AD
:10945C009C68002C24D0D96800292DD0E160DA68F2
:10946C000CF1FF3CC0F800C094605A6819681820D1
:10947C008B18885004331A490122196119491A6052
:10948C005A601A72486840B1DA60174A136010BD0E
:10949C000260426082605A68E8E74B605A68F3E702
:1094AC00BCF1000FE2D0C9680CF1FF3CC0F800C061
:1094BC0041608A605A68D9E7BCF1000FD6D0816848
:1094CC000CF1FF3C8968C0F800C08160CA605A6822
:1094DC00CCE7FEF7E3FD0023CDE700BF58000020EA
:1094EC0051952000740C002074010020014B036086
:1094FC00704700BFC8CF2000014B0360704700BF0E
:10950C00C8CF200040F27813C2F2000300221A6088
:10951C005A609A60704700BF00B5406800F084F94B
:10952C0000BD00BF024B00B50360FEF739FE00BD65
:10953C00C8CF2000024B00B50360FEF731FE00BD22
:10954C00C8CF2000F0B572B63F4B1A6801321A60D2
:10955C003E4A13682BB151684868013800284860AE
:10956C0007DD002362B61BB1586803689B689847F7
:10957C00F0BD012B3CD0CB68002053609860136881
:10958C00013B1360CB6823B1D3F804C04868604436
:10959C0058600B689868B0F1FF3F03D001389860B1
:1095AC000028DFD0D3F80CC02848C1F804C01668D6
:1095BC00002E35D047687C68A445B8BF3D4609DB12
:1095CC00F868F8B1C4EB0C0CC1F804C0446805464B
:1095DC00A44514DAA868002829D0CCEB040C013679
:1095EC00C5F804C0C160A960CD6088601660B9E799
:1095FC000023536093601368013B1360C2E7C0689B
:10960C000028DFD19068C4EB0C0CC1608860C1F8F5
:10961C0004C00020C8609160116801311160A1E79D
:10962C0001228E60CE600260416081609AE7CCEBD3
:10963C00040CC5F804C08860CF60B9605160116833
:10964C00013111608EE700BF70010020780100200D
:10965C0030B472B6DFF880C0DCF80410E9B10B68E6
:10966C00984218BF0B462BD0DB68B3B11A689042F6
:10967C00FAD1DCF80000184C012811D09D68002D9F
:10968C0020D0DA6892B1EA60DA680138956020601F
:10969C001AB151685B68CB18536062B630BC704726
:1096AC0000226260A2602260DA68F1E70028F4D040
:1096BC00A168013889682060A160CA60DA68E7E7B0
:1096CC000B46D6E708B9DA68E2E7CA680138626087
:1096DC0020609560DA68DBE77801002083603B4B03
:1096EC00D1F800C01B68C0F800C05B684FF47A7CEE
:1096FC00BCFBF3F344F2402CC0F20F0CBCFBF3FCAC
:10970C000B68002103EB5C03B3FBFCF3F0B5426088
:10971C00C360006143618161C16172B62BB962B6ED
:10972C00136810469B689847F0BD294C00F1100C4B
:10973C002668002E32D0676879688B42B8BF3D46E8
:10974C001ADBFA684AB15B1ACCF80430516815463A
:10975C008B421FDA436999420EDC5B1A4361A368A2
:10976C00C3F80CC083610023C3612368C4F808C02C
:10977C000133236062B6D7E7AA68CAB1CB1A0136A7
:10978C006B60C2F80CC0C5F808C0C5618261266068
:10979C0062B6C9E7D268002AD5D1DBE7012386611E
:1097AC00C6612360C4F804C0C4F808C062B6BBE745
:1097BC00CB1A6B60236882610133C761C7F808C09C
:1097CC002360C4F804C062B6AEE700BF7401002089
:1097DC007801002070B58EB008AC064600212046FA
:1097EC0000F01CF80B4B31460CAA0C936846012375
:1097FC000D94FFF773FF204600F02AF86846FFF738
:10980C0027FF054B20466D460C9300F035F80EB043
:10981C0070BD00BFB4CF2000C8CF20000023036070
:10982C0043608360C160704700B572B600F10C01F3
:10983C0051E8002F02F1010241E80023002BF7D17F
:10984C00002A01DD62B600BD00F0E4FBFBE700BFBF
:10985C0000B572B600F10C0151E8002FA2F1010223
:10986C0041E80023002BF7D1002A01DB62B600BDD2
:10987C0000F036F8FBE700BF00B572B600F0DCFA7A
:10988C0000BD00BF40F28C120023C2F20002D36074
:10989C0013605360936040F2A012C2F20002136096
:1098AC005360704712F0FF0F18BF0C4B00B51FBF71
:1098BC001B68DA685A68DA60884209D003694BB1D0
:1098CC0000230B6150F80C3FCB68C96802F09CFD7B
:1098DC0062B600BD01230361F2E700BF88010020DE
:1098EC005C492DE9F045CB68CB681A68CB68CB682E
:1098FC0002F11C069E4263D00B68012B00F08380A2
:10990C00546A002C72D0956A002D00F08180E560BD
:10991C00D2F828C0013BCCF808400B60D0F800808E
:10992C0003231361B8F1000F25D0D0F804A002F185
:10993C002007DAF80430D2F820C00AF104059C455F
:10994C002EDA5346D5F800E0D2F820C0E6451BDCF1
:10995C00836808F10108DE60536200239362C0F84B
:10996C0000808660CB685061196810460122FFF7B1
:10997C0099FFBDE8F0850123C2F82480C2F8288045
:10998C00036046608660EDE79C68002C56D008F1B9
:10999C000108E6609E6093625462C0F80080E1E7C3
:1099AC00DAF80C3023B9CCE7DC68002CCAD023469B
:1099BC00D3F804E0D7F800C01D1DE645F4DDC1E77F
:1099CC000B687BB1012B30D0D1F804C00024DCF83B
:1099DC000CE0013BC1F804E00B60CEF80840C1F884
:1099EC000CC09BE79C46C1F80CC097E7002B95D0A8
:1099FC00D1F804C0013BDCF80CC00B60C1F804C00A
:109A0C00CCF808408AE700234B608B600B6085E73D
:109A1C00002B83D0D1F808C0013BDCF808C00B60E8
:109A2C00C1F808C0CCF80C5078E7D1F804C000237A
:109A3C004B608B600B60C1F80CC06FE708F101083C
:109A4C005462C2F828A0CAF80860C0F800804660CA
:109A5C0088E700BF8C0100202DE9F045044672B662
:109A6C00614B6248196804F11C0701311960C36825
:109A7C00C368002B64D0D0F80080B8F1000F1FD061
:109A8C00D0F804A004F12006DAF80410236A0AF1D5
:109A9C000405994256DD5346D5F800C0216A8C4521
:109AAC0069DC8368DF6063620023A36203688760FC
:109ABC00013303604E4B18687AB9A260BDE8F0859B
:109ACC000123C4F82480C4F82880036047608760B1
