:020000040020DA
:10400000F87F00201D41200039B7200039B720007B
:1040100039B7200039B7200039B7200039B7200060
:1040200039B7200039B7200039B720006FB720001A
:1040300039B7200039B7200039B7200039B7200040
:1040400039B7200039B7200039B7200039B7200030
:1040500039B7200039B7200039B7200039B7200020
:1040600039B7200039B7200039B7200039B7200010
:1040700039B7200039B7200039B7200039B7200000
:1040800039B7200039B7200039B7200039B72000F0
:1040900039B7200039B7200039B7200039B72000E0
:1040A00039B7200039B7200039B7200039B72000D0
:1040B00039B7200039B7200039B7200039B72000C0
:1040C00039B7200039B7200039B7200039B72000B0
:1040D00039B7200039B7200039B7200039B72000A0
:1040E00039B7200039B7200039B7200039B7200090
:1040F00039B7200039B7200010B5074C54F8043CFC
:10410000B3F1FF3F06D0043C984754F8043DB3F1A7
:0C411000FF3FF9D110BD00BF90CA200095
:10411C0040400949094A086004319142FBDBFFF732
:10412C00E5FF00BF00F0C2F900F074FC01B408F028
:10413C000DF903F0F7FB000004000020B00C002088
:10414C00F0B5CB6881B004460D461746002B2DD038
:10415C0023602B68002623616B68666123622A69E1
:10416C00A661E4616662A66205F10801204605F0CD
:10417C0017F92B69A2686660D218A2F140034FF0C0
:10418C00807142F8401C0B4A01A942F001029A636B
:10419C0047F00102DA63204641F8047DE36069468A
:1041AC004FF4406205F078FB01B0F0BD024B1B6888
:1041BC00CEE700BF2579200084010020294B30B5C3
:1041CC00186844682246002C47D063683F2B07D8F8
:1041DC00302B11D0D268002A3FD053683F2BF7D92F
:1041EC00303B5360C1683039C16053B11268302123
:1041FC00D018D150043030BD00235360C168303921
:10420C00C160016801290BD0956875B1D468BCB147
:10421C00EC60D2F80CC00139CCF808500160E5E72D
:10422C000021416081600160E0E70029DED0D4F814
:10423C000CC00139C0F804C00160CCF80850D5E7B7
:10424C000029D3D0D0F808C00139DCF808C00160CF
:10425C00C0F808C0CCF80C40C8E703F0C3FB002042
:10426C00C9E700BF58000020F0B58CB000240A94B8
:10427C000A9B4FF4406701930094029403940497B3
:10428C00FFF79CFF44F23012C0F22002694605464B
:10429C00FFF756FF6FF000430B930B9B0126069321
:1042AC000596079408940997FFF788FF49F249622D
:1042BC00C0F2200205A9FFF743FF40F2A813C2F297
:1042CC0000031E70E86807F0A1FC0CB0F0BD00BF45
:1042DC002DE9F0076B4E7368002B76D059680029D6
:1042EC0073D0DFF8A481B24600270022D8F8005022
:1042FC005A60F268521AF2605A68BAB9DAF8004099
:10430C00012C76D09868002800F09B80D3F80CC064
:10431C00BCF1000F00F0A580C0F80CC0DA6890600A
:10432C00DAF80020013ACAF800205A681C68A41870
:10433C0049D00F2947D961602460A760E760EB681A
:10434C0059186B68E960D4F800C06068002B40D045
:10435C00D3F80090604448450CBF1A461A4604D066
:10436C00D26812B111688842FAD159688944CC4597
:10437C0007D0DB68002B2BD01868596841188C4586
:10438C00F7D119461346CBB160685A68821862603F
:10439C002868012802BF6F60AF602F600ED09A684A
:1043AC00002A2ED0D3F80CC0BCF1000F33D0C2F8C9
:1043BC000CC0DB689A602B68013B2B6019B14A6812
:1043CC006368D3184B60736873B9BDE8F007704726
:1043DC0013462968002929D1A160E1602A686C6024
:1043EC000132AC602A60CEE7596800297FF47DAFBA
:1043FC00EBE7CAF80420CAF80820CAF800205A686B
:10440C0094E70028DAD06B68DB686B609A602B68E5
:10441C00013B2B60D2E70028D0D0AB689B68AB6027
:10442C00C3F80CC02B68013B2B60C7E7AA68394660
:10443C00D460AA68E760A2602A68AC6001322A6086
:10444C00A1E7002C3FF472AFDAF80400C068CAF898
:10445C0004008260DAF80020013ACAF800205A6899
:10446C0064E7002C3FF462AFDAF808008068CAF801
:10447C000800C260DAF80020013ACAF800205A6835
:10448C0054E700BF980C00205800002040F21403A1
:10449C00C2F200030A2100221A71196040F20C03C7
:1044AC00C2F2000319601A71704700BF00B503F027
:1044BC0063FF00BD30B54CF2B03040F21C0490B03C
:1044CC00C2F20004C0F2200003F034FAA3686A467A
:1044DC001968204603F0CCFB10AB1818002300F829
:1044EC00403C684603F026FA4CF2A450C0F220007F
:1044FC0003F020FA0A236D46236010B030BD00BFD4
:10450C002DE9F045764F90B0764803F013FAFB682E
:10451C004BF217711C68C3F6D101204607F0A4FEBC
:10452C00002809DA4BF217712046CBF6D10107F0BF
:10453C0097FE002800F3CC804BF217712046C3F68F
:10454C00D10107F08DFE002863DA40F2000120460D
:10455C00CBF6807107F088FE002800F3BF800026A0
:10456C0020464FF07E5107F023FC40F20001CBF6C1
:10457C008071044607F078FE01360028F0DD5A48B9
:10458C0003F0D8F931466A46554803F071FB10AB7D
:10459C001818002600F8406C684603F0CBF9534815
:1045AC0003F0C8F96D46B04640F200012046C4F253
:1045BC00201107F005FD40F20001CBF68071044696
:1045CC0007F052FE0028C8BF4FF0000A11DC4FF074
:1045DC00000A20464FF07E5107F0EAFB40F2000142
:1045EC00CBF68071044607F03FFE00280AF1010A61
:1045FC00EFDD51466A463A4803F03AFB10AB181807
:10460C0000F8408C0136684603F094F9032ECBD1A8
:10461C0056E020464FF07E5107F022FE00285BDB6F
:10462C00002620464FF07E5107F0C0FB4FF07E5124
:10463C00044607F015FE01360028F2DA31466A46C8
:10464C00274803F015FB10AB1818002600F8406C37
:10465C00684603F06FF9254803F06CF96D46B046D7
:10466C0040F200012046C4F2201107F0A9FC4FF0E3
:10467C007E51044607F0F4FD0028B8BF4FF0000A45
:10468C000FDB4FF0000A20464FF07E5107F08EFBF7
:10469C004FF07E51044607F0E3FD00280AF1010AB1
:1046AC00F1DA51466A460E4803F0E2FA10AB1818DC
:1046BC0000F8408C0136684603F03CF9032ECFD14C
:1046CC000B4803F037F90A233B6010B0BDE8F085C6
:1046DC00084803F02FF92FE70026AFE700264EE736
:1046EC001C000020C4C32000E4C3200088C92000A3
:1046FC00A4C52000DCC3200010B5384C384803F0AA
:10470C0019F92369374A1878374B002814BF10461B
:10471C00184603F00FF9354803F00CF90A2323600F
:10472C0023691B78002B2DD04BF22043C4F20D03D0
:10473C001A6822F008021A604BF20043C4F20D030F
:10474C001A6842F008021A6044F2CC03C4F20D035A
:10475C0004221A604BF21C43C4F20D0308221A60A7
:10476C004BF21873C4F20D031A6822F400221A607B
:10477C004BF22003C4F20D03FF221A601C4B0022E3
:10478C00DA6410BD4BF22042C4F20D02116821F024
:10479C00080111604BF20042C4F20D02116841F0A5
:1047AC000801116044F2CC02C4F20D020421116024
:1047BC004BF21C42C4F20D02082111604BF218722C
:1047CC00C4F20D02116821F4002111604BF2200299
:1047DC00C4F20D021360064AD364D2E71C00002019
:1047EC00E8C32000FCC32000F0C32000A4C52000B7
:1047FC00F401002070B5854D854C28680023416874
:10480C000A2223766261237122600B46002900F094
:10481C00F5804A681F2A08D8102A06D0DB68002BBE
:10482C0000F0EC805A681F2AF6D9103A5A60C26818
:10483C00103AC2605A68AAB9D0F800C0BCF1010F96
:10484C0000F086809E68002E00F08C80D9680029CC
:10485C0000F0AA80F160DA680CF1FF3CC0F800C0EF
:10486C0096605A68196810208B18885004330022FF
:10487C001A702868236141680B46002900F0BA8041
:10488C004A681F2A08D8102A06D0DB68002B00F0D3
:10489C00B1805A681F2AF6D9103A5A60C268103A89
:1048AC00C2605A689AB9D0F800C0BCF1010F54D05C
:1048BC009E68002E6CD0D968002900F08D80F160C4
:1048CC00DA680CF1FF3CC0F800C096605A681968B1
:1048DC0010208B18885004332868002241681A6015
:1048EC00A3600B46002900F08D804A681F2A08D867
:1048FC00102A06D0DB68002B00F084805A681F2A2F
:10490C00F6D9103A5A60C268103AC2605A6872B945
:10491C000568012D17D09E68002E30D0D96800296B
:10492C0050D0F160DA68013D056096605A681968EC
:10493C0010208B188850043340F20002C4F2A012ED
:10494C001A60E36070BD0260426082605A68EEE7F4
:10495C000260426082605A6884E702604260826052
:10496C005A68B4E7BCF1000F3FF47CAFC9680CF196
:10497C00FF3CC0F800C041608A605A6872E7002DA5
:10498C00D5D0C968013D056041608A605A68CEE7A0
:10499C00BCF1000F9BD0C9680CF1FF3CC0F800C003
:1049AC0041608A605A6892E7BCF1000F3FF45AAF3D
:1049BC0081680CF1FF3C8968C0F800C08160CA6056
:1049CC005A684FE7002DB2D08168013D89680560B7
:1049DC008160CA605A68AAE7BCF1000F3FF477AF58
:1049EC0081680CF1FF3C8968C0F800C08160CA6026
:1049FC005A686CE702F0F6FF00236DE702F0F2FF55
:104A0C00002334E702F0EEFF002395E75800002066
:104A1C001C0000202DE9F04F0427DBB04BF22044A2
:104A2C0044F2CC094BF21C4A4BF2200857AAC4F2B0
:104A3C000D04C4F20D09BC46C4F20D0AC4F20D08F3
:104A4C0023684BF2004623F008032360C4F20D06E2
:104A5C003368082043F008034BF218753360C4F236
:104A6C000D05C9F800C0CAF800002B6840F2F4101C
:104A7C0023F400232B60FF210023C2F200004AF232
:104A8C00201BC8F80010C364C0F2070B104602923A
:104A9C00CDF804C00393CDF85CB104F03FFB216862
:104AAC00082021F0080121603168039B41F00801C6
:104ABC0031600421C9F80010CAF80000296858A810
:104ACC0021F40021296040F2F411C2F20001C8F86F
:104ADC000030CB64CDF860B104F020FB17F1FF3748
:104AEC00029ADDF804C0ABD14BF2204544F2CC095C
:104AFC004BF21C4A4BF22008052455AAC4F20D05B2
:104B0C00C4F20D094FF0040CC4F20D0AC4F20D08E6
:104B1C002B684BF2004723F008032B60C4F20D07FF
:104B2C003B684BF2187643F008033B600823C9F846
:104B3C0000C0C4F20D06CAF80030336840F2F4111C
:104B4C0023F400233360FF200023C2F2000148F25B
:104B5C00A06BC8F80000CB641046C0F2010B0292A7
:104B6C00CDF804C00393CDF854B104F0D7FA2968FA
:104B7C00042021F0080129603968039B41F00801E9
:104B8C0039600821C9F80000CAF80010316840F2F9
:104B9C00F41021F40021C2F200003160C364C8F8A3
:104BAC00003056A8CDF858B104F0B8FA14F1FF341F
:104BBC00029ADDF804C0ABD1DFF890373C943B93FC
:104BCC0040F22C03C0F228031B6808203A93DFF84C
:104BDC0080373D944F933E9450945194529400F0EE
:104BEC00F1FB4FAB036044603C9B002B40F0BB805F
:104BFC0001333D903E903C93DFF858370024082059
:104C0C004B934C944D944E9400F0DCFB4BAB0360F7
:104C1C0044603C9B002B40F09F80436001333D90EF
:104C2C003E903C93042000F0CDFBDFF82C37DFF8EE
:104C3C002C9703600023D9F81020349335933693C6
:104C4C001C468DF8E030DFF8183706460220339307
:104C5C00399200F0B7FB01230370447034903598FF
:104C6C0008B102F041FF022000F0ACFB012402234A
:104C7C00047044708DF8E030DFF8E83635904793D7
:104C8C00082033AB49933796ADF8204100F09AFBDE
:104C9C00002547AB03604560509B002B00F0508310
:104CAC00529A01335060456052905093042000F0AA
:104CBC0089FBDFF8B436DFF8B4260360D9F8083086
:104CCC0000242B932690032306208DF89C302292EF
:104CDC00239424942594289429942A9400F072FB0C
:104CEC00DFF88C160622054602F0E4FF082000F0DF
:104CFC0069FB05604460289B002B00F01B832A9AFB
:104D0C000133506044602A902893062000F05AFB2F
:104D1C000622DFF86016044602F0CCFF082000F0F3
:104D2C0051FB002204604260289B002B00F0FC82A7
:104D3C002A990133486042602A902893DFF838564C
:104D4C0028684468002C00F0EC8263681F2B11D893
:104D5C00102B0FD0E468F5E73E9A013350604460A5
:104D6C003E903C935EE73E9A0133506044603E9027
:104D7C003C9341E7103B6360C368103BC3606368BE
:104D8C0093B90168012900F0C782A268002A00F0DB
:104D9C00B782E668002E00F0A782D660E3689A60BE
:104DAC000368013B0360636822681021D418D1505A
:104DBC0004340522DFF8C415204602F07BFF0820DE
:104DCC0000F000FB002204604260289B002B00F0E6
:104DDC0085822A990133486042602A902893DFF833
:104DEC00A0354FF002014393082022AB4593ADF858
:104DFC00101100F0E7FA43AB002203604260509BB5
:104E0C00002B53D05299013348604260529050931A
:104E1C00042000F0D7FADFF86C35DFF86C2503605E
:104E2C00D9F80C3000270646052032932C922D978A
:104E3C002E972F978DF8C47000F0C4FA39460522CE
:104E4C00044602F083FF042323704FF08043C4F820
:104E5C0001302E982D9408B102F046FE052000F08A
:104E6C00B1FA00210522044602F070FF04232370DE
:104E7C004FF07E53C4F8013001238DF8C430DFF8B5
:104E8C000C3528683F934FF00303ADF800312CAB81
:104E9C002E94309641934468002C00F0FF81636897
:104EAC001F2B09D8102B07D0E468F5E743600133BA
:104EBC00519052905093ABE7103B6360C368103B2A
:104ECC00C360636893B90168012900F00282A2688B
:104EDC00002A00F0F281E568002D00F0E281D56037
:104EEC00E3689A600368013B0360636822681021E1
:104EFC00D418D15004343FAB2360002363604C9A28
:104F0C00002A00F0C4814E9A546063604C9B4E940E
:104F1C0001334C93042000F055FADFF8743416A9D1
:104F2C001A684FF00A0B02601791DFF8681400231F
:104F3C0016913AA98DF860301A911B901993CDF8FF
:104F4C0070B08DF874308DF878301F9320932193C6
:104F5C00136810461B68012216A9984706AD022259
:104F6C0005922F4667E04BF22048C4F20D08D8F8A2
:104F7C0000304BF2004623F00803C8F80030C4F2AE
:104F8C000D06336844F2CC0243F008033360C4F2DC
:104F9C000D02042313604BF21C43C4F20D030820D2
:104FAC004BF218741860C4F20D0421684BF2200AFD
:104FBC0021F400212160C4F20D0AFF21CAF800106F
:104FCC0040F2F4114FF0000CC2F20001C1F84CC0D9
:104FDC0048F2A061C0F2010153A8539104910292CE
:104FEC000393CDF804C004F099F8D8F80000029AA5
:104FFC0020F00800C8F800003068039B40F008005F
:10500C0030600420106008221A602368DDF804C0A8
:10501C0023F40023236040F2F413C2F2000304993A
:10502C00CAF800C054A8C3F84CC0549104F076F8E8
:10503C000598013805900599002994D1D64802F0BD
:10504C0079FCD648C9F800B002F074FC059B3A997B
:10505C002A46C24802F0C6FD059A2A54284602F098
:10506C0069FCCD4802F066FCCD48C9F800B002F0EE
:10507C0061FC3B9802F05EFCC74802F05BFC3D9B78
:10508C00C9F800B00593002B62D0C64802F052FC60
:10509C0005980368186802F04DFCBF4802F04AFC02
:1050AC000599C9F800B00B68D3F808A0BAF1000F45
:1050BC0049D0BD4802F03EFCDAF800304FF0000851
:1050CC00186802F037FCB44802F034FCB748C9F851
:1050DC0000B002F02FFCDAF800302A4699889F487D
:1050EC00002302F07FFD07F80080284602F022FC26
:1050FC00A94802F01FFCC9F800B0DAF80030AC483F
:10510C009B689E6802F016FC337893B1012400234F
:10511C00315D2A46914802F065FD07F8008028466B
:10512C0002F008FCA34802F005FC33780134A342DA
:10513C00EDDA994802F0FEFBC9F800B0DAF804A0E9
:10514C00BAF1000FB5D1059A52680592002A9CD18C
:10515C009DF87880B8F1000F0FD08F4802F0EAFB71
:10516C0049F28063C0F29803C9F800B059A859936A
:10517C0003F0D4FF02220592F5E68F4802F0DAFB29
:10518C00854802F0D7FB0724012240F22C032A7237
:10519C002C70CDF870B0C0F228031B6820466B60F1
:1051AC004FF0FF338DF868318DF869318DF86B2134
:1051BC0000F008F941462246064602F0C7FD3B23A3
:1051CC0033702B7873706B68C6F802302B7AB3711E
:1051DC00023BA34236D8DFE803F053503545350483
:1051EC003556EB68986803681B689847F071EB6854
:1051FC00998831819A685468002C46D0214611F860
:10520C00012B06F10A0002F055FDEB6824789A6830
:10521C000A34D2F80880B8F1000F09D04146301991
:10522C0011F8012B02F046FD98F80030E418EB68F9
:10523C00D3F80080404602F01BFE4146024630196E
:10524C0002F0D8FD1B9B2A78186802320368009282
:10525C005AAA9C695AA903323346A047304602F039
:10526C00C5FB7AE7EB681C68204602F001FE21467C
:10527C000246F01D02F0BEFDE4E7EB685C68F3E764
:10528C006B7AF371DEE7EC68EEE70A34C1E7626033
:10529C004C9B4D9401334E944C933BE602F0A2FB95
:1052AC0029E600293FF422AE826892688260D360BE
:1052BC000368013B0360636818E600293FF416AEEF
:1052CC004268D268426093600368013B0360636884
:1052DC000CE6436083600360636807E64360013358
:1052EC0029902A9028937AE500293FF45DAD8268D5
:1052FC0092688260D3600368013B0360636853E586
:10530C0000293FF451AD4268D26842609360036853
:10531C00013B0360636847E5436083600360636837
:10532C0042E502F05FFB44E54360013329902A908B
:10533C00289303E54360013329902A902893E4E4F1
:10534C004360519052905094B0E400BF04C42000CC
:10535C000CC4200014C42000054720001C000020B1
:10536C0088C3200020C42000C144200094C3200026
:10537C0024C420002CC420005800002034C4200079
:10538C003CC420000D452000A0C3200048C42000D0
:10539C00E8010020ACC32000A4C5200054C42000A8
:1053AC0060C4200070C4200084C4200098C4200075
:1053BC00B0C4200094C62000C8C42000704700BFB1
:1053CC00007D7047344B30B5196808B925E00130C1
:1053DC0010F0030FFBD14C6804300F2898BF10203D
:1053EC002246002C53D0636800F1100C634507D2A1
:1053FC00834213D0D268002A49D053686345F7D34F
:10540C001B1A5360D1F80CC0C0EB0C0CC1F80CC0CB
:10541C0063B11268D118D050081D30BD1B1A5360EF
:10542C00D1F80CC0C0EB0C0CC1F80CC0D1F800C00A
:10543C00BCF1010F0BD0956895B1D468DCB1EC6070
:10544C00D4680CF1FF3CA560C1F800C0E1E74FF057
:10545C00000CC1F804C0C1F808C0C1F800C0D8E7FE
:10546C00BCF1000FD5D0E4680CF1FF3C4C60C1F8E6
:10547C0000C0A560CDE7BCF1000FCAD08D680CF15F
:10548C00FF3CAD68C1F800C08D60EC60C1E7084618
:10549C0002F0A8FA0020C0E75800002030B590B008
:1054AC006A460023044602F09DFB10AB181800233B
:1054BC0000F8403C684602F03DFA6D46204610B0BC
:1054CC0030BD00BF2DE9F04F037882B03B2B03D0E9
:1054DC00002002B0BDE8F08F441C657946786B1E45
:1054EC00D4F801700B2BF3D8DFE813F01F00260063
:1054FC0039006F007600A900B0000E0123011501E0
:10550C001C010C000C20FFF75DFF072303700C231C
:10551C00037240F22C03C0F228031B68436000287E
:10552C00D7D0067047600572D3E70C20FFF74AFF0F
:10553C00072303700123EBE70C20FFF743FF08233D
:10554C0003700223037240F22C03C0F228031B6881
:10555C004360A379003B18BF01234372DFE7A6F138
:10556C00070A5FFA8AFA0AF101094846FFF72AFF8F
:10557C00002180464A4602F0E9FBA11D52464046F6
:10558C0002F098FB1420FFF71DFF00238360C3601B
:10559C0003610446C0F8048007601020FFF712FF77
:1055AC008046606802F064FC0323073088F80830FA
:1055BC0040F22C0388F80000C0F228031B68404618
:1055CC00C8F80430C8F80C40A9E70C20FFF7FAFE25
:1055DC000723037004239BE7A6F1070A5FFA8AFAF4
:1055EC000AF101094846FFF7EDFE002180464A46C4
:1055FC0002F0ACFBA11D5246404602F05BFB1020B2
:10560C00FFF7E0FE002343608360C3608246C0F86E
:10561C0000801020FFF7D6FE0446DAF8000002F0F6
:10562C0027FC05230730237240F22C032070C0F2B4
:10563C0028031B6820466360C4F80CA06FE70C209D
:10564C00FFF7C0FE07230370062361E7B4F80730A9
:10565C00009394F80680B8F1020F00F06581B8F160
:10566C00030F00F04581B8F1010F00F08A80002291
:10567C004FF00909019206F1FF3AC9EB0A0A5FFAE9
:10568C008AFA0AF1010B5846FFF79CFE002180466E
:10569C005A4602F05BFB04EB09015246404602F00D
:1056AC0009FB1020FFF78EFEC0F80080009B82469D
:1056BC008380019A82601020FFF784FE0723037019
:1056CC00037240F22C03C0F228031B68C0F80CA034
:1056DC004360DAF808800446D8F80C0002F0C8FBE6
:1056EC008146DAF8000002F0C3FBD8F80420D8F8A1
:1056FC00083012781B78D3180A3303F0FF0399444F
:10570C004844207020460AE70C20FFF75BFE072375
:10571C0003700823FCE60C20FFF754FE07230370EC
:10572C000A23F5E60C20FFF74DFE072303700B232D
:10573C00EEE6A6F1070A5FFA8AFA0AF10109484671
:10574C00FFF740FE002180464A4602F0FFFAA11DF9
:10575C005246404602F0AEFA1020FFF733FE0446E4
:10576C00404602F085FB09230730237240F22C03DC
:10577C002070C0F228031B6820466360C4F80C80BC
:10578C00CDE61C20FFF71EFE002343608360C36040
:10579C00994B8246036080F814800420FFF712FEB8
:1057AC00964B0360CAF81000DAF80400D4F809909C
:1057BC0008B102F099F9DFF84882D8F80000416886
:1057CC000B46002900F00D814A681F2A08D8102AC0
:1057DC0006D0DB68002B00F004815A681F2AF6D92A
:1057EC00103A5A60C268103AC2605A68CAB9D0F806
:1057FC0000C0BCF1010F00F0B580D3F808E0BEF199
:10580C00000F00F0C780D968002900F0B580CEF8F1
:10581C000C10DA680CF1FF3CC0F800C0C2F808E0CC
:10582C005A68196810208B1888501A1D581D0021B1
:10583C00931C517003F8011B03F8011B197004230E
:10584C001370C0F80090DAF80800CAF80420D4F8F5
:10585C000D9008B102F048F9D8F8000041680B46E9
:10586C00002900F0C3804A681F2A08D8102A06D0E5
:10587C00DB68002B00F0BA805A681F2AF6D9103A60
:10588C005A60C268103AC2605A68C2B9D0F800C0F7
:10589C00BCF1010F6BD0D3F808E0BEF1000F00F0A3
:1058AC008680D968002900F08E80CEF80C10DA685A
:1058BC000CF1FF3CC0F800C0C2F808E05A68196847
:1058CC0010208B1888501A1D581D0021931C5170E4
:1058DC0003F8011B03F8011B197004231370C0F8A3
:1058EC000090CAF808204FF01109CDF804A0C2E6C8
:1058FC002820FFF767FD434A0023824643608360FC
:10590C00C36003758361C361036202600420FFF707
:10591C0059FD3A4B4FF009090360CAF810008AF898
:10592C001480CDF804A0A6E61C20FFF74BFD364BE7
:10593C004FF0000A80460360C0F804A0C0F808A02D
:10594C00C0F80CA080F814A00420FFF73BFD2B4BF3
:10595C004FF00B090360C8F81000C8F818A0CDF878
:10596C00048088E60260426082605A6859E70260EF
:10597C00426082605A68A2E7BCF1000F3FF451AF5D
:10598C0081680CF1FF3C8968C0F800C08160CA6076
:10599C005A6846E7BCF1000F3FF443AFC9680CF1FD
:1059AC00FF3CC0F800C041608A605A6839E7BCF11E
:1059BC00000F84D0C9680CF1FF3CC0F800C04160F6
:1059CC008A605A687BE7BCF1000F3FF478AF8168BE
:1059DC000CF1FF3C8968C0F800C08160CA605A684D
:1059EC006DE701F0FFFF0120002220E701F0FAFF34
:1059FC000120002269E700BFA0C32000C95320008A
:105A0C005800002094C3200088C320002DE9F04FDB
:105A1C0091461E460A787E4B834682B00C46186827
:105A2C00002A00F0A98012F0030F08BF134604D01F
:105A3C001346013313F0030FFBD103F1040C43683D
:105A4C00BCF10F0F98BF4FF0100C002B00F0D5805D
:105A5C0059680CF1100E714508D2614506D0DB680F
:105A6C00002B00F0CA8059687145F6D3CCEB0101CC
:105A7C005960C168CCEB0101C1605968A9B90768CC
:105A8C00012F00F093809D68002D00F09680D3F8D4
:105A9C000CE0BEF1000F00F0A080C5F80CE0D96856
:105AAC008D6001680139016059681B685F183D1DE4
:105ABC0007F1050A07F1060843F801C00A37284622
:105ACC00002102F043F93B232B7023788AF8003035
:105ADC006368C8F80030237A3B70237A023B072BAB
:105AEC0037D8DFE803F05A5D366036043650E36889
:105AFC00986803681B689847E871E3689B882B815A
:105B0C00E3689A685768002F55D0394611F8012B75
:105B1C0005F10A0002F0CEF8E3683F789A680A377C
:105B2C00D2F80880B8F1000F09D04146E81911F8F5
:105B3C00012B02F0BFF898F80030FF18E368D3F897
:105B4C000080404602F094F941460246E81902F002
:105B5C0051F9DBF81430227818680232036800928D
:105B6C009C69494632462B46A04715B1284601F0A0
:105B7C003DFF02B0BDE8F08F06274FF002084FF052
:105B8C00010A15469BE7E768384602F071F9394679
:105B9C000246E81D02F02EF9DBE7637AEB71D8E7D9
:105BAC00E3685F68F0E7E3681F68EDE741608160D8
:105BBC000160596879E70A27B2E7002F3FF475AF07
:105BCC00D0F804E0DEF80CE0C0F804E0CEF80810E1
:105BDC00016801390160596867E7002F3FF465AF30
:105BEC00D0F808E0DEF808E0C0F808E0CEF80C10B9
:105BFC00016801390160596857E70192062701F0E5
:105C0C00F1FE4FF002084FF0010A0025019A56E709
:105C1C00580000202DE9F047436A89B005460E462E
:105C2C001746002B00F0F180DFF87C0401F082FEB7
:105C3C006B6A1B68186801F07DFEDFF8700401F0D8
:105C4C0079FEDFF86C0401F075FE0A23AB616B6A18
:105C5C001C68206802F00CF90523C21D8DF8103069
:105C6C00D2B240F22C038DF80820C0F228031B6836
:105C7C0005940393DFF83C341868002A51D012F0D5
:105C8C00030F08BF134604D01346013313F0030F60
:105C9C00FBD103F1040C4368BCF10F0F98BF4FF01C
:105CAC00100C002B00F0F48159680CF1100E7145AA
:105CBC0008D2614506D0DB68002B00F0E9815968F9
:105CCC007145F6D3CCEB01015960C168CCEB0101F5
:105CDC00C1605968B9B9D0F800E0BEF1010F00F00D
:105CEC002A819C68002C00F09681D3F80C80B8F1C6
:105CFC00000F00F0A181C4F80C80D9688C60016899
:105D0C000139016059681B6803EB010909F10404AE
:105D1C0009F1050A09F1060843F801C009F10A095D
:105D2C0006E04FF006094FF002084FF0010A144646
:105D3C002046002102F00AF83B2323709DF808301E
:105D4C008AF80030039BC8F800309DF8103089F8B1
:105D5C0000309DF81030023B072B43D8DFE813F0DE
:105D6C00E400E0004200D400420008004200E800D9
:105D7C00059B986803681B689847E071059B9B8896
:105D8C002381059B9A68D2F80480B8F1000F00F0CB
:105D9C003F81414611F8012B04F10A0001F08AFF02
:105DAC00059B98F800809A6808F10A08D2F808A0B8
:105DBC00BAF1000F0BD0514604EB080011F8012B7F
:105DCC0001F078FF9AF80030984402ABDB68D3F806
:105DDC0000A0504602F04CF85146024604EB080075
:105DEC0002F008F86B699DF8082018680232036805
:105DFC0000929D6931463A462346A84714B1204685
:105E0C0001F0F4FD09B0BDE8F087AB4801F092FD5C
:105E1C002B690A24586801F08DFDA44801F08AFD15
:105E2C00A34801F087FDA548AC6101F083FDA048B3
:105E3C0001F080FD0723AC618DF818300B238DF831
:105E4C00203040F22C03C0F228031B680793994BB7
:105E5C00186843683BB15A681F2A0CD8102A0AD01C
:105E6C00DB68002BF7D101F0BDFD002406210220D8
:105E7C004FF0010C26E0103A5A60C268103AC2602A
:105E8C005A68AAB90468012C00F0BD8099680029F1
:105E9C0000F0E680D3F80CC0BCF1000F00F0EC80F1
:105EAC00C1F80CC0DA6891600268013A02605A6865
:105EBC00196810208B1888501C1D03F1050C981DB7
:105ECC0003F10A010022A31C627003F8012B03F8F2
:105EDC00012B03F8012B03F8012B1A703B222270C3
:105EEC009DF818208CF80020079A02609DF820205D
:105EFC000A709DF82030023B072B60D8DFE803F0D6
:105F0C006C7F5F7B5F205F70059BD3F80080404601
:105F1C0001F0AEFF41460246E01D01F06BFF61E768
:105F2C00059BD3F80480F2E79DF81130E37159E733
:105F3C00DDF81480EBE74160816001605968E2E6AE
:105F4C000DF1240858F80C39986803681B689847B9
:105F5C00E071D8F80C309B882381D8F80C309A6803
:105F6C00D2F804A0BAF1000F77D0514611F8012BEA
:105F7C0004F10A0001F09EFED8F80C309AF800A04B
:105F8C009A680AF10A0AD2F80890B9F1000F0BD0FE
:105F9C00494604EB0A0011F8012B01F08BFE99F82D
:105FAC0000309A44D8F80C30D3F80080404601F009
:105FBC005FFF4146024604EB0A0001F01BFF6B69D0
:105FCC009DF8182018680232036800929D693146CA
:105FDC003A462346A84712E79DF82130E371EEE7D5
:105FEC00DDF82480404601F043FF41460246E01DA7
:105FFC0001F000FFE3E7099BD3F80080F2E7099B6F
:10600C00D3F80480EEE74260826002605A684FE782
:10601C004FF00A08CAE6BEF1000F3FF474AED0F898
:10602C0004E0DEF80CE0C0F804E0CEF808100168DB
:10603C0001390160596866E6BEF1000F3FF463AEAA
:10604C00D0F808E0DEF808E0C0F808E0CEF80C1054
:10605C00016801390160596855E64FF00A0A92E768
:10606C00002C3FF425AF4168C96841608A60026822
:10607C00013A02605A681BE7002C3FF419AF8168A3
:10608C0089688160CA600268013A02605A680FE749
:10609C0001924FF0060901F0A5FC4FF002084FF0F9
:1060AC00010A0024019A43E6F4C420000CC5200028
:1060BC00A4C520005800002010C5200030C52000C9
:1060CC002DE9F04F96B002929A460B7807463A2B80
:1060DC0000F03681DFF830560026286843683BB163
:1060EC005A68232A08D8142A06D0DB68002BF7D16B
:1060FC0001F078FC002421E0143A5A60C268143A8A
:10610C00C2605A68AAB90468012C00F0B78099687B
:10611C00002900F0A781D3F80CC0BCF1000F00F0EF
:10612C00AD81C1F80CC0DA6891600268013A026076
:10613C005A681B6814219C189950043409224FF09A
:10614C00000840F22C0384F808802270C0F2280367
:10615C001B6871896360337A6181012B00F0428185
:10616C00032B00F09080286812F0030F08BF134631
:10617C0004D01346013313F0030FFBD103F1040CCD
:10618C004368BCF10F0F98BF4FF0100C002B00F0C0
:10619C00AC8259680CF1100E714508D2614506D0DD
:1061AC00DB68002B00F0A18259688E45F6D8CCEB49
:1061BC0001015960C168CCEB0101C1605968B9B9E2
:1061CC00D0F800E0BEF1010F00F09E809D68002D1C
:1061DC0000F06081D3F80C90B9F1000F00F02A8226
:1061EC00C5F80C90D9688D60016801390160596857
:1061FC001868431840F801C01D1D03F10A0103F192
:10620C00050903F1060B0B33049103930021284677
:10621C0001F09CFD3A232B70237889F800306368D9
:10622C00CBF80030049A217A11706389039A138099
:10623C002378A3F10902D2B21AB10239C9B20129E9
:10624C0067D97A69023310680299026800939769DA
:10625C002B465246B84715B1284601F0C7FBB8F19A
:10626C00000F02D0404601F0C1FB204601F03CFC7F
:10627C00304601F039FC16B0BDE8F08F4260826008
:10628C0002605A6855E7DFF8840401F053FBDFF82D
:10629C00800401F04FFB0A23BB61042323723B698A
:1062AC00B6F80A90D96800293DD00B689B681BB9D9
:1062BC0036E05B68002B33D0D3F80080B8F80420AC
:1062CC004A45F6D1D8F8080003681B68984702289D
:1062DC0000F03081032800F04481012800F07D811A
:1062EC00DFF8300401F026FB22782868002A40F001
:1062FC00F981072306219046039304914FF0020B7A
:10630C004FF00109154681E74160816001605968D1
:10631C006EE705F10900E16801F0CCFC237890E709
:10632C0049680029C1D1FC4801F004FB494607F13A
:10633C001800FFF7B3F8F94801F0FCFA2278D4E71B
:10634C00F14D286843683BB15A68232A0AD8142AAD
:10635C0008D0DB68002BF7D10191002601F042FB3D
:10636C00019920E0143A5A60C268143AC2605A6823
:10637C00A2B90468012C70D09E68002E00F06B81CD
:10638C00D3F80CC0BCF1000F00F07581C6F80CC03E
:10639C00DA6896600268013A02605A681B68142039
:1063AC009E1898500436092333700023337240F240
:1063BC002C03C0F228031B684A1C73604B783370A3
:1063CC00D2F80100092B706050793072D28872813A
:1063DC003FF483AE831EDBB2012B3FF67EAE093158
:1063EC00F1607AE6CE4801F0A5FAC94801F0A2FAAC
:1063FC000A23BB61022323723B69B6F80A80D96871
:10640C00F1B10B689B6813B917E05B68ABB1D3F8BB
:10641C000090B9F804204245F7D1D9F80800036878
:10642C001B689847022870D0032844D0012857D005
:10643C00B84801F07FFA227857E749680029E0D183
:10644C00B54801F077FA414607F11800FFF726F836
:10645C00B24801F06FFA227847E74260826002602E
:10646C005A689BE7002C3FF464AE4168C9684160F0
:10647C008A600268013A02605A685AE6002C3FF4BE
:10648C0058AE816889688160CA600268013A02600E
:10649C005A684EE6BEF1000F3FF4AAAED0F804E005
:1064AC00DEF80CE0C0F804E0CEF808100168013901
:1064BC00016059689CE60420FEF784FF8346804601
:1064CC00D9F8080003681B689847032800F0E3809C
:1064DC0003990D22CBF800102270C4F80CB042E6E0
:1064EC000420FEF76FFF83468046D9F80800036846
:1064FC001B689847012800F0DB80049B0D22CBF829
:10650C0000302270C4F80CB02DE60120FEF75AFFC3
:10651C0083468046D9F8080003681B689847022810
:10652C0000F0D380059A8BF800200A222270C4F860
:10653C000CB018E6F368D8F8080093F800900368DC
:10654C001B68984702287FF4CFAED8F808309A69B8
:10655C0082F800901B691B68984788F80C90227889
:10656C00C3E6F368D8F80800D3F800B003681B68DA
:10657C00984703287FF4B8AE6A48D8F8089001F021
:10658C00D9F906AB1A4659466748019301F070FBDE
:10659C0016A90A18002102F8401C019B184601F0AC
:1065AC00C9F9624801F0C6F9D9F818105E480139EA
:1065BC00FEF774FF564801F0BDF9D9F818309B4529
:1065CC0007D2D9F82430C3F800B0D9F810301B68C2
:1065DC009847C8F80CB0227887E6F368D8F808001A
:1065EC00D3F8009003681B68984701287FF47CAEB1
:1065FC00D8F808309A69C2F800901B691B68984754
:10660C00D8F8083048465A689B68D2F801B0D3F8DD
:10661C00011005F029FE00283FF766AE48465946A2
:10662C0005F01EFE0028A4BFC8F80C902278BFF617
:10663C005CAE59E6BEF1000F3FF4DAADD0F808E0DD
:10664C00DEF808E0C0F808E0CEF80C10016801395B
:10665C0001605968CCE5002C3FF4A0AED0F804C022
:10666C00DCF80CC0C0F804C0CCF808200268013A71
:10667C0002605A6892E6002C3FF490AED0F808C045
:10668C00DCF808C0C0F808C0CCF80C200268013A4D
:10669C0002605A6882E6D9F808301B691B68984773
:1066AC00D9F808305B6A1B680393C9F80C300FE704
:1066BC00D9F808301B691B689847D9F808309B69D2
:1066CC001B680493C9F80C3017E7D9F808301B691C
:1066DC001B689847D9F808309B691B78059389F893
:1066EC000C301FE74FF000083EE5019201F07AF9FB
:1066FC0007230621039304914FF0020B4FF001097D
:10670C000025019A82E500BF58000020A8C5200092
:10671C00A4C520006CC52000E0C5200010C62000D8
:10672C004CC52000C8C520003000002094C62000B5
:10673C002DE9F047C36A8AB005460E461746002B72
:10674C0000F0F080DFF84C0501F0F4F8EB6A186803
:10675C0001F0F0F8DFF8400501F0ECF8DFF83C054B
:10676C0001F0E8F80A23AB61EB6A1C68204601F0E3
:10677C007FFB0923C21D8DF82030D2B240F22C03CE
:10678C008DF81820C0F228031B6809940793DFF8D2
:10679C0010351868002A51D012F0030F08BF1346A9
:1067AC0004D01346013313F0030FFBD103F1040C97
:1067BC004368BCF10F0F98BF4FF0100C002B00F08A
:1067CC005C8259680CF1100E714508D2614506D0F7
:1067DC00DB68002B00F0518259687145F6D3CCEB85
:1067EC0001015960C168CCEB0101C1605968B9B9AC
:1067FC00D0F800E0BEF1010F00F069819C68002C1C
:10680C0000F0E881D3F80C80B8F1000F00F0F381B0
:10681C00C4F80C80D9688C60016801390160596832
:10682C001B6803EB010909F1040409F1050A09F1DC
:10683C00060843F801C009F10A0906E04FF0060901
:10684C004FF002084FF0010A14462046002101F0D7
:10685C007DFA3B2323709DF818308AF80030079B93
:10686C00C8F800309DF8203089F800309DF82030B1
:10687C00023B072B43D8DFE813F023011F01420032
:10688C0013014200080042002701099B9868036825
:10689C001B689847E071099B9B882381099B9A6828
:1068AC00D2F80480B8F1000F00F09181414611F844
:1068BC00012B04F10A0001F0FDF9099B98F8008006
:1068CC009A6808F10A08D2F808A0BAF1000F0BD0A8
:1068DC00514604EB080011F8012B01F0EBF99AF882
:1068EC000030984406ABDB68D3F800A0504601F0AA
:1068FC00BFFA5146024604EB080001F07BFA6B69C3
:10690C009DF8182018680368023200929D69314680
:10691C003A462346A84714B1204601F067F80AB05E
:10692C00BDE8F087DF4801F005F8AB6A0A241B6864
:10693C00186800F0FFFFD84800F0FCFFD74800F0C3
:10694C00F9FFAB6AAC615B68AB62002B00F00B81AA
:10695C00D54800F0EFFFAB6A1B68186800F0EAFF3F
:10696C00CD4800F0E7FFCD4800F0E4FFAB6AAC6126
:10697C00D3F8008007238DF808308DF8103040F2E2
:10698C002C03C0F228031B68CDF814800393D8F8AD
:10699C000840E06801F06CFA8246D8F8000001F07B
:1069AC0067FA6268A36812781B78D2180A3202F070
:1069BC00FF0252441218BA4BD2B28DF80820186854
:1069CC00002A00F0C88012F0030F08BF134604D051
:1069DC001346013313F0030FFBD103F1040C43688E
:1069EC00BCF10F0F98BF4FF0100C002B00F0398149
:1069FC0059680CF1100E8E4508D9614506D0DB683C
:106A0C00002B00F02E8159687145F6D3CCEB0101B7
:106A1C005960C168CCEB0101C1605968B9B9D0F8B3
:106A2C0000E0BEF1010F00F0CD809C68002C00F05E
:106A3C00F680D3F80C80B8F1000F00F00181C4F897
:106A4C000C80D9688C6001680139016059681B6839
:106A5C0003EB010909F1040409F1050A09F106081F
:106A6C0043F801C009F10A092046002101F06EF932
:106A7C003B2323709DF808308AF80030039BC8F83C
:106A8C0000309DF8103089F800309DF81030023B32
:106A9C00072B5AD8DFE803F08F8B597F5920599375
:106AAC00099BD3F80080404601F0E2F941460246CA
:106ABC00E01D01F09FF922E7099BD3F80480F2E76F
:106ACC009DF82130E3711AE7DDF82480EBE7416093
:106ADC00816001605968A3E6059B986803681B6890
:106AEC009847E071059B9B882381059B9A68D2F897
:106AFC000480B8F1000F00F08F80414611F8012B93
:106B0C0004F10A0001F0D6F8059B98F800809A6809
:106B1C0008F10A08D2F808A0BAF1000F0AD05146C1
:106B2C0004EB080011F8012B01F0C4F89AF80030BE
:106B3C009844059BD3F800A0504601F099F95146B2
:106B4C00024604EB080001F055F96B699DF808202A
:106B5C0018680368D8E64FF006094FF002084FF0AA
:106B6C00010A144680E7514800F0E4FE6B6A1B688A
:106B7C00186800F0DFFE484800F0DCFE474800F0E3
:106B8C00D9FE6B6AAC615B6828466B6231463A464B
:106B9C00FFF740F8C3E6059BD3F80080404601F0B0
:106BAC0067F941460246E01D01F024F9CDE7059B4B
:106BBC00D3F80480F2E79DF81130E371C5E7DDF8F6
:106BCC001480EBE741608160016059683FE74FF04A
:106BDC000A0878E6BEF1000F3FF422AED0F804E0CC
:106BEC00DEF80CE0C0F804E0CEF8081001680139BA
:106BFC000160596814E6BEF1000F3FF411AED0F8F5
:106C0C0008E0DEF808E0C0F808E0CEF80C100168E7
:106C1C0001390160596803E64FF00A087AE7BEF1C2
:106C2C00000F3FF414AFD0F804E0DEF80CE0C0F82D
:106C3C0004E0CEF80810016801390160596806E7D4
:106C4C00BEF1000F3FF403AFD0F808E0DEF808E027
:106C5C00C0F808E0CEF80C100168013901605968E1
:106C6C00F5E601924FF0060900F0BCFE4FF0020869
:106C7C004FF0010A0024019AF6E601924FF0060942
:106C8C0000F0B0FE4FF002084FF0010A0024019A08
:106C9C00DBE500BF24C620000CC52000A4C52000E5
:106CAC005800002038C620005CC6200074C62000A6
:106CBC002DE9F047836A8DB005460E461746002B2A
:106CCC0000F00481DFF86C0500F034FEAB6A1B6841
:106CDC00186800F02FFEDFF8600500F02BFEDFF8DF
:106CEC005C0500F027FE0A23AB61AB6AD3F8008089
:106CFC0007238DF818308DF8203040F22C03C0F2A9
:106D0C0028031B68CDF824800793D8F80840E06866
:106D1C0001F0AEF88246D8F8000001F0A9F86268DC
:106D2C00A36812781B78D2180A3202F0FF02524480
:106D3C001218DFF80C35D2B28DF818201868002A1A
:106D4C0051D012F0030F08BF134604D01346013381
:106D5C0013F0030FFBD103F1040C4368BCF10F0FCC
:106D6C0098BF4FF0100C002B00F0588259680CF1B2
:106D7C00100E714508D2614506D0DB68002B00F07F
:106D8C004D8259687145F6D3CCEB01015960C1684D
:106D9C00CCEB0101C1605968B9B9D0F800E0BEF183
:106DAC00010F00F054819C68002C00F0E481D3F8B2
:106DBC000C80B8F1000F00F0EF81C4F80C80D9689A
:106DCC008C6001680139016059681B6803EB01098B
:106DDC0009F1040409F1050A09F1060843F801C098
:106DEC0009F10A0906E04FF006094FF002084FF0CE
:106DFC00010A14462046002100F0A8FF3B23237013
:106E0C009DF818308AF80030079BC8F800309DF8C0
:106E1C00203089F800309DF82030023B072B42D8F7
:106E2C00DFE813F00E010A014100FE0041000800EA
:106E3C0041001201099B986803681B689847E07130
:106E4C00099B9B882381099B9A68D2F80480B8F12E
:106E5C00000F00F08D81414611F8012B04F10A005E
:106E6C0000F028FF099B98F800809A6808F10A083E
:106E7C00D2F808A0BAF1000F0AD0514604EB080072
:106E8C0011F8012B00F016FF9AF800309844099B7A
:106E9C00D3F800A0504600F0EBFF5146024604EB3D
:106EAC00080000F0A7FF6B699DF8182018680368AC
:106EBC00023200929D6931463A462346A84714B1E6
:106ECC00204600F093FD0DB0BDE8F087DD4800F0E2
:106EDC0031FD6B6A0A241B68186800F02BFDD6483C
:106EEC0000F028FDD54800F025FD6B6AAC615B68AD
:106EFC006B62002B00F0F880D34800F01BFD6B6A2E
:106F0C001B68186800F016FDCB4800F013FDCB4849
:106F1C0000F010FD6B6AAC611C68206800F0A8FFE3
:106F2C000523C21D8DF81030D2B240F22C038DF81F
:106F3C000820C0F228031B6805940393C04B186803
:106F4C00002A00F0C98012F0030F08BF134604D0CA
:106F5C001346013313F0030FFBD103F1040C436808
:106F6C00BCF10F0F98BF4FF0100C002B00F04A81B2
:106F7C0059680CF1100E8E4508D9614506D0DB68B6
:106F8C00002B00F03F8159687145F6D3CCEB010121
:106F9C005960C168CCEB0101C1605968B9B9D0F82E
:106FAC0000E0BEF1010F00F0DE809C68002C00F0C8
:106FBC000781D3F80C80B8F1000F00F01281C4F8EF
:106FCC000C80D9688C6001680139016059681B68B4
:106FDC0003EB010909F1040409F1050A09F106089A
:106FEC0043F801C009F10A092046002100F0AEFE69
:106FFC003B2323709DF808308AF80030039BC8F8B7
:10700C0000309DF8103089F800309DF81030023BAC
:10701C00072B5BD8DFE803F0A09C5A905A205AA4A7
:10702C00099BD3F80080404600F022FF41460246FF
:10703C00E01D00F0DFFE36E7099BD3F80480F2E791
:10704C009DF82130E3712EE7DDF82480EBE74160F9
:10705C00816001605968B8E6059B986803681B68F5
:10706C009847E071059B9B882381059B9A68D2F811
:10707C000480B8F1000F00F0A080414611F8012BFC
:10708C0004F10A0000F016FE059B98F800809A683F
:10709C0008F10A08D2F808A0BAF1000F0BD051463B
:1070AC0004EB080011F8012B00F004FE9AF80030F4
:1070BC00984402ABDB68D3F800A0504600F0D8FE31
:1070CC005146024604EB080000F094FE6B699DF8F3
:1070DC00082018680368EBE64FF006094FF0020829
:1070EC004FF0010A14467FE7584800F023FC2B6947
:1070FC00586800F01FFC504800F01CFC4F4800F092
:10710C0019FCAC61524800F015FC4C4800F012FC24
:10711C000723AC618DF828300B238DF8303040F20A
:10712C002C03C0F228031B6828460B930AA932468D
:10713C003B46FEF76BFCC6E6059BD3F80080404649
:10714C0000F096FE41460246E01D00F053FEBDE7FE
:10715C00059BD3F80480F2E79DF81130E371B5E795
:10716C00DDF81480EBE741608160016059682EE71F
:10717C004FF00A087CE6BEF1000F3FF426AED0F8C3
:10718C0004E0DEF80CE0C0F804E0CEF8081001686A
:10719C0001390160596818E6BEF1000F3FF415AED5
:1071AC00D0F808E0DEF808E0C0F808E0CEF80C10E3
:1071BC00016801390160596807E64FF00A0869E770
:1071CC00BEF1000F3FF403AFD0F804E0DEF80CE0A2
:1071DC00C0F804E0CEF80810016801390160596864
:1071EC00F5E6BEF1000F3FF4F2AED0F808E0DEF8A1
:1071FC0008E0C0F808E0CEF80C1001680139016015
:10720C005968E4E601924FF0060900F0EBFB4FF0F1
:10721C0002084FF0010A0024019AE5E601924FF0B2
:10722C00060900F0DFFB4FF002084FF0010A0024C2
:10723C00019ADFE55CC620000CC52000A4C5200027
:10724C005800002074C62000F4C4200010C5200093
:10725C0030C520002DE9F047044690B0084616468C
:10726C001F46FEF72FF990F808800546B8F1020F7B
:10727C002AD0B8F1040F00F08E80B8F1060F00F0A0
:10728C009B80B8F1080F6DD0B8F10A0F00F0B180F7
:10729C00B8F10C0F05D0284600F026FC10B0BDE864
:1072AC00F0875F4800F046FB0A265E4800F042FB80
:1072BC005D48A66100F03EFB5A4800F03BFB012301
:1072CC00A66184F82030E6E7584800F033FB4FF015
:1072DC000A085448A14600F02DFB49F8188F544871
:1072EC0000F028FB697A6A46484600F0C1FC10ABF6
:1072FC001818002300F8403C684600F01BFB494876
:10730C0000F018FB6B7AEA46C4F81880002B5FD1AA
:10731C00484800F00FFB2369586800F00BFB464807
:10732C0000F008FB3F4800F005FBC4F81880D4F8C7
:10733C001080D8F8040000F09BFD032307308DF873
:10734C00083040F22C038DF80000C0F228031B68B3
:10735C0020460193694632463B46CDF80C80FEF739
:10736C0055FB98E7354800F0E5FA2E4800F0E2FAB4
:10737C000A23A361A36A1B68986803681B68984773
:10738C00032847D0A36A5B68A362204631463A467D
:10739C00FFF78EFC7FE72A4800F0CCFA214800F07A
:1073AC00C9FA0A23A36123692046DB68314663626C
:1073BC003A46FEF72FFC6EE7224800F0BBFA19485C
:1073CC0000F0B8FA0A23A361636A1B689B68DBE7C9
:1073DC001D4800F0AFFA134800F0ACFAC4F818805E
:1073EC00104800F0A7FA0123C4F8188084F8203064
:1073FC0051E7164800F09EFA0A4800F09BFAE36A3F
:10740C00C4F818805B68E362204631463A46FFF7C1
:10741C008FF940E7A36A1B689B68DB69F3E700BF41
:10742C00A4C72000A4C52000CCC7200098C620000B
:10743C00B4C62000C8C620000CC5200058C72000C8
:10744C0010C7200034C72000DCC6200080C72000F5
:10745C002DE9F04F91B08DF8002003F109091D467C
:10746C000369D9F802201B6882469A4217D04C480F
:10747C0000F060FA0A244B4800F05CFACAF8184095
:10748C00484800F057FACAF81840DAF81430294680
:10749C00186803689B6A984711B0BDE8F08F4248A2
:1074AC0001AE0AF1180700F045FAD5F8C8103246BB
:1074BC000023384600F096FB11AA13184FF0000871
:1074CC0003F8408C304600F035FA384800F032FAB8
:1074DC001023CAF8183001242B199979324600234D
:1074EC00384600F07FFB11AB181800F8408C304682
:1074FC0000F020FA012C37D039D90A23CAF81830F9
:10750C002B4800F017FAD5F8C830DBB14FF0000B60
:10751C005C46D8462748AB4400F00CFA00239BF895
:10752C0009103246384600F05DFB11AA101800F81D
:10753C00408C304600F0FEF9D5F8C8300134A34237
:10754C00A346E7D8174800F0F5F90A23CAF8183013
:10755C006B7A3A2B18D03B2B0BD0124800F0EAF97F
:10756C000A23CAF8183090E7134800F0E3F9013405
:10757C00B2E79AF82030002BEFD1EA1D504649466D
:10758C006B46FFF767FEE8E79AF82030002BE4D053
:10759C00EA1D504649466B46FEF792FDDDE700BFFB
:1075AC0004C82000A4C520001CC8200028C8200046
:1075BC0044C8200094C6200040C8200070B500F0DC
:1075CC0081FCBA494B68002B00F059815A6846F28D
:1075DC000300824209D8B2F5C04F06D0DB68002BFD
:1075EC0000F04D815A688242F5D9A2F5C0425A602A
:1075FC00CA68AE48A2F5C042CA605A6892B904681B
:10760C00012C00F0EF809968002900F01E81DD68E4
:10761C00002D00F02881CD60DA6891600268013A93
:10762C0002605A681968DFF888C200238C18CCF8FD
:10763C000030CCF80430CCF80830CCF80C304CD0FE
:10764C004FF4C0408C506060A360E360DCF80C30F9
:10765C001B18CCF80C30DCF8043051F802E06068F0
:10766C00002B00F0A7801D687044A8420CBF1A467E
:10767C001A4604D0D26812B111688842FAD15968FE
:10768C006D18AE4508D0DB68002B00F092801868AE
:10769C00596841188E45F6D119461346C3B1606836
:1076AC005A6882186260DCF80000012800F09280B1
:1076BC009A68002A00F09B80DD68002D00F0A680FF
:1076CC00D560DB689A60DCF80030013BCCF8003008
:1076DC0019B14A686368D3184B60764BC3F800C085
:1076EC0000F030FD00F04AFE734B002293E83000AE
:1076FC0043F24803C4F203031968704B5518186819
:10770C00234643F1000644F66D63C4F2C61305FB31
:10771C0003F505F5405503683935694CB5F1FF3F64
:10772C0028BF0135DB6A256098470378002B40F0B1
:10773C0098804178003918BF012149F20043C4F206
:10774C000D031A6822F020021A6044F29402C4F26B
:10775C000D020123136047F20802C4F20D02B52397
:10776C00136047F20002C4F20D02136813F0800F8D
:10777C00FBD047F21002C4F20D02136847F20C0260
:10778C00C4F20D02126881EA050502EB032244F6ED
:10779C006D63C4F2C61303FB05F505F54055393589
:1077AC00B5F1FF3F28BF013542F30B135D40256057
:1077BC0070BD1346DCF80010002936D1A160E160E1
:1077CC00DCF80020CCF804400132CCF80840CCF8AE
:1077DC00002063E70023CCF80430CCF80830CCF858
:1077EC00003075E74260826002605A681AE7002830
:1077FC003FF46EAFDCF80430DB68CCF804309A60F0
:10780C00DCF80030013BCCF8003061E700283FF495
:10781C005FAFDCF808309B68CCF80830DD60DCF832
:10782C000030013BCCF8003052E7DCF80820002196
:10783C00D460DCF80820E160A260DCF80020CCF811
:10784C0008400132CCF8002028E7002C3FF4EAAEC7
:10785C004168C96841608A600268013A02605A68EE
:10786C00E0E6012169E7002C3FF4DCAE8168896811
:10787C008160CA600268013A02605A68D2E6114C13
:10788C0001232371104800F055F8104800F052F80D
:10789C00DFF81CC00A2323600023CCF80030CCF89E
:1078AC000430CCF80830CCF80C3016E7980C0020DB
:1078BC004800002058000020A80C0020E8010020FF
:1078CC00640000203800002048C82000A4C5200017
:1078DC0000B500F0D7FB40F2B0130022C2F2000357
:1078EC001A6040F2AC13C2F200031A6040F240037B
:1078FC00C2F200030A211A71196040F23803C2F275
:10790C00000319601A7100BD40F25C03C2F200035F
:10791C0000221A605A60704700B5004602F096F8D3
:10792C0000BD00BF00B502F091F800BD00B503F03A
:10793C0069FF00BD2DE9F045002507467C5D1C4E16
:10794C00AA46DFF8708084B1092C29D00A2C18D0F3
:10795C00336820460133336003F0B4FF33684F2B98
:10796C0005DC01357C5D002CEED1BDE8F0850D20E9
:10797C0003F0A8FF0A2003F0A5FF0135C6F800A00C
:10798C00F0E70D2003F09EFF204603F09BFFD8F894
:10799C000030C6F800A00133C8F800300135E1E72B
:1079AC00204603F08FFF3368013508333360D9E785
:1079BC00AC010020B001002010B54CF6600040F284
:1079CC0038040123C2F20004C0F220002371FFF737
:1079DC00B1FF4CF2A450C0F22000FFF7ABFF0A231A
:1079EC00236010BD00B5FFF7A1FF00BD3D4B70B487
:1079FC001D6850F8043C041F0F2B41D9002240F89D
:107A0C00044C6360A260E260EA68D318EB606B68B8
:107A1C0050F804CC6068002B35D01E686044B0422E
:107A2C000CBF1A461A4604D0D26812B111688842AB
:107A3C00FAD159687618B44507D0DB68002B21D0F1
:107A4C001868596841188C45F7D11946134693B1FB
:107A5C0060685A6882186260286801281DD09A688C
:107A6C00002A1FD0DE68002E31D0D660DB689A6009
:107A7C002B68013B2B6019B14A686368D3184B60C3
:107A8C0070BC704713462968B1B9A160E1602A68DF
:107A9C006C600132AC602A60D9E700236B60AB608C
:107AAC002B60E8E70028E6D06B68DB686B609A60B7
:107ABC002B68013B2B60DEE7AA680021D460AA6822
:107ACC00E160A2602A68AC6001322A60BFE700283E
:107ADC00D1D0AB689B68AB60DE602B68013B2B6040
:107AEC00C9E700BF580000203D4B70B41D6850F82A
:107AFC00043C041F0F2B41D9002240F8044C636056
:107B0C00A260E260EA68D318EB606B6850F804CCB2
:107B1C006068002B35D01E686044B0420CBF1A461A
:107B2C001A4604D0D26812B111688842FAD1596849
:107B3C007618B44507D0DB68002B21D0186859683B
:107B4C0041188C45F7D11946134693B160685A68B1
:107B5C0082186260286801281DD09A68002A1FD0FC
:107B6C00DE68002E31D0D660DB689A602B68013B52
:107B7C002B6019B14A686368D3184B6070BC7047AE
:107B8C0013462968B1B9A160E1602A686C600132C2
:107B9C00AC602A60D9E700236B60AB602B60E8E730
:107BAC000028E6D06B68DB686B609A602B68013B41
:107BBC002B60DEE7AA680021D460AA68E160A260AD
:107BCC002A68AC6001322A60BFE70028D1D0AB68CC
:107BDC009B68AB60DE602B68013B2B60C9E700BF84
:107BEC005800002070B400293BD0B1F5807F1BD920
:107BFC00D0F800C0BCF1080F14BF00240124BCF164
:107C0C00100F08BF44F0010484B14FF0300C02F89F
:107C1C0003C0D0F800C00133BCF1100F06D14FF0F7
:107C2C00780C02F803C00133D0F800C00C465D1C80
:107C3C00B4FBFCF41E462B46002CF8D10B4C9219CD
:107C4C00B1FBFCF30CFB131C14F80C3002F80139DB
:107C5C00D0F800C0B1FBFCF10029F1D1284670BC72
:107C6C0070473021D154581CF9E700BF7CC8200064
:107C7C00002900B503DB0023FFF7B4FF00BD2D2363
:107C8C00137049420123F7E7302310B41370084CEA
:107C9C0078235370072301F00F0C14F80CC0D01884
:107CAC000909013B80F802C0F5D20A2010BC7047CC
:107CBC007CC820000F2A30B405460C4642D941EA54
:107CCC00000313F0030F02BF14468C46034609D081
:107CDC00002314F803C005F803C001339A42F8D10D
:107CEC0030BC7047DCF80050103C1D60DCF80450D0
:107CFC005D60DCF808509D60DCF80C500CF1100C49
:107D0C00DD6010330F2CEDD8A2F1100404F00F023B
:107D1C0024F00F04103405190C19032A12D900236E
:107D2C0054F803C045F803C00433C3EB020CBCF198
:107D3C00030FF5D8043A22F003030433ED18E418CA
:107D4C0002F00302002AC3D1CAE700BF10F0030FF0
:107D5C0030B403460DD0002A4AD0013A5FFA81FCB8
:107D6C0002E0002A44D0013A03F801CB13F0030FD0
:107D7C00F7D1032A32D901F0FF040F2A44EA042474
:107D8C001D4644EA044484BF9C46154616D9103D52
:107D9C000F2DCCF80040CCF80440CCF80840CCF8BF
:107DAC000C400CF1100CF2D8A2F1100C2CF00F05B9
:107DBC0010350CF00F025D19032A0ED90023EC507C
:107DCC000433C3EB020CBCF1030FF8D8043A22F0D5
:107DDC0003030433ED1802F003022B4642B1C9B27F
:107DEC004FF0000C03F80C100CF1010C6245F9D1AA
:107DFC0030BC704741EA000313F0030F14BF00239B
:107E0C000123032A94BF002303F0010310B4002BB9
:107E1C002CD00346D1F800C0ACF1013424EA0C0498
:107E2C0014F0803F1BD0C2B10C789C46013A0CF880
:107E3C00014B54B1023382B111F8014F9C4603F847
:107E4C00014C013A0133002CF5D132B10023194613
:107E5C000CF8031001339A42FAD110BC7047043A63
:107E6C000431032A43F804CBDDD9D3E70346DAE720
:107E7C0010F0030F08BF034609D0037803B3034681
:107E8C0001E01A78D2B1013313F0030FF9D11A685B
:107E9C00A2F1013121EA020212F0803F08D153F81D
:107EAC00042FA2F1013121EA020212F0803FF6D038
:107EBC001A781AB113F8012F002AFBD1181A70473F
:107ECC001846FCE700B500F003F800F095F800BD8B
:107EDC00DFF81CC147F2F832C2F20002CCEB02020E
:107EEC0070B4002A4AD00023424DCCF800C0CCF824
:107EFC000420CCF80830CCF80C30EB686446D3186E
:107F0C00EB606B68002B3CD01E680CEB8200B0421F
:107F1C000CBF1A461A4604D0D26812B111688842B6
:107F2C00FAD1596806EB8106B44208D0DB68002B05
:107F3C0026D05868196801EB80018C42F6D119469D
:107F4C001346ABB1DCF804005A688218CCF8042054
:107F5C002C68284A012C23D09868002825D0DD688D
:107F6C00002D3AD0C560DB6898601368013B136044
:107F7C0021B14A68DCF80430D3184B6070BC7047F0
:107F8C0013462A681B48D2B90121CCF80820CCF83A
:107F9C000C200160C0F804C0C0F808C01146D0E73E
:107FAC000023536093601360E2E7002CE0D0536829
:107FBC00DB68536098601368013B1360D8E78168F5
:107FCC000132C1F80CC08168CCF808100021CCF843
:107FDC000C10C0F808C00260B3E7002CC8D093683E
:107FEC009B689360DD601368013B1360C0E700BFC2
:107FFC00B00C0020980C002043F20C03C4F20303D5
:10800C001A68122022F001021A6042F20802C4F22D
:10801C000D02116841F00801116042F20C02C4F229
:10802C000D02116841F00801116042F21002C4F215
:10803C000D02116841F00801116043F200020021A9
:10804C00C4F20302116043F20402C4F20302106092
:10805C0043F22802C4F203024FF0FF30106043F2E7
:10806C003802C4F20302116043F21802C4F2030294
:10807C00116841F0010111601A6842F001021A60A6
:10808C00704700BF4CF22043C4F20D031A6822F073
:10809C00C0021A604CF20043C4F20D031A6822F0BD
:1080AC00C0021A6044F2F8030122C4F20D031A60F4
:1080BC0044F2FC03C4F20D031A6042F20002C4F253
:1080CC000D0211684FF6F873CFF6DC6301EA030377
:1080DC0043F4081342F204011360C4F20D010A6860
:1080EC0040F20003C0F2011302EA0303002BF6D1A5
:1080FC0042F20003C4F20D031A6822F4E0621A6023
:10810C0042F20402C4F20D02136813F0806FFBD02C
:10811C00704700BF4EF61453CEF200031A6842F0BB
:10812C0001021A6042F29803C4F20D031A6842F07D
:10813C0001021A604EF60853CEF200034FF40112FE
:10814C001A60704700B5FFF7E5FF00F0AFFD00F0D7
:10815C0019F800F09BF800F009F800F001F800BDE8
:10816C0000B5002000F084FC00BD00BF044B0822C9
:10817C0003F5807183F8002801338B42FAD17047E4
:10818C00740300204EF210034EF21802CEF20003DC
:10819C000021CEF20002196011604EF21402CEF2F0
:1081AC0000024FF4FA41116006221A604BF69D0151
:1081BC0040F27422C2F20002C0F22001D1631A68AC
:1081CC0042F001021A60704740F26D030022C2F2C5
:1081DC0000031A7040F26C03C2F200031A7040F2F2
:1081EC006803C2F200030221196040F68843C2F210
:1081FC0000031A6040F69443C2F2000349F2380CB3
:10820C001A60C4F2080C032349F2400049F24C01F5
:10821C00CCF8003030B4C4F208000424C4F20801D5
:10822C0049F244030460C4F208030A601D6845F077
:10823C0040051D601D6845F008051D601D6845F072
:10824C0008051D602023CCF8004002600B6049F249
:10825C005003C4F208031A6842F080021A601A68CC
:10826C0042F010021A6049F21C03C4F20803012206
:10827C001A6049F22403C4F208031A6049F22C0371
:10828C00C4F208031C6030BC704700BF4BF22043A3
:10829C00C4F20D031A682DE9F04822F004021A60AA
:1082AC004BF20043C4F20D031A6842F004021A6048
:1082BC004BF21003C4F20D03FF221A6049F23C0288
:1082CC00C4F20802136843F001031360136843F00F
:1082DC0002031360136813F0800FFBD049F2040300
:1082EC00C4F208031A6822F001021A60FFF76CFF4F
:1082FC001D4B01221A601D4A1D4BC3F8F0204EF293
:10830C000413CEF200034FF480521A60EFF310877F
:10831C00FFB207B162B6174843F24806C4F203062F
:10832C0090E80018316800225B4612EB010B49F211
:10833C000002C0F2D03243F1000C00231BEB020B05
:10834C004CEB030C90E80C003168002415466218C5
:10835C0045F100039C45F5D801D19345F2D807B1FE
:10836C0062B6BDE8F08800BF680000205DBA20004E
:10837C0074020020A80C0020704700BF00B500F06C
:10838C00EDFC00F001F800BD10B5324B18684168E7
:10839C000B46002959D04A68272A07D8182A05D035
:1083AC00DB68002B51D05A68272AF7D9183A5A6043
:1083BC00C268183AC2605A6892B9D0F800C0BCF1D1
:1083CC00010F21D09C68002C26D0D96800292FD011
:1083DC00E160DA680CF1FF3CC0F800C094605A68A8
:1083EC00196818208B1888500433012119721A4906
:1083FC0000221A6019610A2218495A60086840B1B3
:10840C00DA60174A136010BD0260426082605A68DD
:10841C00E6E70B605A68F3E7BCF1000FE0D0C968DF
:10842C000CF1FF3CC0F800C041608A605A68D7E785
:10843C00BCF1000FD4D081680CF1FF3C8968C0F806
:10844C0000C08160CA605A68CAE7FFF7CBFA002304
:10845C00CBE700BF5800002081972000740C00204F
:10846C00880100202DE9F04772B6454A136811685F
:10847C0013F0080F21EA0301116003D0414A11687F
:10848C000131116013F0020F70D0DFF8FC80D8F8C6
:10849C000030002B6AD048F610024FF0000CC4F2EA
:1084AC000802384F48F61404C2F800C0C4F208049D
:1084BC003E68D4F800A048F61804C4F20804D4F8B6
:1084CC00009032024FEA09291CEB090442F1000525
:1084DC0014EB0A0148F62404C4F20804D4F800A0F2
:1084EC0045F100024FEA0A44091948F62004C4F287
:1084FC0008044FEA1A45D4F800A042EB05024FEAF3
:10850C000A64091948F61C044FEA1A25C4F2080437
:10851C0042EB0502D4F800A011EB0C01D7F800C017
:10852C0042EB0A02664505D000244FF48075091908
:10853C0042EB0502DFF854C09CE83000954215D898
:10854C0012D00022C8F8002048F60802C4F2080233
:10855C000821116062B698474EF20013CEF2000368
:10856C004FF080621A6009E08C42EAD94EF2001397
:10857C00CEF200034FF080621A6062B6BDE8F0875D
:10858C00E4010020D0010020BC010020B401002037
:10859C0040F2C81300210022C2F2000383E8060057
:1085AC0040F2DC13C2F2000383E8060040F2C01371
:1085BC00C2F2000383E8060048F60403C4F2080381
:1085CC001A6848F60C0122F001021A6048F60802FB
:1085DC00C4F208020020C4F2080110600860196897
:1085EC0048F2714021F0020119601968C0F22000B4
:1085FC0041F00801196040F27421C2F20001C1F887
:10860C00C4004EF20411CEF2000102200860116881
:10861C0041F0080111601A6842F001021A607047BB
:10862C002DE9F001D4B20C7246680023CB6049608E
:10863C000F1D002E22D0D0F8088098F80430A342E9
:10864C0022D8D8F808308BB1454693F804C0A4451D
:10865C0007D9CDB10136AF604660CB60BDE8F00103
:10866C0070479A6812B11D461346EEE7C36801368F
:10867C009F600023CB604660C760EFE70123CE60AC
:10868C0043608760C760E9E70136C1F80C8046603B
:10869C008760E3E710B44468012C17D0836801F1BC
:1086AC00040C9C4517D04BB19A682AB1944503D061
:1086BC0013469268002AF9D1CA689A60C268944538
:1086CC0008BFC360013C446010BC7047002383604A
:1086DC00C3604360F8E7002CF6D0CB68013C8360A4
:1086EC004460F1E7F0B5846806461746CDB29CB1FC
:1086FC00002001E0A46874B12379AB42FAD1206860
:10870C00314603682A46D3F800C03B46E047A468CC
:10871C000120002CF0D1F0BD2046FCE78368C9B2E3
:10872C007BB1002001E09B6843B193F804C08C45F9
:10873C00F9D122B918689B68002BF6D17047013A21
:10874C00F1E71846FAE700BFC64BE222036048F691
:10875C003803C4F208031A60EF221A6048F28C62E4
:10876C002DE9F041C4F208020026166048F290622E
:10877C00C4F20802166048F29462C4F20802166051
:10878C0048F25862044646608660C660C4F208022D
:10879C00F820106048F2E872C4F208020920106058
:1087AC0048F2C862C4F208021520106048F60402B0
:1087BC00C4F208020B20106048F2B862C4F208023E
:1087CC0001201060EE221A60ED221A6048F2546308
:1087DC00C4F208031A68A44F22F001021A6048F28E
:1087EC008C53C4F208031E6048F25063FF22C4F29B
:1087FC0008031A6048F24063C4F208031A6048F296
:10880C009473C4F208031A6048F63403C4F20803E4
:10881C001E6048F63003C4F208031E6048F62C03B1
:10882C00C4F208031E60914B21612360E66126624D
:10883C006662A662E662354626634FF0E008666320
:10884C00A663E663C4F89060C4F894603868436823
:10885C003BB15A68EF2A08D8E02A06D0DB68002B17
:10886C00F7D1FFF7BFF8002323E0E03A5A60C26863
:10887C00E03AC2605A68BAB9D0F800C0BCF1010F36
:10888C0000F0D1809968002900F0D280D3F80CE078
:10889C00BEF1000F00F0D980C1F80CE0DA689160ED
:1088AC000268013A02605A6819688B1841F8028014
:1088BC00043349F641021A80A2190436502E83F86B
:1088CC00BC50C3F8C050C3F8C850C3F8CC30C3F880
:1088DC00D050C3F8D430C3F8D8501364B6D140F29A
:1088EC002C03C0F228031A7840F22D03C0F228039F
:1088FC00197840F22E0351402175C0F228031A78E2
:10890C0040F22F03C0F228031B7848F2246683EA56
:10891C00020248F2D053C4F208036275196048F29F
:10892C00D453C4F208031A6048F20463C4F2080377
:10893C001A68C4F2080622F020021A603368204636
:10894C0043F04003336048F20063C4F208031A6832
:10895C0042F001021A6048F20863C4F208031A6874
:10896C0042F001021A603368402243F02003336066
:10897C0048F23063C4F208031A601A23A36148F268
:10898C003C63C4F2080356221A6001F0CFF948F692
:10899C003403C4F208031D6048F63003C4F2080324
:1089AC001D6048F62C03C4F208031D6048F28C636A
:1089BC00C4F2080304221A6048F29062C4F208025E
:1089CC00156048F29462C4F208020C21116042F264
:1089DC00A802C4F20D02116841F00101116042F2CB
:1089EC00AC02C4F20D02116841F00101116042F2B7
:1089FC00B002C4F20D02116841F00101116032683D
:108A0C0022F00C0232601A6822F004021A601A6812
:108A1C0042F004021A6048F63803C4F20803E32259
:108A2C001A60BDE8F0814260826002605A683BE7E0
:108A3C00BCF1000F3FF438AF4168C96841608A60EF
:108A4C000268013A02605A682EE7BCF1000F3FF44D
:108A5C002BAF816889688160CA600268013A026044
:108A6C005A6821E7F0C8200058000020BCC920003B
:108A7C0042F2A803C4F20D031A6870B542F0010269
:108A8C001A6042F2AC03C4F20D031A68044642F0B9
:108A9C0001021A6042F2B003C4F20D031A6842F0EC
:108AAC0001021A60FFF774FD344B186841680B46DD
:108ABC0000295FD04A68AB2A07D89C2A05D0DB680E
:108ACC00002B57D05A68AB2AF7D99C3A5A60C26827
:108ADC009C3AC2605A6872B90568012D32D09E6802
:108AEC00002E34D0D96800293AD0F160DA68013D03
:108AFC00056096605A681B689C219D189950043536
:108B0C0021462846FFF720FE1D4B04EB440403EBE3
:108B1C00840243F824502A21013443F824102B23D7
:108B2C009360184B184A43F82120C3F8AC204EF23E
:108B3C000013CEF200034FF080621A604FF0006217
:108B4C001A6070BD0260426082605A68D3E7002DE3
:108B5C00D1D0C968013D056041608A605A68CAE796
:108B6C00002DC8D08168013D896805608160CA60AC
:108B7C005A68C0E7FEF736FF0025C1E75800002011
:108B8C00E80100207402002071A0200040F6A843E8
:108B9C00C2F200034DF804BD93E806004FF0010B40
:108BAC0011EB0B014FF0000C42EB0C0283E80600BA
:108BBC005DF804BB704700BF49F21803C4F2080308
:108BCC001A6840F67C43C2F20003196841EA0202BB
:108BDC001A6049F20803C4F208031A6840F680438D
:108BEC00C2F20003196841EA02021A6049F210034A
:108BFC00C4F208031A6840F68443C2F200031968F1
:108C0C0041EA02021A60704748F60C0340F2E41283
:108C1C00C4F20803C2F200021968106840EA0101AC
:108C2C00116000221A604EF28013CEF200034FF056
:108C3C0080621A604EF28023CEF200031A607047F5
:108C4C004EF28413CEF2000302221A604EF28423F9
:108C5C00CEF200031A6070470368232B0DD0252B2E
:108C6C0013D0272B19D0332B01BF43F22403C4F2AA
:108C7C0003034FF0FF321A60704740F22403C4F232
:108C8C0003034FF0FF321A60F6E741F22403C4F2FB
:108C9C0003034FF0FF321A60EEE742F22403C4F2F2
:108CAC0003034FF0FF321A60E6E700BF72B64EF2D4
:108CBC0080134FF0FF32CEF200031A604EF2841391
:108CCC00CEF200031A601B491B4A0023CA5004331E
:108CDC00B3F5807FFAD10023DFF860C018464CF85A
:108CEC0003000433B3F5807F144AF8D1144BC2F857
:108CFC008C30C2F89430C2F89C30C2F8CC30114B96
:108D0C00C2F8A830104BC2F8C430104BC2F8F03087
:108D1C000F4B136453649364D3640E4B0822CB60E3
:108D2C000D4BC1F8CC304EF20413CEF200031A6096
:108D3C00704700BF74020020CDB7200070000020E7
:108D4C00658C20004D8C2000158C2000C58B2000DC
:108D5C00B1B62000D1B72000998B200010B5314B53
:108D6C00186841680B46002957D04A68272A07D84B
:108D7C00182A05D0DB68002B4FD05A68272AF7D960
:108D8C00183A5A60C268183AC2605A6892B9D0F858
:108D9C0000C0BCF1010F1FD09C68002C24D0D968F6
:108DAC0000292DD0E160DA680CF1FF3CC0F800C05E
:108DBC0094605A68196818208B18885004331A4923
:108DCC000122196119491A605A601A72486840B137
:108DDC00DA60174A136010BD0260426082605A6804
:108DEC00E8E74B605A68F3E7BCF1000FE2D0C968C2
:108DFC000CF1FF3CC0F800C041608A605A68D9E7AA
:108E0C00BCF1000FD6D081680CF1FF3C8968C0F82A
:108E1C0000C08160CA605A68CCE7FEF7E3FD00230E
:108E2C00CDE700BF58000020998E2000740C002064
:108E3C0074010020014B0360704700BF1CC9200067
:108E4C00014B0360704700BF1CC9200040F278132F
:108E5C00C2F2000300221A605A609A60704700BF89
:108E6C0000B5406800F084F900BD00BF024B00B5AE
:108E7C000360FEF739FE00BD1CC92000024B00B593
:108E8C000360FEF731FE00BD1CC92000F0B572B6C0
:108E9C003F4B1A6801321A603E4A13682BB1516875
:108EAC00486801380028486007DD002362B61BB112
:108EBC00586803689B689847F0BD012B3CD0CB6881
:108ECC000020536098601368013B1360CB6823B19A
:108EDC00D3F804C04868604458600B689868B0F1D7
:108EEC00FF3F03D0013898600028DFD0D3F80CC0C6
:108EFC002848C1F804C01668002E35D047687C6835
:108F0C00A445B8BF3D4609DBF868F8B1C4EB0C0CBE
:108F1C00C1F804C044680546A44514DAA8680028C2
:108F2C0029D0CCEB040C0136C5F804C0C160A96093
:108F3C00CD6088601660B9E70023536093601368B6
:108F4C00013B1360C2E7C0680028DFD19068C4EB16
:108F5C000C0CC1608860C1F804C00020C86091602E
:108F6C00116801311160A1E701228E60CE600260B0
:108F7C00416081609AE7CCEB040CC5F804C08860B2
:108F8C00CF60B96051601168013111608EE700BF8C
:108F9C00700100207801002030B472B6DFF880C078
:108FAC00DCF80410E9B10B68984218BF0B462BD0C3
:108FBC00DB68B3B11A689042FAD1DCF80000184CA7
:108FCC00012811D09D68002D20D0DA6892B1EA609A
:108FDC00DA680138956020601AB151685B68CB186B
:108FEC00536062B630BC704700226260A26022609F
:108FFC00DA68F1E70028F4D0A168013889682060AC
:10900C00A160CA60DA68E7E70B46D6E708B9DA6808
:10901C00E2E7CA680138626020609560DA68DBE7D5
:10902C007801002083603B4BD1F800C01B68C0F86E
:10903C0000C05B684FF47A7CBCFBF3F344F2402C29
:10904C00C0F20F0CBCFBF3FC0B68002103EB5C03C0
:10905C00B3FBFCF3F0B54260C36000614361816116
:10906C00C16172B62BB962B6136810469B689847FB
:10907C00F0BD294C00F1100C2668002E32D0676828
:10908C0079688B42B8BF3D461ADBFA684AB15B1A65
:10909C00CCF80430516815468B421FDA436999426B
:1090AC000EDC5B1A4361A368C3F80CC08361002318
:1090BC00C3612368C4F808C00133236062B6D7E7E4
:1090CC00AA68CAB1CB1A01366B60C2F80CC0C5F8DD
:1090DC0008C0C5618261266062B6C9E7D268002A01
:1090EC00D5D1DBE701238661C6612360C4F804C0D7
:1090FC00C4F808C062B6BBE7CB1A6B602368826108
:10910C000133C761C7F808C02360C4F804C062B655
:10911C00AEE700BF740100207801002070B58EB05E
:10912C0008AC06460021204600F01CF80B4B3146DB
:10913C000CAA0C93684601230D94FFF773FF20468D
:10914C0000F02AF86846FFF727FF054B20466D46CE
:10915C000C9300F035F80EB070BD00BF08C92000AC
:10916C001CC920000023036043608360C16070470A
:10917C0000B572B600F10C0151E8002F02F10102AA
:10918C0041E80023002BF7D1002A01DD62B600BDB7
:10919C0000F0E4FBFBE700BF00B572B600F10C0178
:1091AC0051E8002FA2F1010241E80023002BF7D176
:1091BC00002A01DB62B600BD00F036F8FBE700BF09
:1091CC0000B572B600F0DCFA00BD00BF40F28C12A4
:1091DC000023C2F20002D36013605360936040F22C
:1091EC00A012C2F2000213605360704712F0FF0F1E
:1091FC0018BF0C4B00B51FBF1B68DA685A68DA60E1
:10920C00884209D003694BB100230B6150F80C3F25
:10921C00CB68C96802F09CFD62B600BD01230361F6
:10922C00F2E700BF880100205C492DE9F045CB68CE
:10923C00CB681A68CB68CB6802F11C069E4263D0DF
:10924C000B68012B00F08380546A002C72D0956A55
:10925C00002D00F08180E560D2F828C0013BCCF8ED
:10926C0008400B60D0F8008003231361B8F1000FA5
:10927C0025D0D0F804A002F12007DAF80430D2F897
:10928C0020C00AF104059C452EDA5346D5F800E0BF
:10929C00D2F820C0E6451BDC836808F10108DE60CB
:1092AC00536200239362C0F800808660CB685061E3
:1092BC00196810460122FFF799FFBDE8F0850123DC
:1092CC00C2F82480C2F82880036046608660EDE70F
:1092DC009C68002C56D008F10108E6609E609362F1
:1092EC005462C0F80080E1E7DAF80C3023B9CCE71F
:1092FC00DC68002CCAD02346D3F804E0D7F800C0B1
:10930C001D1DE645F4DDC1E70B687BB1012B30D0A8
:10931C00D1F804C00024DCF80CE0013BC1F804E0F7
:10932C000B60CEF80840C1F80CC09BE79C46C1F816
:10933C000CC097E7002B95D0D1F804C0013BDCF8AA
:10934C000CC00B60C1F804C0CCF808408AE70023BD
:10935C004B608B600B6085E7002B83D0D1F808C085
:10936C00013BDCF808C00B60C1F808C0CCF80C500D
:10937C0078E7D1F804C000234B608B600B60C1F818
:10938C000CC06FE708F101085462C2F828A0CAF8B3
:10939C000860C0F80080466088E700BF8C010020A0
:1093AC002DE9F045044672B6614B6248196804F128
:1093BC001C0701311960C368C368002B64D0D0F856
:1093CC000080B8F1000F1FD0D0F804A004F12006E3
:1093DC00DAF80410236A0AF10405994256DD534663
:1093EC00D5F800C0216A8C4569DC8368DF60636254
:1093FC000023A36203688760013303604E4B186837
:10940C007AB9A260BDE8F0850123C4F82480C4F8C1
:10941C002880036047608760474B18680AB9F0E7FB
:10942C00013212F0030FFBD1456804320F2A98BFAA
:10943C0010222B46002D76D0696802F1100C8C4559
:10944C0007D9914205D0DB68002B6CD05968614577
:10945C00F7D3891A5960C168891AC160596871B902
:10946C000668012E36D09F68002F42D0DD68002D93
:10947C004BD0FD60D968013E06608F6059681B684F
:10948C0058185A50021DBCE7C760C5E7DAF80C3013
:10949C00002BA4D0D3F804C031681D1D8C459FDC73
:1094AC00D96800299CD00B46D3F804C031681D1D27
:1094BC008C45F5DDD5F800C0216A8C4595DD9968A1
:1094CC0069B108F10108CF609F60A3626162C0F8C6
:1094DC000080A1E70160416081605968CFE70368B3
:1094EC0061620133C4F828A0CAF8087003604760B1
:1094FC0092E7002EC3D0D5F80CC0013E0660C0F830
:10950C0004C0CCF808105968B9E7002EB7D0D0F8D1
:10951C0008C0013EDCF808C00660C0F808C0CCF8F2
:10952C000C105968ABE7FEF75DFA002269E700BF43
:10953C009C0100208C01002058000020F0B572B670
:10954C003D4BDA68DA681068DA681A68002A3DD090
:10955C0059686FF0004CD1F804E0E64536D0012A8A
:10956C00D3F80CE055D0D1F80CC00024013AC3F864
:10957C0004C01A60CCF808401E682F4AD960002E2F
:10958C002AD057680EF104057A68DEF804103C1DE9
:10959C00914243DBFA68002A40D0D2F804C0296813
:1095AC00141D8C4523DDD4F800C0DEF804108C4566
:1095BC0022DC9A68C2F80CE0CEF808200022CEF823
:1095CC000C201A68C3F808E001321A60DB6801222B
:1095DC001968FFF70BFEF0BD0121CEF80860CEF83C
:1095EC000C601160C2F804E0C2F808E0EEE7D16844
:1095FC000029D8D00A46D0E7916889B10136C1F864
:10960C000CE0C2F808E0CEF80C20CEF808101E6072
:10961C00DCE700225A609A601A60ADE73A46C2E76E
:10962C001A68CEF808100132CEF80C70C7F808E0B2
:10963C001A60C3F804E0C9E78C01002030B5114D65
:10964C00114C2A682368012B06D962B630BF002A58
:10965C00F8D0FFF773FFF4E772B60C4C0C48FEF72A
:10966C0069F90A250B48FEF765F925600A48FEF7EB
:10967C0061F90848FEF75EF9256002F0A7F830BFE3
:10968C00002030BD8C0100209C01002038000020FF
:10969C0054C92000A4C5200070C92000344BF0B57B
:1096AC00DA681C681068DA682CB9DB680122196862
:1096BC00FFF79CFDF0BDD3F80CE05F680EF10406DB
:1096CC007A68DEF804103D1D914243DBFA68002AEB
:1096DC0040D0D2F804C03168151D8C451FDDD5F87B
:1096EC0000C0DEF804108C451EDC9A681C68C2F8B9
:1096FC000CE0CEF8082001340022CEF80C201C60BF
:10970C00C3F808E04CB1012C1BD05C680021E26866
:10971C005A6091601A68013A1A60DC60C5E7D1683A
:10972C000029DCD00A46D4E79168A9B10134C1F80C
:10973C000CE0C2F808E0CEF80C20CEF808101C6043
:10974C00E0E700225C689A605A601A68DC60013AB3
:10975C001A60AAE73A46C2E71C68CEF80810013432
:10976C00CEF80C70C7F808E01C60C3F804E0C9E739
:10977C008C01002000B572B6FFF790FF00BD00BF52
:10978C002DE9F04F434D0446EB680368002B74D071
:10979C0000264FF001082F46012B40D06268013B98
:1097AC00D168236061608E601268C2F81080EB682B
:1097BC00EB68566102F11C0C002B26D0D7F800A0E8
:1097CC00BAF1000F30D0D7F8049002F1200ED9F87E
:1097DC000410136A09F1040099422EDD4B4600680F
:1097EC00116A88423CDCAB68C3F80CC053622B682E
:1097FC0096620133C5F808C02B60FFF74FFF72B6B5
:10980C002368002BC8D1BDE8F08FC7F80CC0FFF758
:10981C0045FF72B62368002BF5D0012BBED16268D0
:10982C00A66066602660BFE756629662C7F8008045
:10983C00C7F804C0C7F808C0E9E7D9F80C3023B959
:10984C00CCE7D9680029CAD00B46D3F804B0DEF8AF
:10985C000010181D8B45F4DD0068116A8842C2DDCA
:10986C00996861B10AF1010AC1F80CC0C3F808C0CB
:10987C0093625162C5F800A0C9E762B6C3E72B68D2
:10988C0051620133C2F82890C9F808C02B60C5F8A2
:10989C0004C0BCE78C010020C368036910B5012B20
:1098AC0018D00369B3B12C4BDA68D96800F11C02EB
:1098BC0091421CD01A68012A29D0416A002935D05E
:1098CC00846A002C3FD0CC60D0F828C0013ACCF888
:1098DC0008101A600369012B01D062B610BD026A30
:1098EC006FF000439A42F8D0FFF7D8FEF6E71A68FB
:1098FC00CAB1012A10D059680024D1F80CC0013A21
:10990C00C3F804C01A60CCF80840D960E2E7002222
:10991C005A609A601A60DDE7596800225A609A60B2
:10992C001A60D960D6E71146D960D3E7002AD1D0A6
:10993C00D3F804C0013ADCF80CC01A60C3F804C0B8
:10994C00CCF80810C6E7002AC4D09968013A896897
:10995C001A609960CC60BDE78C0100203A4BF0B5E1
:10996C00DA680268002A37D0012A43D041684FF0E8
:10997C00000ED1F80CC0013AC0F804C00260CCF85B
:10998C0008E0096801200861D3F80CC0DD680022EA
:10999C004A6101F11C042C4A002D1FD01668002EC0
:1099AC0020D0576801F120057A68086A07F1040E87
:1099BC00904225DA3A46DEF800C0086A84452EDC6F
:1099CC009A68D4604A6200228A621A689C600132EA
:1099DC001A60FFF763FE00E062B6F0BDD460FFF7DB
:1099EC005DFEFAE74E628E62106054609460FFF781
:1099FC0055FEF2E700224168826042600260C0E7D7
:109A0C00FA6822B9D6E7D0680028D4D00246D2F83A
:109A1C0004C0286802F1040E8445F4DDCBE790689D
:109A2C0040B10136C46094608A6248621E60FFF7E0
:109A3C0035FED2E71A68486201328F62BC601A6048
:109A4C005C60FFF72BFEC8E78C0100202DE9F0418C
:109A5C0072B69E4BDA68DA68D9681268D3F80CC013
:109A6C0002F11C018C4500F09E801968012900F060
:109A7C00DF80546A002C00F0AE80956A002D00F057
:109A8C00EA80E560D2F828C00139CCF808401960AA
:109A9C0091680860042111618D49086801380860DB
:109AAC009169002900F09180916901240C61D2F830
:109ABC0018C0D868D86885490CF11C0570B30F68BC
:109ACC00002F00F0A180D1F804800CF12006D8F80A
